{
  "_format": "hh-sol-artifact-1",
  "contractName": "MarketPlace",
  "sourceName": "contracts/libs/MarketPlace.sol",
  "abi": [
    {
      "anonymous": false,
      "inputs": [
        {
          "indexed": false,
          "internalType": "address",
          "name": "owner",
          "type": "address"
        },
        {
          "indexed": false,
          "internalType": "uint256",
          "name": "tokenID",
          "type": "uint256"
        }
      ],
      "name": "AlreadyApply",
      "type": "event"
    },
    {
      "anonymous": false,
      "inputs": [
        {
          "indexed": false,
          "internalType": "address",
          "name": "owner",
          "type": "address"
        },
        {
          "indexed": false,
          "internalType": "uint256",
          "name": "tokenID",
          "type": "uint256"
        },
        {
          "indexed": false,
          "internalType": "uint256",
          "name": "cost",
          "type": "uint256"
        }
      ],
      "name": "ApplyItem",
      "type": "event"
    },
    {
      "anonymous": false,
      "inputs": [
        {
          "indexed": false,
          "internalType": "uint256",
          "name": "tokenID",
          "type": "uint256"
        },
        {
          "indexed": false,
          "internalType": "address",
          "name": "nextOwner",
          "type": "address"
        },
        {
          "indexed": false,
          "internalType": "uint256",
          "name": "lastCost",
          "type": "uint256"
        }
      ],
      "name": "AuctionEnded",
      "type": "event"
    },
    {
      "anonymous": false,
      "inputs": [
        {
          "indexed": false,
          "internalType": "uint256",
          "name": "tokenID",
          "type": "uint256"
        },
        {
          "indexed": false,
          "internalType": "uint256",
          "name": "marketID",
          "type": "uint256"
        },
        {
          "indexed": false,
          "internalType": "address",
          "name": "participant",
          "type": "address"
        },
        {
          "indexed": false,
          "internalType": "uint256",
          "name": "newCost",
          "type": "uint256"
        }
      ],
      "name": "AuctionNewSuggest",
      "type": "event"
    },
    {
      "anonymous": false,
      "inputs": [
        {
          "indexed": false,
          "internalType": "uint256",
          "name": "tokenID",
          "type": "uint256"
        },
        {
          "indexed": false,
          "internalType": "uint256",
          "name": "marketID",
          "type": "uint256"
        },
        {
          "indexed": false,
          "internalType": "uint256",
          "name": "startCost",
          "type": "uint256"
        },
        {
          "indexed": false,
          "internalType": "uint256",
          "name": "ended",
          "type": "uint256"
        }
      ],
      "name": "AuctionStarted",
      "type": "event"
    },
    {
      "anonymous": false,
      "inputs": [
        {
          "indexed": false,
          "internalType": "uint256",
          "name": "tokenID",
          "type": "uint256"
        },
        {
          "indexed": false,
          "internalType": "uint256",
          "name": "newCost",
          "type": "uint256"
        }
      ],
      "name": "ChangeItemCost",
      "type": "event"
    },
    {
      "anonymous": false,
      "inputs": [
        {
          "indexed": false,
          "internalType": "address",
          "name": "owner",
          "type": "address"
        },
        {
          "indexed": false,
          "internalType": "uint256",
          "name": "tokenID",
          "type": "uint256"
        }
      ],
      "name": "DeleteItem",
      "type": "event"
    },
    {
      "anonymous": false,
      "inputs": [
        {
          "indexed": false,
          "internalType": "address",
          "name": "owner",
          "type": "address"
        },
        {
          "indexed": false,
          "internalType": "address",
          "name": "core",
          "type": "address"
        }
      ],
      "name": "InitializeMarketPlace",
      "type": "event"
    },
    {
      "anonymous": false,
      "inputs": [
        {
          "indexed": false,
          "internalType": "uint256",
          "name": "marketID",
          "type": "uint256"
        }
      ],
      "name": "MarketClosed",
      "type": "event"
    },
    {
      "anonymous": false,
      "inputs": [
        {
          "indexed": false,
          "internalType": "uint256",
          "name": "marketID",
          "type": "uint256"
        }
      ],
      "name": "MarketCreated",
      "type": "event"
    },
    {
      "anonymous": false,
      "inputs": [
        {
          "indexed": false,
          "internalType": "uint256",
          "name": "marketID",
          "type": "uint256"
        }
      ],
      "name": "MarketOpened",
      "type": "event"
    },
    {
      "anonymous": false,
      "inputs": [
        {
          "indexed": false,
          "internalType": "uint256",
          "name": "marketID",
          "type": "uint256"
        }
      ],
      "name": "MarketRemoved",
      "type": "event"
    },
    {
      "inputs": [],
      "name": "AUCTION_PERIOD",
      "outputs": [
        {
          "internalType": "uint256",
          "name": "",
          "type": "uint256"
        }
      ],
      "stateMutability": "view",
      "type": "function"
    },
    {
      "inputs": [],
      "name": "PERCENTAGE_FOR_FEE",
      "outputs": [
        {
          "internalType": "uint256",
          "name": "",
          "type": "uint256"
        }
      ],
      "stateMutability": "view",
      "type": "function"
    },
    {
      "inputs": [
        {
          "internalType": "address",
          "name": "_owner",
          "type": "address"
        },
        {
          "internalType": "uint256",
          "name": "token",
          "type": "uint256"
        },
        {
          "internalType": "uint256",
          "name": "marketId",
          "type": "uint256"
        },
        {
          "internalType": "uint256",
          "name": "cost",
          "type": "uint256"
        }
      ],
      "name": "applyItem",
      "outputs": [
        {
          "internalType": "bool",
          "name": "",
          "type": "bool"
        }
      ],
      "stateMutability": "nonpayable",
      "type": "function"
    },
    {
      "inputs": [
        {
          "internalType": "address",
          "name": "_owner",
          "type": "address"
        },
        {
          "internalType": "uint256",
          "name": "token",
          "type": "uint256"
        },
        {
          "internalType": "uint256",
          "name": "marketId",
          "type": "uint256"
        },
        {
          "internalType": "uint256",
          "name": "newCost",
          "type": "uint256"
        }
      ],
      "name": "changeItemCost",
      "outputs": [
        {
          "internalType": "bool",
          "name": "",
          "type": "bool"
        }
      ],
      "stateMutability": "nonpayable",
      "type": "function"
    },
    {
      "inputs": [
        {
          "internalType": "uint256",
          "name": "marketID",
          "type": "uint256"
        }
      ],
      "name": "checkMarketisOpen",
      "outputs": [
        {
          "internalType": "bool",
          "name": "",
          "type": "bool"
        }
      ],
      "stateMutability": "view",
      "type": "function"
    },
    {
      "inputs": [
        {
          "internalType": "uint256",
          "name": "marketID",
          "type": "uint256"
        }
      ],
      "name": "closeMarket",
      "outputs": [
        {
          "internalType": "bool",
          "name": "",
          "type": "bool"
        }
      ],
      "stateMutability": "nonpayable",
      "type": "function"
    },
    {
      "inputs": [
        {
          "internalType": "address",
          "name": "_owner",
          "type": "address"
        },
        {
          "internalType": "uint256",
          "name": "token",
          "type": "uint256"
        },
        {
          "internalType": "uint256",
          "name": "marketId",
          "type": "uint256"
        }
      ],
      "name": "deleteItem",
      "outputs": [
        {
          "internalType": "bool",
          "name": "",
          "type": "bool"
        }
      ],
      "stateMutability": "nonpayable",
      "type": "function"
    },
    {
      "inputs": [
        {
          "internalType": "address",
          "name": "user",
          "type": "address"
        },
        {
          "internalType": "uint256",
          "name": "amount",
          "type": "uint256"
        }
      ],
      "name": "deposit",
      "outputs": [],
      "stateMutability": "nonpayable",
      "type": "function"
    },
    {
      "inputs": [
        {
          "internalType": "address",
          "name": "initializer",
          "type": "address"
        },
        {
          "internalType": "uint256",
          "name": "token",
          "type": "uint256"
        },
        {
          "internalType": "uint256",
          "name": "marketID",
          "type": "uint256"
        }
      ],
      "name": "endAuction",
      "outputs": [
        {
          "internalType": "bool",
          "name": "",
          "type": "bool"
        }
      ],
      "stateMutability": "nonpayable",
      "type": "function"
    },
    {
      "inputs": [
        {
          "internalType": "address",
          "name": "user",
          "type": "address"
        }
      ],
      "name": "getUserBalanceOnMarket",
      "outputs": [
        {
          "internalType": "uint256",
          "name": "",
          "type": "uint256"
        }
      ],
      "stateMutability": "view",
      "type": "function"
    },
    {
      "inputs": [
        {
          "internalType": "address",
          "name": "_owner",
          "type": "address"
        }
      ],
      "name": "initializeMarketPlace",
      "outputs": [],
      "stateMutability": "nonpayable",
      "type": "function"
    },
    {
      "inputs": [
        {
          "internalType": "uint256",
          "name": "marketID",
          "type": "uint256"
        }
      ],
      "name": "makeMarket",
      "outputs": [],
      "stateMutability": "nonpayable",
      "type": "function"
    },
    {
      "inputs": [
        {
          "internalType": "uint256",
          "name": "",
          "type": "uint256"
        }
      ],
      "name": "market",
      "outputs": [
        {
          "internalType": "uint256",
          "name": "marketID",
          "type": "uint256"
        },
        {
          "internalType": "bool",
          "name": "isOpened",
          "type": "bool"
        }
      ],
      "stateMutability": "view",
      "type": "function"
    },
    {
      "inputs": [
        {
          "internalType": "uint256",
          "name": "",
          "type": "uint256"
        }
      ],
      "name": "marketExists",
      "outputs": [
        {
          "internalType": "bool",
          "name": "",
          "type": "bool"
        }
      ],
      "stateMutability": "view",
      "type": "function"
    },
    {
      "inputs": [
        {
          "internalType": "uint256",
          "name": "marketID",
          "type": "uint256"
        }
      ],
      "name": "openMarket",
      "outputs": [
        {
          "internalType": "bool",
          "name": "",
          "type": "bool"
        }
      ],
      "stateMutability": "nonpayable",
      "type": "function"
    },
    {
      "inputs": [
        {
          "internalType": "uint256",
          "name": "token",
          "type": "uint256"
        },
        {
          "internalType": "uint256",
          "name": "marketId",
          "type": "uint256"
        }
      ],
      "name": "purchase",
      "outputs": [
        {
          "internalType": "uint256",
          "name": "",
          "type": "uint256"
        }
      ],
      "stateMutability": "payable",
      "type": "function"
    },
    {
      "inputs": [
        {
          "internalType": "uint256",
          "name": "marketID",
          "type": "uint256"
        }
      ],
      "name": "removeMarket",
      "outputs": [
        {
          "internalType": "bool",
          "name": "",
          "type": "bool"
        }
      ],
      "stateMutability": "nonpayable",
      "type": "function"
    },
    {
      "inputs": [
        {
          "internalType": "address",
          "name": "_owner",
          "type": "address"
        },
        {
          "internalType": "uint256",
          "name": "token",
          "type": "uint256"
        },
        {
          "internalType": "uint256",
          "name": "marketID",
          "type": "uint256"
        },
        {
          "internalType": "uint256",
          "name": "startCost",
          "type": "uint256"
        }
      ],
      "name": "startAuction",
      "outputs": [],
      "stateMutability": "nonpayable",
      "type": "function"
    },
    {
      "inputs": [
        {
          "internalType": "address",
          "name": "suggester",
          "type": "address"
        },
        {
          "internalType": "uint256",
          "name": "token",
          "type": "uint256"
        },
        {
          "internalType": "uint256",
          "name": "marketID",
          "type": "uint256"
        },
        {
          "internalType": "uint256",
          "name": "suggestCost",
          "type": "uint256"
        }
      ],
      "name": "suggest",
      "outputs": [
        {
          "internalType": "bool",
          "name": "",
          "type": "bool"
        }
      ],
      "stateMutability": "nonpayable",
      "type": "function"
    },
    {
      "inputs": [
        {
          "internalType": "address",
          "name": "",
          "type": "address"
        }
      ],
      "name": "userDepositedBalances",
      "outputs": [
        {
          "internalType": "uint256",
          "name": "",
          "type": "uint256"
        }
      ],
      "stateMutability": "view",
      "type": "function"
    },
    {
      "inputs": [
        {
          "internalType": "address",
          "name": "user",
          "type": "address"
        },
        {
          "internalType": "uint256",
          "name": "amount",
          "type": "uint256"
        }
      ],
      "name": "withdraw",
      "outputs": [],
      "stateMutability": "nonpayable",
      "type": "function"
    }
  ],
  "bytecode": "0x608060405234801561001057600080fd5b50611ace806100206000396000f3fe60806040526004361061012a5760003560e01c80639c166273116100ab578063c422c2831161006f578063c422c28314610386578063e403a3271461039d578063ec254e47146103bd578063ec69a654146103d2578063f3fef3a314610402578063ffeec9871461042257600080fd5b80639c166273146102e6578063acc8fb7d14610306578063ae41809514610326578063b303e67e14610346578063baa267571461036657600080fd5b806347e7ef24116100f257806347e7ef241461024457806348ad1688146102665780636b2513fb1461028657806370876c98146102b35780639114412c146102c657600080fd5b8063054660e61461012f578063116f7e96146101645780631c7132ce146101a857806328861d22146101d85780632eced73c14610224575b600080fd5b34801561013b57600080fd5b5061014f61014a366004611851565b610442565b60405190151581526020015b60405180910390f35b34801561017057600080fd5b5061019a61017f366004611882565b6001600160a01b031660009081526002602052604090205490565b60405190815260200161015b565b3480156101b457600080fd5b5061014f6101c3366004611851565b60009081526003602052604090205460ff1690565b3480156101e457600080fd5b5061020f6101f3366004611851565b6004602052600090815260409020805460019091015460ff1682565b6040805192835290151560208301520161015b565b34801561023057600080fd5b5061014f61023f3660046118a6565b610527565b34801561025057600080fd5b5061026461025f3660046118db565b61086e565b005b34801561027257600080fd5b50610264610281366004611882565b610919565b34801561029257600080fd5b5061019a6102a1366004611882565b60026020526000908152604090205481565b61019a6102c1366004611907565b610981565b3480156102d257600080fd5b5061014f6102e1366004611929565b610aef565b3480156102f257600080fd5b50610264610301366004611929565b610c37565b34801561031257600080fd5b5061014f610321366004611929565b610dc7565b34801561033257600080fd5b5061014f610341366004611851565b611063565b34801561035257600080fd5b50610264610361366004611851565b611152565b34801561037257600080fd5b5061014f610381366004611851565b61123c565b34801561039257600080fd5b5061019a62093a8081565b3480156103a957600080fd5b5061014f6103b83660046118a6565b611323565b3480156103c957600080fd5b5061019a600381565b3480156103de57600080fd5b5061014f6103ed366004611851565b60036020526000908152604090205460ff1681565b34801561040e57600080fd5b5061026461041d3660046118db565b6114a9565b34801561042e57600080fd5b5061014f61043d366004611929565b6115b3565b6001546000906001600160a01b031633146104785760405162461bcd60e51b815260040161046f90611964565b60405180910390fd5b60008281526003602052604090205460ff1680156104a8575060008281526004602052604090206001015460ff16155b6104eb5760405162461bcd60e51b815260206004820152601460248201527313585c9ad95d081a5cc81b9bdd0818db1bdcd95960621b604482015260640161046f565b6040518281527ff2f4775cbe6b777408b6b232bb5d41ceedbb92b9bfb862d237d61590b1602b08906020015b60405180910390a1506001919050565b600080546001600160a01b031633146105525760405162461bcd60e51b815260040161046f9061198f565b600082815260036020526040902054829060ff168015610583575060008181526004602052604090206001015460ff165b61059f5760405162461bcd60e51b815260040161046f906119c6565b60008381526004602090815260408083208784526002810190925290912080546001600160a01b0388811661010090920416146106285760405162461bcd60e51b815260206004820152602160248201527f596f7520617265206e6f74206f776e6572206f6620746869732061756374696f6044820152603760f91b606482015260840161046f565b806002015442101561067c5760405162461bcd60e51b815260206004820152601960248201527f546869732061756374696f6e206973206e6f7420656e64656400000000000000604482015260640161046f565b805461010090046001600160a01b03166106d85760405162461bcd60e51b815260206004820152601f60248201527f546869732061756374696f6e206973206e6f7420696e697469616c697a656400604482015260640161046f565b8054600182015460038301546101009092046001600160a01b039081169291169060006107048261172a565b90506107108183611a0b565b6001600160a01b03851660009081526002602052604081208054909190610738908490611a22565b9091555050306000908152600260205260408120805483929061075c908490611a22565b90915550506001600160a01b03831660009081526002602052604081208054849290610789908490611a0b565b909155505060008a815260028088016020526040822080546001600160a81b03191681556001810180546001600160a01b0319169055908101829055600301557fd2aa34a4fdbbc6dff6a3e56f46e0f3ae2a31d7785ff3487aa5c95c642acea5018a6001600160a01b038516156108005784610802565b855b604080519283526001600160a01b039091166020830152810184905260600160405180910390a16001600160a01b0383161561085157610842838b611748565b60019750505050505050610866565b61085b848b611748565b600097505050505050505b509392505050565b6000546001600160a01b031633146108985760405162461bcd60e51b815260040161046f9061198f565b600081116108e85760405162461bcd60e51b815260206004820152601d60248201527f416d6f756e74206d7573742062652067726561746572207468616e2030000000604482015260640161046f565b6001600160a01b03821660009081526002602052604081208054839290610910908490611a22565b90915550505050565b600180546001600160a01b03199081166001600160a01b03841690811790925560008054339216821790556040805192835260208301919091527f805e5657460d1ff229385ea2f1efed009d11ab180f9e9e05ff9243b83c6058ba910160405180910390a150565b600080546001600160a01b031633146109ac5760405162461bcd60e51b815260040161046f9061198f565b600082815260036020526040902054829060ff1680156109dd575060008181526004602052604090206001015460ff165b6109f95760405162461bcd60e51b815260040161046f906119c6565b60008381526004602090815260408083208784526002810190925290912060038101543414610a765760405162461bcd60e51b8152602060048201526024808201527f596f752063616e27742070757263686173652c206e656564206d6f72652076616044820152636c75657360e01b606482015260840161046f565b805461010090046001600160a01b031660009081526002602052604081208054349290610aa4908490611a22565b909155505050600085815260029182016020526040812080546001600160a81b03191681556001810180546001600160a01b0319169055918201819055600390910155509192915050565b600080546001600160a01b03163314610b1a5760405162461bcd60e51b815260040161046f9061198f565b600083815260036020526040902054839060ff168015610b4b575060008181526004602052604090206001015460ff165b610b675760405162461bcd60e51b815260040161046f906119c6565b60008481526004602090815260408083208884526002810190925290912080546001600160a01b038981166101009092041614610be65760405162461bcd60e51b815260206004820152601c60248201527f5468697320746f6b656e206973206e6f7420796f757220746f6b656e00000000604482015260640161046f565b6003810185905560408051888152602081018790527fb28c033901c5ca2028cd8f649a090009d6fa0fc674e168acd2618a1af900f7b991015b60405180910390a16001935050505b50949350505050565b6000546001600160a01b03163314610c615760405162461bcd60e51b815260040161046f9061198f565b600082815260036020526040902054829060ff168015610c92575060008181526004602052604090206001015460ff165b610cae5760405162461bcd60e51b815260040161046f906119c6565b600083815260046020908152604080832087845260028101909252909120805461010090046001600160a01b031615610d295760405162461bcd60e51b815260206004820152601d60248201527f54686973206974656d20616c726561647920696e697469616c697a6564000000604482015260640161046f565b805460016001600160a81b03199091166101006001600160a01b038a16021781178255810180546001600160a01b0319169055610d6962093a8042611a22565b600282018190556003820185905560408051888152602081018890528082018790526060810192909252517fa832766a05f1bd0298b0268308621777cfe1e4eea23afe7c06beea79bc6ddd2d9181900360800190a150505050505050565b600080546001600160a01b03163314610df25760405162461bcd60e51b815260040161046f9061198f565b600083815260036020526040902054839060ff168015610e23575060008181526004602052604090206001015460ff165b610e3f5760405162461bcd60e51b815260040161046f906119c6565b600084815260046020908152604080832088845260028101909252909120805460ff16610eae5760405162461bcd60e51b815260206004820152601c60248201527f54686973206973206e6f7420666f722061756374696f6e206974656d00000000604482015260640161046f565b80546001600160a01b03898116610100909204161415610f105760405162461bcd60e51b815260206004820152601d60248201527f4f776e65722063616e6e6f742073756767657374206e657720636f7374000000604482015260640161046f565b80600201544210610f635760405162461bcd60e51b815260206004820152601d60248201527f546869732061756374696f6e20697320616c726561647920656e646564000000604482015260640161046f565b84816003015410610f7957600093505050610c2e565b6001600160a01b038816600090815260026020526040902054851115610ff65760405162461bcd60e51b815260206004820152602c60248201527f5573657220646f6573206e6f742068617320656e6f7567682062616c616e636560448201526b20666f722062657474696e6760a01b606482015260840161046f565b6001810180546001600160a01b0319166001600160a01b038a1690811790915560038201869055604080518981526020810189905290810191909152606081018690527f2758327e2540a8640998463ea6c792bf21c6e719e7e39807c27cbe700ca2731590608001610c1f565b6001546000906001600160a01b031633146110905760405162461bcd60e51b815260040161046f90611964565b60008281526003602052604090205460ff1680156110c45750600082815260046020526040902060019081015460ff161515145b6111075760405162461bcd60e51b815260206004820152601460248201527313585c9ad95d081a5cc81b9bdd081bdc195b995960621b604482015260640161046f565b60008281526004602052604090819020600101805460ff19169055517f9dc30b8eda31a6a144e092e5de600955523a6a925cc15cc1d1b9b4872cfa6155906105179084815260200190565b6001546001600160a01b0316331461117c5760405162461bcd60e51b815260040161046f90611964565b60008181526003602052604090205460ff16156111d35760405162461bcd60e51b81526020600482015260156024820152744d61726b657420616c72656164792065786973747360581b604482015260640161046f565b60008181526003602090815260408083208054600160ff19918216811790925560048452938290209081018054909416909355838355518381527f25b2eff8f9cbb97c6c73adf7d94f4f8956260becc65ab075709db7561914a2b1910160405180910390a15050565b6001546000906001600160a01b031633146112695760405162461bcd60e51b815260040161046f90611964565b60008281526003602052604090205460ff166112d35760405162461bcd60e51b815260206004820152602360248201527f4d61726b6574206973206e6f74206578697374732c206372656174652066697260448201526273742160e81b606482015260840161046f565b600082815260046020526040908190206001908101805460ff19169091179055517f877332afc4cf5a3b3ce30a19161c7d2e263703799bec37d80f6bbbf4199e59c7906105179084815260200190565b600080546001600160a01b0316331461134e5760405162461bcd60e51b815260040161046f9061198f565b600082815260036020526040902054829060ff16801561137f575060008181526004602052604090206001015460ff165b61139b5760405162461bcd60e51b815260040161046f906119c6565b60008381526004602090815260408083208784526002810190925290912080546001600160a01b03888116610100909204161461141a5760405162461bcd60e51b815260206004820152601c60248201527f5468697320746f6b656e206973206e6f7420796f757220746f6b656e00000000604482015260640161046f565b600086815260028381016020908152604080842080546001600160a81b03191681556001810180546001600160a01b031916905592830184905560039092019290925580516001600160a01b038a1681529182018890527f39bb3b95fc56345380963759a01377aaa0e0ec26f752d8946687967f25a58558910160405180910390a15060019695505050505050565b6000546001600160a01b031633146114d35760405162461bcd60e51b815260040161046f9061198f565b600081116115235760405162461bcd60e51b815260206004820152601d60248201527f416d6f756e74206d7573742062652067726561746572207468616e2030000000604482015260640161046f565b6001600160a01b03821660009081526002602052604090205481111561158b5760405162461bcd60e51b815260206004820152601f60248201527f4e6f20656e6f7567682062616c616e63657320666f7220776974686472617700604482015260640161046f565b6001600160a01b03821660009081526002602052604081208054839290610910908490611a0b565b600080546001600160a01b031633146115de5760405162461bcd60e51b815260040161046f9061198f565b600083815260036020526040902054839060ff16801561160f575060008181526004602052604090206001015460ff165b61162b5760405162461bcd60e51b815260040161046f906119c6565b600084815260046020908152604080832088845260028101909252909120805461010090046001600160a01b0316156116ab57604080516001600160a01b038a168152602081018990527f3e00d4c7f79c99e1714a15ce5815c7e4a5ffb2cccebf38f376da25d920210195910160405180910390a1600093505050610c2e565b80546001600160a81b0319166101006001600160a01b038a169081029190911782556001820180546001600160a01b03191690556000600283015560038201869055604080519182526020820189905281018690527f876aa8a72ace7ae39101d4957250d89245f71b814b52354a12e1a116ac1eb27c90606001610c1f565b600061173860646003611a3a565b6117429083611a5c565b92915050565b600080546040516331a9108f60e11b8152600481018490526001600160a01b0390911690636352211e9060240160206040518083038186803b15801561178d57600080fd5b505afa1580156117a1573d6000803e3d6000fd5b505050506040513d601f19601f820116820180604052508101906117c59190611a7b565b9050826001600160a01b0316816001600160a01b031614156117e657505050565b60005460405163d8ef538560e01b81526001600160a01b038581166004830152602482018590529091169063d8ef538590604401600060405180830381600087803b15801561183457600080fd5b505af1158015611848573d6000803e3d6000fd5b50505050505050565b60006020828403121561186357600080fd5b5035919050565b6001600160a01b038116811461187f57600080fd5b50565b60006020828403121561189457600080fd5b813561189f8161186a565b9392505050565b6000806000606084860312156118bb57600080fd5b83356118c68161186a565b95602085013595506040909401359392505050565b600080604083850312156118ee57600080fd5b82356118f98161186a565b946020939093013593505050565b6000806040838503121561191a57600080fd5b50508035926020909101359150565b6000806000806080858703121561193f57600080fd5b843561194a8161186a565b966020860135965060408601359560600135945092505050565b6020808252601190820152702cb7ba9030b932903737ba1037bbb732b960791b604082015260600190565b60208082526019908201527f4f6e6c7920616c6c6f77656420666f72204e465420436f726500000000000000604082015260600190565b6020808252601590820152744d61726b6574206973206e6f74206f70656e65642160581b604082015260600190565b634e487b7160e01b600052601160045260246000fd5b600082821015611a1d57611a1d6119f5565b500390565b60008219821115611a3557611a356119f5565b500190565b600082611a5757634e487b7160e01b600052601260045260246000fd5b500490565b6000816000190483118215151615611a7657611a766119f5565b500290565b600060208284031215611a8d57600080fd5b815161189f8161186a56fea264697066735822122094bc02cc9bf47cb31d7725a6446b9510150093d6d4fcd00d0393315030e6329964736f6c63430008090033",
  "linkReferences": {},
  "deployedLinkReferences": {}
}