{
  "_format": "hh-sol-artifact-1",
  "contractName": "NFTImplementation",
  "sourceName": "contracts/NFTImplementation.sol",
  "abi": [
    {
      "inputs": [
        {
          "internalType": "address",
          "name": "minter",
          "type": "address"
        }
      ],
      "stateMutability": "nonpayable",
      "type": "constructor"
    },
    {
      "anonymous": false,
      "inputs": [
        {
          "indexed": false,
          "internalType": "address",
          "name": "user",
          "type": "address"
        }
      ],
      "name": "AddMinter",
      "type": "event"
    },
    {
      "anonymous": false,
      "inputs": [
        {
          "indexed": true,
          "internalType": "address",
          "name": "owner",
          "type": "address"
        },
        {
          "indexed": true,
          "internalType": "address",
          "name": "approved",
          "type": "address"
        },
        {
          "indexed": true,
          "internalType": "uint256",
          "name": "tokenId",
          "type": "uint256"
        }
      ],
      "name": "Approval",
      "type": "event"
    },
    {
      "anonymous": false,
      "inputs": [
        {
          "indexed": true,
          "internalType": "address",
          "name": "owner",
          "type": "address"
        },
        {
          "indexed": true,
          "internalType": "address",
          "name": "operator",
          "type": "address"
        },
        {
          "indexed": false,
          "internalType": "bool",
          "name": "approved",
          "type": "bool"
        }
      ],
      "name": "ApprovalForAll",
      "type": "event"
    },
    {
      "anonymous": false,
      "inputs": [
        {
          "indexed": false,
          "internalType": "address",
          "name": "user",
          "type": "address"
        },
        {
          "indexed": false,
          "internalType": "uint256",
          "name": "tokenId",
          "type": "uint256"
        }
      ],
      "name": "Burn",
      "type": "event"
    },
    {
      "anonymous": false,
      "inputs": [
        {
          "indexed": false,
          "internalType": "address",
          "name": "owner",
          "type": "address"
        },
        {
          "indexed": false,
          "internalType": "uint256",
          "name": "tokenID",
          "type": "uint256"
        },
        {
          "indexed": false,
          "internalType": "uint256",
          "name": "timestamp",
          "type": "uint256"
        }
      ],
      "name": "Burned",
      "type": "event"
    },
    {
      "anonymous": false,
      "inputs": [
        {
          "indexed": false,
          "internalType": "address",
          "name": "user",
          "type": "address"
        }
      ],
      "name": "ChangeOwner",
      "type": "event"
    },
    {
      "anonymous": false,
      "inputs": [
        {
          "indexed": false,
          "internalType": "address",
          "name": "pendingQueue",
          "type": "address"
        },
        {
          "indexed": false,
          "internalType": "address",
          "name": "marketPlace",
          "type": "address"
        },
        {
          "indexed": false,
          "internalType": "address",
          "name": "governance",
          "type": "address"
        }
      ],
      "name": "CoreInitialize",
      "type": "event"
    },
    {
      "anonymous": false,
      "inputs": [
        {
          "indexed": false,
          "internalType": "address",
          "name": "minter",
          "type": "address"
        },
        {
          "indexed": false,
          "internalType": "address",
          "name": "burner",
          "type": "address"
        }
      ],
      "name": "InitializePermission",
      "type": "event"
    },
    {
      "anonymous": false,
      "inputs": [
        {
          "indexed": false,
          "internalType": "address",
          "name": "user",
          "type": "address"
        },
        {
          "indexed": false,
          "internalType": "uint256",
          "name": "tokenId",
          "type": "uint256"
        }
      ],
      "name": "Mint",
      "type": "event"
    },
    {
      "anonymous": false,
      "inputs": [
        {
          "indexed": false,
          "internalType": "address",
          "name": "user",
          "type": "address"
        }
      ],
      "name": "RemoveMinter",
      "type": "event"
    },
    {
      "anonymous": false,
      "inputs": [
        {
          "indexed": false,
          "internalType": "address",
          "name": "user",
          "type": "address"
        },
        {
          "indexed": false,
          "internalType": "uint256",
          "name": "tokenId",
          "type": "uint256"
        }
      ],
      "name": "RequestPending",
      "type": "event"
    },
    {
      "anonymous": false,
      "inputs": [
        {
          "indexed": true,
          "internalType": "bytes32",
          "name": "role",
          "type": "bytes32"
        },
        {
          "indexed": true,
          "internalType": "bytes32",
          "name": "previousAdminRole",
          "type": "bytes32"
        },
        {
          "indexed": true,
          "internalType": "bytes32",
          "name": "newAdminRole",
          "type": "bytes32"
        }
      ],
      "name": "RoleAdminChanged",
      "type": "event"
    },
    {
      "anonymous": false,
      "inputs": [
        {
          "indexed": true,
          "internalType": "bytes32",
          "name": "role",
          "type": "bytes32"
        },
        {
          "indexed": true,
          "internalType": "address",
          "name": "account",
          "type": "address"
        },
        {
          "indexed": true,
          "internalType": "address",
          "name": "sender",
          "type": "address"
        }
      ],
      "name": "RoleGranted",
      "type": "event"
    },
    {
      "anonymous": false,
      "inputs": [
        {
          "indexed": true,
          "internalType": "bytes32",
          "name": "role",
          "type": "bytes32"
        },
        {
          "indexed": true,
          "internalType": "address",
          "name": "account",
          "type": "address"
        },
        {
          "indexed": true,
          "internalType": "address",
          "name": "sender",
          "type": "address"
        }
      ],
      "name": "RoleRevoked",
      "type": "event"
    },
    {
      "anonymous": false,
      "inputs": [
        {
          "indexed": true,
          "internalType": "address",
          "name": "from",
          "type": "address"
        },
        {
          "indexed": true,
          "internalType": "address",
          "name": "to",
          "type": "address"
        },
        {
          "indexed": true,
          "internalType": "uint256",
          "name": "tokenId",
          "type": "uint256"
        }
      ],
      "name": "Transfer",
      "type": "event"
    },
    {
      "inputs": [],
      "name": "ALLOW_ROLE",
      "outputs": [
        {
          "internalType": "bytes32",
          "name": "",
          "type": "bytes32"
        }
      ],
      "stateMutability": "view",
      "type": "function"
    },
    {
      "inputs": [],
      "name": "BURNER_ROLE",
      "outputs": [
        {
          "internalType": "bytes32",
          "name": "",
          "type": "bytes32"
        }
      ],
      "stateMutability": "view",
      "type": "function"
    },
    {
      "inputs": [],
      "name": "BURNING_PERIOD",
      "outputs": [
        {
          "internalType": "uint256",
          "name": "",
          "type": "uint256"
        }
      ],
      "stateMutability": "view",
      "type": "function"
    },
    {
      "inputs": [],
      "name": "DEFAULT_ADMIN_ROLE",
      "outputs": [
        {
          "internalType": "bytes32",
          "name": "",
          "type": "bytes32"
        }
      ],
      "stateMutability": "view",
      "type": "function"
    },
    {
      "inputs": [],
      "name": "MAXIMUM_TOKEN_ID",
      "outputs": [
        {
          "internalType": "uint256",
          "name": "",
          "type": "uint256"
        }
      ],
      "stateMutability": "view",
      "type": "function"
    },
    {
      "inputs": [],
      "name": "MINTER_ROLE",
      "outputs": [
        {
          "internalType": "bytes32",
          "name": "",
          "type": "bytes32"
        }
      ],
      "stateMutability": "view",
      "type": "function"
    },
    {
      "inputs": [],
      "name": "acceptRequest",
      "outputs": [
        {
          "internalType": "uint256",
          "name": "",
          "type": "uint256"
        }
      ],
      "stateMutability": "nonpayable",
      "type": "function"
    },
    {
      "inputs": [
        {
          "internalType": "address",
          "name": "contr",
          "type": "address"
        }
      ],
      "name": "addAllowedContract",
      "outputs": [],
      "stateMutability": "nonpayable",
      "type": "function"
    },
    {
      "inputs": [
        {
          "internalType": "address",
          "name": "minter",
          "type": "address"
        }
      ],
      "name": "addMinter",
      "outputs": [],
      "stateMutability": "nonpayable",
      "type": "function"
    },
    {
      "inputs": [
        {
          "internalType": "uint256",
          "name": "marketID",
          "type": "uint256"
        },
        {
          "internalType": "uint256",
          "name": "tokenID",
          "type": "uint256"
        },
        {
          "internalType": "uint256",
          "name": "cost",
          "type": "uint256"
        }
      ],
      "name": "applyItem",
      "outputs": [
        {
          "internalType": "bool",
          "name": "",
          "type": "bool"
        }
      ],
      "stateMutability": "nonpayable",
      "type": "function"
    },
    {
      "inputs": [
        {
          "internalType": "address",
          "name": "to",
          "type": "address"
        },
        {
          "internalType": "uint256",
          "name": "tokenId",
          "type": "uint256"
        }
      ],
      "name": "approve",
      "outputs": [],
      "stateMutability": "nonpayable",
      "type": "function"
    },
    {
      "inputs": [
        {
          "internalType": "address",
          "name": "owner",
          "type": "address"
        }
      ],
      "name": "balanceOf",
      "outputs": [
        {
          "internalType": "uint256",
          "name": "",
          "type": "uint256"
        }
      ],
      "stateMutability": "view",
      "type": "function"
    },
    {
      "inputs": [
        {
          "internalType": "uint256",
          "name": "tokenId",
          "type": "uint256"
        }
      ],
      "name": "burningByAdmin",
      "outputs": [
        {
          "internalType": "bool",
          "name": "",
          "type": "bool"
        }
      ],
      "stateMutability": "nonpayable",
      "type": "function"
    },
    {
      "inputs": [
        {
          "internalType": "uint256",
          "name": "",
          "type": "uint256"
        }
      ],
      "name": "burningPeriod",
      "outputs": [
        {
          "internalType": "uint256",
          "name": "",
          "type": "uint256"
        }
      ],
      "stateMutability": "view",
      "type": "function"
    },
    {
      "inputs": [
        {
          "internalType": "uint256",
          "name": "marketID",
          "type": "uint256"
        },
        {
          "internalType": "uint256",
          "name": "tokenID",
          "type": "uint256"
        },
        {
          "internalType": "uint256",
          "name": "newCost",
          "type": "uint256"
        }
      ],
      "name": "changeItemCost",
      "outputs": [
        {
          "internalType": "bool",
          "name": "",
          "type": "bool"
        }
      ],
      "stateMutability": "nonpayable",
      "type": "function"
    },
    {
      "inputs": [
        {
          "internalType": "address",
          "name": "user",
          "type": "address"
        }
      ],
      "name": "changeOwner",
      "outputs": [],
      "stateMutability": "nonpayable",
      "type": "function"
    },
    {
      "inputs": [],
      "name": "currentTokenID",
      "outputs": [
        {
          "internalType": "uint256",
          "name": "_value",
          "type": "uint256"
        }
      ],
      "stateMutability": "view",
      "type": "function"
    },
    {
      "inputs": [
        {
          "internalType": "uint256",
          "name": "marketID",
          "type": "uint256"
        },
        {
          "internalType": "uint256",
          "name": "tokenID",
          "type": "uint256"
        }
      ],
      "name": "deleteItem",
      "outputs": [
        {
          "internalType": "bool",
          "name": "",
          "type": "bool"
        }
      ],
      "stateMutability": "nonpayable",
      "type": "function"
    },
    {
      "inputs": [],
      "name": "depositPool",
      "outputs": [
        {
          "internalType": "contract IDepositPool",
          "name": "",
          "type": "address"
        }
      ],
      "stateMutability": "view",
      "type": "function"
    },
    {
      "inputs": [
        {
          "internalType": "uint256",
          "name": "amount",
          "type": "uint256"
        }
      ],
      "name": "depositToMarket",
      "outputs": [],
      "stateMutability": "nonpayable",
      "type": "function"
    },
    {
      "inputs": [
        {
          "internalType": "uint256",
          "name": "marketID",
          "type": "uint256"
        },
        {
          "internalType": "uint256",
          "name": "tokenID",
          "type": "uint256"
        }
      ],
      "name": "endAuction",
      "outputs": [],
      "stateMutability": "nonpayable",
      "type": "function"
    },
    {
      "inputs": [
        {
          "internalType": "uint256",
          "name": "tokenId",
          "type": "uint256"
        }
      ],
      "name": "getApproved",
      "outputs": [
        {
          "internalType": "address",
          "name": "",
          "type": "address"
        }
      ],
      "stateMutability": "view",
      "type": "function"
    },
    {
      "inputs": [],
      "name": "getOwner",
      "outputs": [
        {
          "internalType": "address",
          "name": "",
          "type": "address"
        }
      ],
      "stateMutability": "view",
      "type": "function"
    },
    {
      "inputs": [
        {
          "internalType": "bytes32",
          "name": "role",
          "type": "bytes32"
        }
      ],
      "name": "getRoleAdmin",
      "outputs": [
        {
          "internalType": "bytes32",
          "name": "",
          "type": "bytes32"
        }
      ],
      "stateMutability": "view",
      "type": "function"
    },
    {
      "inputs": [],
      "name": "governance",
      "outputs": [
        {
          "internalType": "contract Governance",
          "name": "",
          "type": "address"
        }
      ],
      "stateMutability": "view",
      "type": "function"
    },
    {
      "inputs": [
        {
          "internalType": "bytes32",
          "name": "role",
          "type": "bytes32"
        },
        {
          "internalType": "address",
          "name": "account",
          "type": "address"
        }
      ],
      "name": "grantRole",
      "outputs": [],
      "stateMutability": "nonpayable",
      "type": "function"
    },
    {
      "inputs": [
        {
          "internalType": "bytes32",
          "name": "role",
          "type": "bytes32"
        },
        {
          "internalType": "address",
          "name": "account",
          "type": "address"
        }
      ],
      "name": "hasRole",
      "outputs": [
        {
          "internalType": "bool",
          "name": "",
          "type": "bool"
        }
      ],
      "stateMutability": "view",
      "type": "function"
    },
    {
      "inputs": [
        {
          "internalType": "address",
          "name": "minter",
          "type": "address"
        },
        {
          "internalType": "address",
          "name": "burner",
          "type": "address"
        }
      ],
      "name": "initializePermission",
      "outputs": [],
      "stateMutability": "nonpayable",
      "type": "function"
    },
    {
      "inputs": [
        {
          "internalType": "address",
          "name": "owner",
          "type": "address"
        },
        {
          "internalType": "address",
          "name": "operator",
          "type": "address"
        }
      ],
      "name": "isApprovedForAll",
      "outputs": [
        {
          "internalType": "bool",
          "name": "",
          "type": "bool"
        }
      ],
      "stateMutability": "view",
      "type": "function"
    },
    {
      "inputs": [
        {
          "internalType": "address",
          "name": "user",
          "type": "address"
        },
        {
          "internalType": "uint256",
          "name": "tokenID",
          "type": "uint256"
        }
      ],
      "name": "isExists",
      "outputs": [
        {
          "internalType": "bool",
          "name": "",
          "type": "bool"
        }
      ],
      "stateMutability": "view",
      "type": "function"
    },
    {
      "inputs": [],
      "name": "marketPlace",
      "outputs": [
        {
          "internalType": "contract MarketPlace",
          "name": "",
          "type": "address"
        }
      ],
      "stateMutability": "view",
      "type": "function"
    },
    {
      "inputs": [
        {
          "internalType": "address",
          "name": "",
          "type": "address"
        }
      ],
      "name": "metadata",
      "outputs": [
        {
          "internalType": "address",
          "name": "owner",
          "type": "address"
        }
      ],
      "stateMutability": "view",
      "type": "function"
    },
    {
      "inputs": [
        {
          "components": [
            {
              "internalType": "uint256",
              "name": "unique_id",
              "type": "uint256"
            }
          ],
          "internalType": "struct DataTypes.MetaData",
          "name": "data",
          "type": "tuple"
        }
      ],
      "name": "mint",
      "outputs": [
        {
          "internalType": "bool",
          "name": "",
          "type": "bool"
        }
      ],
      "stateMutability": "payable",
      "type": "function"
    },
    {
      "inputs": [],
      "name": "name",
      "outputs": [
        {
          "internalType": "string",
          "name": "",
          "type": "string"
        }
      ],
      "stateMutability": "view",
      "type": "function"
    },
    {
      "inputs": [
        {
          "internalType": "uint256",
          "name": "tokenId",
          "type": "uint256"
        }
      ],
      "name": "ownerOf",
      "outputs": [
        {
          "internalType": "address",
          "name": "",
          "type": "address"
        }
      ],
      "stateMutability": "view",
      "type": "function"
    },
    {
      "inputs": [],
      "name": "pdQueueCon",
      "outputs": [
        {
          "internalType": "contract PendingQueue",
          "name": "",
          "type": "address"
        }
      ],
      "stateMutability": "view",
      "type": "function"
    },
    {
      "inputs": [
        {
          "internalType": "uint256",
          "name": "marketID",
          "type": "uint256"
        },
        {
          "internalType": "uint256",
          "name": "tokenID",
          "type": "uint256"
        }
      ],
      "name": "purchaseItem",
      "outputs": [
        {
          "internalType": "bool",
          "name": "",
          "type": "bool"
        }
      ],
      "stateMutability": "payable",
      "type": "function"
    },
    {
      "inputs": [
        {
          "internalType": "address",
          "name": "minter",
          "type": "address"
        }
      ],
      "name": "removeMinter",
      "outputs": [],
      "stateMutability": "nonpayable",
      "type": "function"
    },
    {
      "inputs": [
        {
          "internalType": "bytes32",
          "name": "role",
          "type": "bytes32"
        },
        {
          "internalType": "address",
          "name": "account",
          "type": "address"
        }
      ],
      "name": "renounceRole",
      "outputs": [],
      "stateMutability": "nonpayable",
      "type": "function"
    },
    {
      "inputs": [
        {
          "internalType": "uint256",
          "name": "token_id",
          "type": "uint256"
        }
      ],
      "name": "requestBurning",
      "outputs": [
        {
          "internalType": "bool",
          "name": "",
          "type": "bool"
        }
      ],
      "stateMutability": "nonpayable",
      "type": "function"
    },
    {
      "inputs": [
        {
          "internalType": "address",
          "name": "user",
          "type": "address"
        },
        {
          "internalType": "uint256",
          "name": "tokenId",
          "type": "uint256"
        }
      ],
      "name": "restoreMetadata",
      "outputs": [
        {
          "internalType": "bool",
          "name": "",
          "type": "bool"
        }
      ],
      "stateMutability": "nonpayable",
      "type": "function"
    },
    {
      "inputs": [
        {
          "internalType": "bytes32",
          "name": "role",
          "type": "bytes32"
        },
        {
          "internalType": "address",
          "name": "account",
          "type": "address"
        }
      ],
      "name": "revokeRole",
      "outputs": [],
      "stateMutability": "nonpayable",
      "type": "function"
    },
    {
      "inputs": [
        {
          "internalType": "address",
          "name": "from",
          "type": "address"
        },
        {
          "internalType": "address",
          "name": "to",
          "type": "address"
        },
        {
          "internalType": "uint256",
          "name": "tokenId",
          "type": "uint256"
        }
      ],
      "name": "safeTransferFrom",
      "outputs": [],
      "stateMutability": "nonpayable",
      "type": "function"
    },
    {
      "inputs": [
        {
          "internalType": "address",
          "name": "from",
          "type": "address"
        },
        {
          "internalType": "address",
          "name": "to",
          "type": "address"
        },
        {
          "internalType": "uint256",
          "name": "tokenId",
          "type": "uint256"
        },
        {
          "internalType": "bytes",
          "name": "data",
          "type": "bytes"
        }
      ],
      "name": "safeTransferFrom",
      "outputs": [],
      "stateMutability": "nonpayable",
      "type": "function"
    },
    {
      "inputs": [
        {
          "internalType": "address",
          "name": "operator",
          "type": "address"
        },
        {
          "internalType": "bool",
          "name": "approved",
          "type": "bool"
        }
      ],
      "name": "setApprovalForAll",
      "outputs": [],
      "stateMutability": "nonpayable",
      "type": "function"
    },
    {
      "inputs": [
        {
          "internalType": "address",
          "name": "depositPoolAddress",
          "type": "address"
        }
      ],
      "name": "setDepositPool",
      "outputs": [],
      "stateMutability": "nonpayable",
      "type": "function"
    },
    {
      "inputs": [
        {
          "internalType": "uint256",
          "name": "marketID",
          "type": "uint256"
        },
        {
          "internalType": "uint256",
          "name": "tokenID",
          "type": "uint256"
        },
        {
          "internalType": "uint256",
          "name": "startCost",
          "type": "uint256"
        }
      ],
      "name": "startAuction",
      "outputs": [],
      "stateMutability": "nonpayable",
      "type": "function"
    },
    {
      "inputs": [
        {
          "internalType": "uint256",
          "name": "marketID",
          "type": "uint256"
        },
        {
          "internalType": "uint256",
          "name": "tokenID",
          "type": "uint256"
        },
        {
          "internalType": "uint256",
          "name": "suggestCost",
          "type": "uint256"
        }
      ],
      "name": "suggestToAuction",
      "outputs": [
        {
          "internalType": "bool",
          "name": "",
          "type": "bool"
        }
      ],
      "stateMutability": "nonpayable",
      "type": "function"
    },
    {
      "inputs": [
        {
          "internalType": "bytes4",
          "name": "interfaceId",
          "type": "bytes4"
        }
      ],
      "name": "supportsInterface",
      "outputs": [
        {
          "internalType": "bool",
          "name": "",
          "type": "bool"
        }
      ],
      "stateMutability": "view",
      "type": "function"
    },
    {
      "inputs": [],
      "name": "symbol",
      "outputs": [
        {
          "internalType": "string",
          "name": "",
          "type": "string"
        }
      ],
      "stateMutability": "view",
      "type": "function"
    },
    {
      "inputs": [],
      "name": "terminate",
      "outputs": [],
      "stateMutability": "payable",
      "type": "function"
    },
    {
      "inputs": [
        {
          "internalType": "uint256",
          "name": "tokenId",
          "type": "uint256"
        }
      ],
      "name": "tokenURI",
      "outputs": [
        {
          "internalType": "string",
          "name": "",
          "type": "string"
        }
      ],
      "stateMutability": "view",
      "type": "function"
    },
    {
      "inputs": [
        {
          "internalType": "address",
          "name": "user",
          "type": "address"
        },
        {
          "internalType": "uint256",
          "name": "tokenID",
          "type": "uint256"
        }
      ],
      "name": "transferForMarket",
      "outputs": [],
      "stateMutability": "nonpayable",
      "type": "function"
    },
    {
      "inputs": [
        {
          "internalType": "address",
          "name": "from",
          "type": "address"
        },
        {
          "internalType": "address",
          "name": "to",
          "type": "address"
        },
        {
          "internalType": "uint256",
          "name": "tokenId",
          "type": "uint256"
        }
      ],
      "name": "transferFrom",
      "outputs": [],
      "stateMutability": "nonpayable",
      "type": "function"
    },
    {
      "inputs": [
        {
          "internalType": "address",
          "name": "user",
          "type": "address"
        },
        {
          "internalType": "uint256",
          "name": "token_id",
          "type": "uint256"
        }
      ],
      "name": "transferOwnership",
      "outputs": [
        {
          "internalType": "bool",
          "name": "",
          "type": "bool"
        }
      ],
      "stateMutability": "nonpayable",
      "type": "function"
    },
    {
      "inputs": [
        {
          "internalType": "uint256",
          "name": "amount",
          "type": "uint256"
        }
      ],
      "name": "withdrawFromMarket",
      "outputs": [],
      "stateMutability": "nonpayable",
      "type": "function"
    }
  ],
  "bytecode": "0x60806040523480156200001157600080fd5b5060405162008b0e38038062008b0e833981016040819052620000349162000999565b604080518082018252600681526513dd5c93919560d21b60208083019182528351808501909452600484526313d3919560e21b9084015281519192916200007e91600291620008c9565b50805162000094906003906020840190620008c9565b5050600880546001600160a01b03191633908117909155604051839250620000bc9062000958565b604051809103906000f080158015620000d9573d6000803e3d6000fd5b50600c80546001600160a01b0319166001600160a01b0392909216919091179055604051620001089062000966565b604051809103906000f08015801562000125573d6000803e3d6000fd5b50600d60006101000a8154816001600160a01b0302191690836001600160a01b0316021790555033306040516200015c9062000974565b6001600160a01b03928316815291166020820152604001604051809103906000f08015801562000190573d6000803e3d6000fd5b50600e80546001600160a01b0319166001600160a01b0392909216919091179055620001bd828262000289565b600d54604051630915a2d160e31b81523360048201526001600160a01b03909116906348ad168890602401600060405180830381600087803b1580156200020357600080fd5b505af115801562000218573d6000803e3d6000fd5b505050506200022c6200034760201b60201c565b600c54600d54600e54604080516001600160a01b039485168152928416602084015292168183015290517f8ddf8c237baa84c441ac75c5a736939823daf979eca058e4d519cbf173b58d1e9181900360600190a150505062000b9f565b62000296600033620003f6565b620002c27ff0887ba65ee2024ea881d91b74c2450ef19e1557f03bed3ea9f16b037cbe2dc983620003f6565b620002ee7f9667e80708b6eeeb0053fa0cca44e028ff548e2a9f029edfeac87c118b08b7c882620003f6565b600180546001600160a01b03191633179055604080516001600160a01b038481168252831660208201527f0592891029eec9a40bd8c563a4be4b0066d222037d3fa6ad82aa424f0e6023e1910160405180910390a15050565b33600081815260008051602062008aee833981519152602052604090205460ff16620003ae5760405162461bcd60e51b81526020600482015260116024820152702ca7aa9020a922902727aa1020a226a4a760791b60448201526064015b60405180910390fd5b600c54620003c5906001600160a01b031662000406565b600d54620003dc906001600160a01b031662000406565b600e54620003f3906001600160a01b031662000406565b50565b62000402828262000587565b5050565b33600081815260008051602062008aee833981519152602052604090205460ff16620004695760405162461bcd60e51b81526020600482015260116024820152702ca7aa9020a922902727aa1020a226a4a760791b6044820152606401620003a5565b604051631627905560e01b81526001600160a01b038316600482015273__$4257bb7bc16854cc4c83a0a74a7503d5fb$__9063162790559060240160206040518083038186803b158015620004bd57600080fd5b505af4158015620004d2573d6000803e3d6000fd5b505050506040513d601f19601f82011682018060405250810190620004f89190620009c4565b6200055b5760405162461bcd60e51b815260206004820152602c60248201527f506172616d65746572206d75737420626520436f6e747261637420616464726560448201526b39b996103737ba103ab9b2b960a11b6064820152608401620003a5565b620004027fe0d26dd3554a167bd2b70cb1d833d6b1199f8bd315f72e7901acc10196002e108362000627565b6000828152602081815260408083206001600160a01b038516845290915290205460ff1662000402576000828152602081815260408083206001600160a01b03851684529091529020805460ff19166001179055620005e33390565b6001600160a01b0316816001600160a01b0316837f2f8788117e7eff1d82e926ec794901d17c78024a50270940304540a733656f0d60405160405180910390a45050565b600082815260208190526040902060010154620006448162000655565b62000650838362000587565b505050565b620003f381336000828152602081815260408083206001600160a01b038516845290915290205460ff1662000402576200069a81620006eb60201b620023091760201c565b620006b08360206200231b62000709821b17811c565b604051602001620006c392919062000a1b565b60408051601f198184030181529082905262461bcd60e51b8252620003a59160040162000a94565b6060620007036001600160a01b038316601462000709565b92915050565b606060006200071a83600262000adf565b6200072790600262000b01565b6001600160401b0381111562000741576200074162000b1c565b6040519080825280601f01601f1916602001820160405280156200076c576020820181803683370190505b509050600360fc1b816000815181106200078a576200078a62000b32565b60200101906001600160f81b031916908160001a905350600f60fb1b81600181518110620007bc57620007bc62000b32565b60200101906001600160f81b031916908160001a9053506000620007e284600262000adf565b620007ef90600162000b01565b90505b600181111562000871576f181899199a1a9b1b9c1cb0b131b232b360811b85600f166010811062000827576200082762000b32565b1a60f81b82828151811062000840576200084062000b32565b60200101906001600160f81b031916908160001a90535060049490941c93620008698162000b48565b9050620007f2565b508315620008c25760405162461bcd60e51b815260206004820181905260248201527f537472696e67733a20686578206c656e67746820696e73756666696369656e746044820152606401620003a5565b9392505050565b828054620008d79062000b62565b90600052602060002090601f016020900481019282620008fb576000855562000946565b82601f106200091657805160ff191683800117855562000946565b8280016001018555821562000946579182015b828111156200094657825182559160200191906001019062000929565b506200095492915062000982565b5090565b610b9a80620044c383390190565b611ab3806200505d83390190565b611fde8062006b1083390190565b5b8082111562000954576000815560010162000983565b600060208284031215620009ac57600080fd5b81516001600160a01b0381168114620008c257600080fd5b600060208284031215620009d757600080fd5b81518015158114620008c257600080fd5b60005b8381101562000a05578181015183820152602001620009eb565b8381111562000a15576000848401525b50505050565b7f416363657373436f6e74726f6c3a206163636f756e742000000000000000000081526000835162000a55816017850160208801620009e8565b7001034b99036b4b9b9b4b733903937b6329607d1b601791840191820152835162000a88816028840160208801620009e8565b01602801949350505050565b602081526000825180602084015262000ab5816040850160208701620009e8565b601f01601f19169190910160400192915050565b634e487b7160e01b600052601160045260246000fd5b600081600019048311821515161562000afc5762000afc62000ac9565b500290565b6000821982111562000b175762000b1762000ac9565b500190565b634e487b7160e01b600052604160045260246000fd5b634e487b7160e01b600052603260045260246000fd5b60008162000b5a5762000b5a62000ac9565b506000190190565b600181811c9082168062000b7757607f821691505b6020821081141562000b9957634e487b7160e01b600052602260045260246000fd5b50919050565b6139148062000baf6000396000f3fe60806040526004361061036a5760003560e01c8063893d20e8116101c6578063c569fb36116100f7578063d8ef538511610095578063e985e9c51161006f578063e985e9c514610a52578063ecd6aac614610a9b578063f6c982f914610ab0578063fc024f3714610add57600080fd5b8063d8ef5385146109eb578063df1d0acb14610a0b578063e067569814610a3f57600080fd5b8063d5171bff116100d1578063d5171bff14610976578063d539139314610989578063d547741f146109ab578063d7c4671c146109cb57600080fd5b8063c569fb3614610916578063c87b56dd14610936578063ce26695b1461095657600080fd5b8063a217fddf11610164578063a6f9dae11161013e578063a6f9dae11461086f578063b88d4fde1461088f578063badf08eb146108af578063bb62115e146108ff57600080fd5b8063a217fddf1461081a578063a22cb4651461082f578063a3e5d3311461084f57600080fd5b806395d89b41116101a057806395d89b41146107ae578063983b2d56146107c35780639b9aeb49146107e3578063a0cf2f39146107fa57600080fd5b8063893d20e81461075057806391d148541461076e57806391e078bb1461078e57600080fd5b80632e25d2a6116102a05780634b4e4c3a1161023e5780636352211e116102185780636352211e146106d057806367d2b78f146106f057806370a082311461071057806384ab6e621461073057600080fd5b80634b4e4c3a146106705780635aa6e67514610690578063618a7e1d146106b057600080fd5b806336568abe1161027a57806336568abe146105f057806342842e0e1461061057806344bd1f651461063057806347afe4371461065057600080fd5b80632e25d2a6146105905780632f2ff15d146105b05780633092afd5146105d057600080fd5b806323b872dd1161030d578063282c51f3116102e7578063282c51f3146104e65780632a3437091461051a5780632ba215721461053a5780632c56462f1461057057600080fd5b806323b872dd14610468578063248a9ca314610488578063256be439146104c657600080fd5b8063081812fc11610349578063081812fc146103e6578063095ea7b31461041e5780630a276680146104405780630c08bf881461046057600080fd5b80627ed3861461036f57806301ffc9a7146103a457806306fdde03146103c4575b600080fd5b34801561037b57600080fd5b5061038f61038a36600461313b565b610af3565b60405190151581526020015b60405180910390f35b3480156103b057600080fd5b5061038f6103bf36600461317d565b610b84565b3480156103d057600080fd5b506103d9610b95565b60405161039b91906131f2565b3480156103f257600080fd5b50610406610401366004613205565b610c27565b6040516001600160a01b03909116815260200161039b565b34801561042a57600080fd5b5061043e610439366004613233565b610c4e565b005b34801561044c57600080fd5b5061038f61045b366004613233565b610d69565b61043e610e7b565b34801561047457600080fd5b5061043e61048336600461325f565b610e89565b34801561049457600080fd5b506104b86104a3366004613205565b60009081526020819052604090206001015490565b60405190815260200161039b565b3480156104d257600080fd5b5061043e6104e1366004613205565b610eba565b3480156104f257600080fd5b506104b87f9667e80708b6eeeb0053fa0cca44e028ff548e2a9f029edfeac87c118b08b7c881565b34801561052657600080fd5b50600f54610406906001600160a01b031681565b34801561054657600080fd5b506104066105553660046132a0565b600b602052600090815260409020546001600160a01b031681565b34801561057c57600080fd5b5061043e61058b3660046132a0565b610f22565b34801561059c57600080fd5b50600d54610406906001600160a01b031681565b3480156105bc57600080fd5b5061043e6105cb3660046132bd565b611064565b3480156105dc57600080fd5b5061043e6105eb3660046132a0565b611089565b3480156105fc57600080fd5b5061043e61060b3660046132bd565b61110a565b34801561061c57600080fd5b5061043e61062b36600461325f565b611184565b34801561063c57600080fd5b5061038f61064b366004613205565b61119f565b34801561065c57600080fd5b5061043e61066b3660046132ed565b611238565b34801561067c57600080fd5b5061043e61068b36600461330f565b6112be565b34801561069c57600080fd5b50600e54610406906001600160a01b031681565b3480156106bc57600080fd5b5061038f6106cb3660046132ed565b61135d565b3480156106dc57600080fd5b506104066106eb366004613205565b6113eb565b3480156106fc57600080fd5b5061038f61070b366004613233565b61144b565b34801561071c57600080fd5b506104b861072b3660046132a0565b6115c4565b34801561073c57600080fd5b5061043e61074b366004613205565b61164a565b34801561075c57600080fd5b506001546001600160a01b0316610406565b34801561077a57600080fd5b5061038f6107893660046132bd565b611681565b34801561079a57600080fd5b5061043e6107a936600461313b565b6116aa565b3480156107ba57600080fd5b506103d9611717565b3480156107cf57600080fd5b5061043e6107de3660046132a0565b611726565b3480156107ef57600080fd5b506104b86203f48081565b34801561080657600080fd5b5061038f61081536600461313b565b61179f565b34801561082657600080fd5b506104b8600081565b34801561083b57600080fd5b5061043e61084a36600461334b565b6117d6565b34801561085b57600080fd5b5061038f61086a36600461313b565b6117e1565b34801561087b57600080fd5b5061043e61088a3660046132a0565b61181b565b34801561089b57600080fd5b5061043e6108aa3660046133c0565b6118a7565b3480156108bb57600080fd5b5061038f6108ca366004613233565b6001600160a01b0382166000908152600b6020908152604080832084845260020190915290205460ff16151560011492915050565b34801561090b57600080fd5b506009546104b89081565b34801561092257600080fd5b5061043e6109313660046132a0565b6118df565b34801561094257600080fd5b506103d9610951366004613205565b61192a565b34801561096257600080fd5b50600c54610406906001600160a01b031681565b61038f610984366004613484565b61199d565b34801561099557600080fd5b506104b86000805160206138bf83398151915281565b3480156109b757600080fd5b5061043e6109c63660046132bd565b611c4a565b3480156109d757600080fd5b5061038f6109e6366004613205565b611c6f565b3480156109f757600080fd5b5061043e610a06366004613233565b611fcd565b348015610a1757600080fd5b506104b87fe0d26dd3554a167bd2b70cb1d833d6b1199f8bd315f72e7901acc10196002e1081565b61038f610a4d3660046132ed565b61205d565b348015610a5e57600080fd5b5061038f610a6d36600461330f565b6001600160a01b03918216600090815260076020908152604080832093909416825291909152205460ff1690565b348015610aa757600080fd5b506104b86120e7565b348015610abc57600080fd5b506104b8610acb366004613205565b600a6020526000908152604090205481565b348015610ae957600080fd5b506104b860001981565b600d5460405163acc8fb7d60e01b81526000916001600160a01b03169063acc8fb7d90610b2a903390879089908890600401613496565b602060405180830381600087803b158015610b4457600080fd5b505af1158015610b58573d6000803e3d6000fd5b505050506040513d601f19601f82011682018060405250810190610b7c91906134bc565b949350505050565b6000610b8f826124b7565b92915050565b606060028054610ba4906134d9565b80601f0160208091040260200160405190810160405280929190818152602001828054610bd0906134d9565b8015610c1d5780601f10610bf257610100808354040283529160200191610c1d565b820191906000526020600020905b815481529060010190602001808311610c0057829003601f168201915b5050505050905090565b6000610c32826124f7565b506000908152600660205260409020546001600160a01b031690565b6000610c59826113eb565b9050806001600160a01b0316836001600160a01b03161415610ccc5760405162461bcd60e51b815260206004820152602160248201527f4552433732313a20617070726f76616c20746f2063757272656e74206f776e656044820152603960f91b60648201526084015b60405180910390fd5b336001600160a01b0382161480610ce85750610ce88133610a6d565b610d5a5760405162461bcd60e51b815260206004820152603d60248201527f4552433732313a20617070726f76652063616c6c6572206973206e6f7420746f60448201527f6b656e206f776e6572206f7220617070726f76656420666f7220616c6c0000006064820152608401610cc3565b610d648383612559565b505050565b336000908152600b6020526040812081610d8382856125c7565b9050600019811415610dd75760405162461bcd60e51b815260206004820152601860248201527f546f6b656e20494420646f6573206f6e742065786973747300000000000000006044820152606401610cc3565b33610de1856113eb565b6001600160a01b031614610e295760405162461bcd60e51b815260206004820152600f60248201526e4f574e45525348495020495353554560881b6044820152606401610cc3565b610e333385612625565b610e3d8585612706565b610e478585612784565b610e5557610e558585610c4e565b610e7033868660405180602001604052806000815250612802565b506001949350505050565b6008546001600160a01b0316ff5b610e933382612784565b610eaf5760405162461bcd60e51b8152600401610cc39061350e565b610d64838383612835565b600d546040516311f9fbc960e21b8152336004820152602481018390526001600160a01b03909116906347e7ef24906044015b600060405180830381600087803b158015610f0757600080fd5b505af1158015610f1b573d6000803e3d6000fd5b5050505050565b33610f2e600082611681565b610f4a5760405162461bcd60e51b8152600401610cc39061355b565b604051631627905560e01b81526001600160a01b038316600482015273__$4257bb7bc16854cc4c83a0a74a7503d5fb$__9063162790559060240160206040518083038186803b158015610f9d57600080fd5b505af4158015610fb1573d6000803e3d6000fd5b505050506040513d601f19601f82011682018060405250810190610fd591906134bc565b6110365760405162461bcd60e51b815260206004820152602c60248201527f506172616d65746572206d75737420626520436f6e747261637420616464726560448201526b39b996103737ba103ab9b2b960a11b6064820152608401610cc3565b6110607fe0d26dd3554a167bd2b70cb1d833d6b1199f8bd315f72e7901acc10196002e1083611064565b5050565b60008281526020819052604090206001015461107f816129a6565b610d6483836129b0565b33611095600082611681565b6110b15760405162461bcd60e51b8152600401610cc39061355b565b6110c96000805160206138bf8339815191528361110a565b6040516001600160a01b03831681527f2f91b591fc56ac0917953ad01ec225524ee5ef0555213e4c8a9d8c9728ee7ffb906020015b60405180910390a15050565b6001600160a01b038116331461117a5760405162461bcd60e51b815260206004820152602f60248201527f416363657373436f6e74726f6c3a2063616e206f6e6c792072656e6f756e636560448201526e103937b632b9903337b91039b2b63360891b6064820152608401610cc3565b6110608282612a34565b610d64838383604051806020016040528060008152506118a7565b600c546000906001600160a01b0316338114806111c657506001546001600160a01b031633145b6112245760405162461bcd60e51b815260206004820152602960248201527f41646d696e206f722050656e64696e67205175657565206f6e6c792063616e2060448201526863616c6c207468697360b81b6064820152608401610cc3565b61122d83612a99565b600191505b50919050565b600d54604051630bb3b5cf60e21b81526001600160a01b0390911690632eced73c9061126c90339085908790600401613586565b602060405180830381600087803b15801561128657600080fd5b505af115801561129a573d6000803e3d6000fd5b505050506040513d601f19601f82011682018060405250810190610d6491906134bc565b6112c9600033612b3c565b6112e16000805160206138bf83398151915283612b3c565b61130b7f9667e80708b6eeeb0053fa0cca44e028ff548e2a9f029edfeac87c118b08b7c882612b3c565b600180546001600160a01b03191633179055604080516001600160a01b038481168252831660208201527f0592891029eec9a40bd8c563a4be4b0066d222037d3fa6ad82aa424f0e6023e191016110fe565b600d5460405163e403a32760e01b81526000916001600160a01b03169063e403a3279061139290339086908890600401613586565b602060405180830381600087803b1580156113ac57600080fd5b505af11580156113c0573d6000803e3d6000fd5b505050506040513d601f19601f820116820180604052508101906113e491906134bc565b9392505050565b6000818152600460205260408120546001600160a01b031680610b8f5760405162461bcd60e51b8152602060048201526018602482015277115490cdcc8c4e881a5b9d985b1a59081d1bdad95b88125160421b6044820152606401610cc3565b6000336114588282611681565b6114745760405162461bcd60e51b8152600401610cc39061355b565b600c54604051634d2ad87b60e01b8152600481018590526000916001600160a01b031690634d2ad87b9060240160206040518083038186803b1580156114b957600080fd5b505afa1580156114cd573d6000803e3d6000fd5b505050506040513d601f19601f820116820180604052508101906114f191906135a7565b90506000198114156115075760009250506115bd565b6001600160a01b038581166000908152600b60209081526040808320888452600281018352818420805460ff19166001908117909155825180850184528a81528183018054928301815586529390942092519290930191909155600c549051634cc8221560e01b81526004810185905291921690634cc8221590602401600060405180830381600087803b15801561159e57600080fd5b505af11580156115b2573d6000803e3d6000fd5b505050506001935050505b5092915050565b60006001600160a01b03821661162e5760405162461bcd60e51b815260206004820152602960248201527f4552433732313a2061646472657373207a65726f206973206e6f7420612076616044820152683634b21037bbb732b960b91b6064820152608401610cc3565b506001600160a01b031660009081526005602052604090205490565b600d5460405163f3fef3a360e01b8152336004820152602481018390526001600160a01b039091169063f3fef3a390604401610eed565b6000918252602082815260408084206001600160a01b0393909316845291905290205460ff1690565b600d54604051639c16627360e01b81526001600160a01b0390911690639c166273906116e0903390869088908790600401613496565b600060405180830381600087803b1580156116fa57600080fd5b505af115801561170e573d6000803e3d6000fd5b50505050505050565b606060038054610ba4906134d9565b33611732600082611681565b61174e5760405162461bcd60e51b8152600401610cc39061355b565b6117666000805160206138bf83398151915283611064565b6040516001600160a01b03831681527f16baa937b08d58713325f93ac58b8a9369a4359bbefb4957d6d9b402735722ab906020016110fe565b600d54604051632445104b60e21b81526000916001600160a01b031690639114412c90610b2a903390879089908890600401613496565b611060338383612b46565b600d5460405160016211367960e01b031981526000916001600160a01b03169063ffeec98790610b2a903390879089908890600401613496565b33611827600082611681565b6118435760405162461bcd60e51b8152600401610cc39061355b565b61184e60003361110a565b611859600083611064565b600180546001600160a01b0319166001600160a01b0384169081179091556040519081527ff285329298fd841af46eb83bbe90d1ebe2951c975a65b19a02f965f842ee69c5906020016110fe565b6118b13383612784565b6118cd5760405162461bcd60e51b8152600401610cc39061350e565b6118d984848484612802565b50505050565b336118eb600082611681565b6119075760405162461bcd60e51b8152600401610cc39061355b565b50600f80546001600160a01b0319166001600160a01b0392909216919091179055565b6060611935826124f7565b600061194c60408051602081019091526000815290565b9050600081511161196c57604051806020016040528060008152506113e4565b8061197684612c15565b6040516020016119879291906135c0565b6040516020818303038152906040529392505050565b600e546040516335a64e1560e11b81523360048201526000916001916001600160a01b0390911690636b4c9c2a90602401602060405180830381600087803b1580156119e857600080fd5b505af11580156119fc573d6000803e3d6000fd5b505050506040513d601f19601f82011682018060405250810190611a2091906135a7565b101580611a34575066038d7ea4c680003410155b611a8e5760405162461bcd60e51b815260206004820152602560248201527f4e656564206174206c6561737420302e30303120657468657220666f72206d696044820152646e74696e6760d81b6064820152608401610cc3565b600f546040516329da31eb60e21b815233918435916001600160a01b039091169063a768c7ac903490611ac990869086908490600401613586565b6000604051808303818588803b158015611ae257600080fd5b505af1158015611af6573d6000803e3d6000fd5b505050506001600160a01b038381166000908152600b60205260409020805490925016611b375780546001600160a01b0319166001600160a01b0384161781555b8435600090815260028201602052604090205460ff16151560011415611b9f5760405162461bcd60e51b815260206004820152601f60248201527f54686174277320756e697175655f696420616c726561647920657869737473006044820152606401610cc3565b8435600081815260028301602090815260408220805460ff1916600190811790915580850180549182018155835291200155611bde6203f48042613605565b85356000818152600a6020526040902091909155611bfd908490612cb2565b604080516001600160a01b0385168152863560208201527f0f6798a560793a54c3bcfe86a93cde1e73087d944c0ea20544137d4121396885910160405180910390a1506001949350505050565b600082815260208190526040902060010154611c65816129a6565b610d648383612a34565b336000908152600b6020526040812081611c8982856125c7565b6000858152600a6020526040902054909150421015611cea5760405162461bcd60e51b815260206004820152601d60248201527f596f752063616e2774206275726e207468697320746f6b656e206e6f770000006044820152606401610cc3565b600019811415611d2d5760405162461bcd60e51b815260206004820152600e60248201526d546f6b656e20494420697373756560901b6044820152606401610cc3565b33611d37856113eb565b6001600160a01b031614611d7f5760405162461bcd60e51b815260206004820152600f60248201526e4f574e45525348495020495353554560881b6044820152606401610cc3565b600c546040516365441b6960e11b8152600481018690526001600160a01b039091169063ca8836d29060240160206040518083038186803b158015611dc357600080fd5b505afa158015611dd7573d6000803e3d6000fd5b505050506040513d601f19601f82011682018060405250810190611dfb91906134bc565b15611e0a575060009392505050565b600c54604080516080810182528681523360208201526001850180546001600160a01b03909416936358840dff938301919086908110611e4c57611e4c61361d565b6000918252602091829020604080518085018252919092015481528352429282019290925281516001600160e01b031960e086901b16815283516004820152908301516001600160a01b03166024820152908201515160448201526060909101516064820152608401600060405180830381600087803b158015611ecf57600080fd5b505af1158015611ee3573d6000803e3d6000fd5b50505060008581526002840160205260409020805460ff1916905550600180830180549091611f1191613633565b81548110611f2157611f2161361d565b90600052602060002001826001018281548110611f4057611f4061361d565b60009182526020909120915491015560018201805480611f6257611f6261364a565b600082815260208082206000199084018101839055909201909255858252600a815260408083209290925581513381529081018690527f3bf2bb29a21dd002d3076982bbbdd5998bb2138c1ad54956a320f41d518b6a3a910160405180910390a15060019392505050565b33611ff87fe0d26dd3554a167bd2b70cb1d833d6b1199f8bd315f72e7901acc10196002e1082611681565b61203a5760405162461bcd60e51b81526020600482015260136024820152721653d548105491481393d50810531313d5d151606a1b6044820152606401610cc3565b610d64612046836113eb565b848460405180602001604052806000815250612802565b600d54604051630e10ed9360e31b8152600481018390526024810184905260009182916001600160a01b03909116906370876c9890604401602060405180830381600087803b1580156120af57600080fd5b505af11580156120c3573d6000803e3d6000fd5b505050506040513d601f19601f82011682018060405250810190610e7091906135a7565b6000336120f48282611681565b6121105760405162461bcd60e51b8152600401610cc39061355b565b600080600c60009054906101000a90046001600160a01b03166001600160a01b031663ecd6aac66040518163ffffffff1660e01b8152600401608060405180830381600087803b15801561216357600080fd5b505af1158015612177573d6000803e3d6000fd5b505050506040513d601f19601f8201168201806040525081019061219b9190613660565b90505b60208101516001600160a01b0316156123025760208101518151600f546040516318993e1760e21b81526001600160a01b0380851660048301526024820184905290911690636264f85c90604401600060405180830381600087803b15801561220657600080fd5b505af115801561221a573d6000803e3d6000fd5b5050505060018461222b9190613605565b935061223681612a99565b600c60009054906101000a90046001600160a01b03166001600160a01b031663ecd6aac66040518163ffffffff1660e01b8152600401608060405180830381600087803b15801561228657600080fd5b505af115801561229a573d6000803e3d6000fd5b505050506040513d601f19601f820116820180604052508101906122be9190613660565b92507f23ff0e75edf108e3d0392d92e13e8c8a868ef19001bd49f9e94876dc46dff87f8282426040516122f393929190613586565b60405180910390a1505061219e565b5091505090565b6060610b8f6001600160a01b03831660145b6060600061232a836002613707565b612335906002613605565b67ffffffffffffffff81111561234d5761234d613379565b6040519080825280601f01601f191660200182016040528015612377576020820181803683370190505b509050600360fc1b816000815181106123925761239261361d565b60200101906001600160f81b031916908160001a905350600f60fb1b816001815181106123c1576123c161361d565b60200101906001600160f81b031916908160001a90535060006123e5846002613707565b6123f0906001613605565b90505b6001811115612468576f181899199a1a9b1b9c1cb0b131b232b360811b85600f16601081106124245761242461361d565b1a60f81b82828151811061243a5761243a61361d565b60200101906001600160f81b031916908160001a90535060049490941c9361246181613726565b90506123f3565b5083156113e45760405162461bcd60e51b815260206004820181905260248201527f537472696e67733a20686578206c656e67746820696e73756666696369656e746044820152606401610cc3565b60006001600160e01b031982166380ac58cd60e01b14806124e857506001600160e01b03198216635b5e139f60e01b145b80610b8f5750610b8f82612e4b565b6000818152600460205260409020546001600160a01b03166125565760405162461bcd60e51b8152602060048201526018602482015277115490cdcc8c4e881a5b9d985b1a59081d1bdad95b88125160421b6044820152606401610cc3565b50565b600081815260066020526040902080546001600160a01b0319166001600160a01b038416908117909155819061258e826113eb565b6001600160a01b03167f8c5be1e5ebec7d5bd14f71427d1e84f3dd0314c0f7b2291e5b200ac8c7c3b92560405160405180910390a45050565b6000805b600184015481101561261a57828460010182815481106125ed576125ed61361d565b90600052602060002001600001541415612608579050610b8f565b806126128161373d565b9150506125cb565b506000199392505050565b6001600160a01b0382166000908152600b602052604081209061264882846125c7565b60008481526002840160205260409020805460ff19169055600183018054919250908290811061267a5761267a61361d565b600091825260208220015560018083018054909161269791613633565b815481106126a7576126a761361d565b906000526020600020018260010182815481106126c6576126c661361d565b600091825260209091209154910155600182018054806126e8576126e861364a565b60008281526020812082016000199081019190915501905550505050565b6001600160a01b038083166000908152600b6020526040902080549091166127425780546001600160a01b0319166001600160a01b0384161781555b60008281526002820160209081526040808320805460ff1916600190811790915581518084019092529481529284018054948501815582529020905191015550565b600080612790836113eb565b9050806001600160a01b0316846001600160a01b031614806127d757506001600160a01b0380821660009081526007602090815260408083209388168352929052205460ff165b80610b7c5750836001600160a01b03166127f084610c27565b6001600160a01b031614949350505050565b61280d848484612835565b61281984848484612e80565b6118d95760405162461bcd60e51b8152600401610cc390613758565b826001600160a01b0316612848826113eb565b6001600160a01b03161461286e5760405162461bcd60e51b8152600401610cc3906137aa565b6001600160a01b0382166128d05760405162461bcd60e51b8152602060048201526024808201527f4552433732313a207472616e7366657220746f20746865207a65726f206164646044820152637265737360e01b6064820152608401610cc3565b6128dd8383836001612f82565b826001600160a01b03166128f0826113eb565b6001600160a01b0316146129165760405162461bcd60e51b8152600401610cc3906137aa565b600081815260066020908152604080832080546001600160a01b03199081169091556001600160a01b0387811680865260058552838620805460001901905590871680865283862080546001019055868652600490945282852080549092168417909155905184937fddf252ad1be2c89b69c2b068fc378daa952ba7f163c4a11628f55a4df523b3ef91a4505050565b612556813361300a565b6129ba8282611681565b611060576000828152602081815260408083206001600160a01b03851684529091529020805460ff191660011790556129f03390565b6001600160a01b0316816001600160a01b0316837f2f8788117e7eff1d82e926ec794901d17c78024a50270940304540a733656f0d60405160405180910390a45050565b612a3e8282611681565b15611060576000828152602081815260408083206001600160a01b0385168085529252808320805460ff1916905551339285917ff6391f5c32d9c69d2a47ea670b442974b53935d1edc7fd64eb21e047a839171b9190a45050565b6000612aa4826113eb565b9050612ab4816000846001612f82565b612abd826113eb565b600083815260066020908152604080832080546001600160a01b03199081169091556001600160a01b0385168085526005845282852080546000190190558785526004909352818420805490911690555192935084927fddf252ad1be2c89b69c2b068fc378daa952ba7f163c4a11628f55a4df523b3ef908390a45050565b61106082826129b0565b816001600160a01b0316836001600160a01b03161415612ba85760405162461bcd60e51b815260206004820152601960248201527f4552433732313a20617070726f766520746f2063616c6c6572000000000000006044820152606401610cc3565b6001600160a01b03838116600081815260076020908152604080832094871680845294825291829020805460ff191686151590811790915591519182527f17307eab39ab6107e8899845ad3d59bd9653f200f220920489ca2b5937696c31910160405180910390a3505050565b60606000612c2283613063565b600101905060008167ffffffffffffffff811115612c4257612c42613379565b6040519080825280601f01601f191660200182016040528015612c6c576020820181803683370190505b5090508181016020015b600019016f181899199a1a9b1b9c1cb0b131b232b360811b600a86061a8153600a8504945084612ca557612caa565b612c76565b509392505050565b6001600160a01b038216612d085760405162461bcd60e51b815260206004820181905260248201527f4552433732313a206d696e7420746f20746865207a65726f20616464726573736044820152606401610cc3565b6000818152600460205260409020546001600160a01b031615612d6d5760405162461bcd60e51b815260206004820152601c60248201527f4552433732313a20746f6b656e20616c7265616479206d696e746564000000006044820152606401610cc3565b612d7b600083836001612f82565b6000818152600460205260409020546001600160a01b031615612de05760405162461bcd60e51b815260206004820152601c60248201527f4552433732313a20746f6b656e20616c7265616479206d696e746564000000006044820152606401610cc3565b6001600160a01b038216600081815260056020908152604080832080546001019055848352600490915280822080546001600160a01b0319168417905551839291907fddf252ad1be2c89b69c2b068fc378daa952ba7f163c4a11628f55a4df523b3ef908290a45050565b60006001600160e01b03198216637965db0b60e01b1480610b8f57506301ffc9a760e01b6001600160e01b0319831614610b8f565b60006001600160a01b0384163b15610e7057604051630a85bd0160e11b81526001600160a01b0385169063150b7a0290612ec49033908990889088906004016137ef565b602060405180830381600087803b158015612ede57600080fd5b505af1925050508015612f0e575060408051601f3d908101601f19168201909252612f0b9181019061382c565b60015b612f68573d808015612f3c576040519150601f19603f3d011682016040523d82523d6000602084013e612f41565b606091505b508051612f605760405162461bcd60e51b8152600401610cc390613758565b805181602001fd5b6001600160e01b031916630a85bd0160e11b149050610b7c565b60018111156118d9576001600160a01b03841615612fc8576001600160a01b03841660009081526005602052604081208054839290612fc2908490613633565b90915550505b6001600160a01b038316156118d9576001600160a01b03831660009081526005602052604081208054839290612fff908490613605565b909155505050505050565b6130148282611681565b6110605761302181612309565b61302c83602061231b565b60405160200161303d929190613849565b60408051601f198184030181529082905262461bcd60e51b8252610cc3916004016131f2565b60008072184f03e93ff9f4daa797ed6e38ed64bf6a1f0160401b83106130a25772184f03e93ff9f4daa797ed6e38ed64bf6a1f0160401b830492506040015b6d04ee2d6d415b85acef810000000083106130ce576d04ee2d6d415b85acef8100000000830492506020015b662386f26fc1000083106130ec57662386f26fc10000830492506010015b6305f5e1008310613104576305f5e100830492506008015b612710831061311857612710830492506004015b6064831061312a576064830492506002015b600a8310610b8f5760010192915050565b60008060006060848603121561315057600080fd5b505081359360208301359350604090920135919050565b6001600160e01b03198116811461255657600080fd5b60006020828403121561318f57600080fd5b81356113e481613167565b60005b838110156131b557818101518382015260200161319d565b838111156118d95750506000910152565b600081518084526131de81602086016020860161319a565b601f01601f19169290920160200192915050565b6020815260006113e460208301846131c6565b60006020828403121561321757600080fd5b5035919050565b6001600160a01b038116811461255657600080fd5b6000806040838503121561324657600080fd5b82356132518161321e565b946020939093013593505050565b60008060006060848603121561327457600080fd5b833561327f8161321e565b9250602084013561328f8161321e565b929592945050506040919091013590565b6000602082840312156132b257600080fd5b81356113e48161321e565b600080604083850312156132d057600080fd5b8235915060208301356132e28161321e565b809150509250929050565b6000806040838503121561330057600080fd5b50508035926020909101359150565b6000806040838503121561332257600080fd5b823561332d8161321e565b915060208301356132e28161321e565b801515811461255657600080fd5b6000806040838503121561335e57600080fd5b82356133698161321e565b915060208301356132e28161333d565b634e487b7160e01b600052604160045260246000fd5b604051601f8201601f1916810167ffffffffffffffff811182821017156133b8576133b8613379565b604052919050565b600080600080608085870312156133d657600080fd5b84356133e18161321e565b93506020858101356133f28161321e565b935060408601359250606086013567ffffffffffffffff8082111561341657600080fd5b818801915088601f83011261342a57600080fd5b81358181111561343c5761343c613379565b61344e601f8201601f1916850161338f565b9150808252898482850101111561346457600080fd5b808484018584013760008482840101525080935050505092959194509250565b60006020828403121561123257600080fd5b6001600160a01b0394909416845260208401929092526040830152606082015260800190565b6000602082840312156134ce57600080fd5b81516113e48161333d565b600181811c908216806134ed57607f821691505b6020821081141561123257634e487b7160e01b600052602260045260246000fd5b6020808252602d908201527f4552433732313a2063616c6c6572206973206e6f7420746f6b656e206f776e6560408201526c1c881bdc88185c1c1c9bdd9959609a1b606082015260800190565b6020808252601190820152702ca7aa9020a922902727aa1020a226a4a760791b604082015260600190565b6001600160a01b039390931683526020830191909152604082015260600190565b6000602082840312156135b957600080fd5b5051919050565b600083516135d281846020880161319a565b8351908301906135e681836020880161319a565b01949350505050565b634e487b7160e01b600052601160045260246000fd5b60008219821115613618576136186135ef565b500190565b634e487b7160e01b600052603260045260246000fd5b600082821015613645576136456135ef565b500390565b634e487b7160e01b600052603160045260246000fd5b6000818303608081121561367357600080fd5b604080516080810167ffffffffffffffff828210818311171561369857613698613379565b908352855182526020860151906136ae8261321e565b8160208401526020603f19860112156136c657600080fd5b8351945060208501915084821081831117156136e4576136e4613379565b508252848201518352908101919091526060928301519281019290925250919050565b6000816000190483118215151615613721576137216135ef565b500290565b600081613735576137356135ef565b506000190190565b6000600019821415613751576137516135ef565b5060010190565b60208082526032908201527f4552433732313a207472616e7366657220746f206e6f6e20455243373231526560408201527131b2b4bb32b91034b6b83632b6b2b73a32b960711b606082015260800190565b60208082526025908201527f4552433732313a207472616e736665722066726f6d20696e636f72726563742060408201526437bbb732b960d91b606082015260800190565b6001600160a01b0385811682528416602082015260408101839052608060608201819052600090613822908301846131c6565b9695505050505050565b60006020828403121561383e57600080fd5b81516113e481613167565b7f416363657373436f6e74726f6c3a206163636f756e742000000000000000000081526000835161388181601785016020880161319a565b7001034b99036b4b9b9b4b733903937b6329607d1b60179184019182015283516138b281602884016020880161319a565b0160280194935050505056fef0887ba65ee2024ea881d91b74c2450ef19e1557f03bed3ea9f16b037cbe2dc9a264697066735822122020ba8ecc830a56bc8741a48b5c3eed6472aceaba9458e2dde2bc3b6d31b6550c64736f6c634300080900336080604052600060025534801561001557600080fd5b50600080546001600160a01b03191633179055610b63806100376000396000f3fe608060405234801561001057600080fd5b506004361061007d5760003560e01c8063b4d1d7951161005b578063b4d1d795146101a2578063ca8836d2146101ac578063ecd6aac6146101cf578063fc9df5d51461021457600080fd5b80634cc82215146100825780634d2ad87b1461009757806358840dff146100bd575b600080fd5b6100956100903660046108b8565b610254565b005b6100aa6100a53660046108b8565b610384565b6040519081526020015b60405180910390f35b6100956100cb366004610908565b60018054808201825560009190915281517fb10e2d527612073b26eecdfd717e6a320cf44b4afac2b0732d9fcbe2b7fa0cf660049092029182015560208201517fb10e2d527612073b26eecdfd717e6a320cf44b4afac2b0732d9fcbe2b7fa0cf7820180546001600160a01b0319166001600160a01b039092169190911790556040820151517fb10e2d527612073b26eecdfd717e6a320cf44b4afac2b0732d9fcbe2b7fa0cf88201556060909101517fb10e2d527612073b26eecdfd717e6a320cf44b4afac2b0732d9fcbe2b7fa0cf990910155565b6100aa62093a8081565b6101bf6101ba3660046108b8565b610395565b60405190151581526020016100b4565b6101d76103f3565b6040516100b49190815181526020808301516001600160a01b03169082015260408083015151908201526060918201519181019190915260800190565b6102276102223660046108b8565b6105a1565b604080519485526001600160a01b03909316602085015290519183019190915260608201526080016100b4565b6001546102a85760405162461bcd60e51b815260206004820152601b60248201527f5468657265206973206e6f2070656e64696e6720656c656d656e74000000000060448201526064015b60405180910390fd5b600180546102b79082906109c4565b815481106102c7576102c76109db565b9060005260206000209060040201600182815481106102e8576102e86109db565b60009182526020909120825460049092020190815560018083015481830180546001600160a01b0319166001600160a01b0390921691909117905560028084015490830155600392830154929091019190915580548061034a5761034a6109f1565b6000828152602081206004600019909301928302018181556001810180546001600160a01b03191690556002810182905560030155905550565b600061038f826105f2565b92915050565b6000805b6001548110156103ea5782600182815481106103b7576103b76109db565b90600052602060002090600402016000015414156103d85750600192915050565b806103e281610a07565b915050610399565b50600092915050565b6103fb610873565b6000546001600160a01b0316331461044e5760405162461bcd60e51b8152602060048201526016602482015275139bdd08119c9bdb4810dbdc994810dbdb9d1c9858dd60521b604482015260640161029f565b42610457610873565b43600254146104825761047d600160006001808054905061047891906109c4565b61064e565b436002555b6001541561055c57600160008154811061049e5761049e6109db565b60009182526020918290206040805160808101825260049093029091018054835260018101546001600160a01b031683850152815193840182526002810154845290820192909252600390910154606082018190529091506105049062093a8090610a22565b8210610519576105146000610254565b61059b565b60405180608001604052806000815260200160006001600160a01b031681526020016040518060200160405280600081525081526020016000815250905061059b565b60405180608001604052806000815260200160006001600160a01b03168152602001604051806020016040528060008152508152602001600081525090505b91505090565b600181815481106105b157600080fd5b600091825260209182902060049091020180546001820154604080519485019052600283015484526003909201549093506001600160a01b03909116919084565b6000805b600154811015610644578260018281548110610614576106146109db565b90600052602060002090600402016000015414156106325792915050565b8061063c81610a07565b9150506105f6565b5060001992915050565b81818082141561065f575050505050565b600085600261066e8787610a3a565b6106789190610a79565b6106829087610ab5565b81548110610692576106926109db565b906000526020600020906004020190505b81831215610845575b80600301548684815481106106c3576106c36109db565b90600052602060002090600402016003015410156106ed57826106e581610af6565b9350506106ac565b8582815481106106ff576106ff6109db565b9060005260206000209060040201600301548160030154101561072e578161072681610b0f565b9250506106ed565b81831361084057858281548110610747576107476109db565b9060005260206000209060040201868481548110610767576107676109db565b9060005260206000209060040201878581548110610787576107876109db565b906000526020600020906004020160008986815481106107a9576107a96109db565b60009182526020909120845460049092020190815560018085015481830180546001600160a01b039283166001600160a01b031991821617909155600280880154818601556003978801549488019490945587548655878301549286018054939092169216919091179055848101549083015550918101549101558261082e81610af6565b935050818061083c90610b0f565b9250505b6106a3565b818512156108585761085886868461064e565b8383121561086b5761086b86848661064e565b505050505050565b60405180608001604052806000815260200160006001600160a01b031681526020016108ab6040518060200160405280600081525090565b8152602001600081525090565b6000602082840312156108ca57600080fd5b5035919050565b6040516020810167ffffffffffffffff8111828210171561090257634e487b7160e01b600052604160045260246000fd5b60405290565b6000818303608081121561091b57600080fd5b6040516080810181811067ffffffffffffffff8211171561094c57634e487b7160e01b600052604160045260246000fd5b6040528335815260208401356001600160a01b038116811461096d57600080fd5b806020830152506020603f198301121561098657600080fd5b61098e6108d1565b604085810135825282015260609384013593810193909352509092915050565b634e487b7160e01b600052601160045260246000fd5b6000828210156109d6576109d66109ae565b500390565b634e487b7160e01b600052603260045260246000fd5b634e487b7160e01b600052603160045260246000fd5b6000600019821415610a1b57610a1b6109ae565b5060010190565b60008219821115610a3557610a356109ae565b500190565b60008083128015600160ff1b850184121615610a5857610a586109ae565b6001600160ff1b0384018313811615610a7357610a736109ae565b50500390565b600082610a9657634e487b7160e01b600052601260045260246000fd5b600160ff1b821460001984141615610ab057610ab06109ae565b500590565b600080821280156001600160ff1b0384900385131615610ad757610ad76109ae565b600160ff1b8390038412811615610af057610af06109ae565b50500190565b60006001600160ff1b03821415610a1b57610a1b6109ae565b6000600160ff1b821415610b2557610b256109ae565b50600019019056fea2646970667358221220a333080b3d6a4cc1663c05165224abada5c620dd0762c08f485682fee35c96ba64736f6c63430008090033608060405234801561001057600080fd5b50611a93806100206000396000f3fe60806040526004361061011f5760003560e01c8063acc8fb7d116100a0578063e403a32711610064578063e403a32714610362578063ec254e4714610382578063ec69a65414610397578063f3fef3a3146103c7578063ffeec987146103e757600080fd5b8063acc8fb7d146102cb578063ae418095146102eb578063b303e67e1461030b578063baa267571461032b578063c422c2831461034b57600080fd5b806348ad1688116100e757806348ad16881461022b5780636b2513fb1461024b57806370876c98146102785780639114412c1461028b5780639c166273146102ab57600080fd5b8063054660e614610124578063116f7e961461015957806328861d221461019d5780632eced73c146101e957806347e7ef2414610209575b600080fd5b34801561013057600080fd5b5061014461013f366004611816565b610407565b60405190151581526020015b60405180910390f35b34801561016557600080fd5b5061018f610174366004611847565b6001600160a01b031660009081526002602052604090205490565b604051908152602001610150565b3480156101a957600080fd5b506101d46101b8366004611816565b6004602052600090815260409020805460019091015460ff1682565b60408051928352901515602083015201610150565b3480156101f557600080fd5b5061014461020436600461186b565b6104ec565b34801561021557600080fd5b506102296102243660046118a0565b610833565b005b34801561023757600080fd5b50610229610246366004611847565b6108de565b34801561025757600080fd5b5061018f610266366004611847565b60026020526000908152604090205481565b61018f6102863660046118cc565b610946565b34801561029757600080fd5b506101446102a63660046118ee565b610ab4565b3480156102b757600080fd5b506102296102c63660046118ee565b610bfc565b3480156102d757600080fd5b506101446102e63660046118ee565b610d8c565b3480156102f757600080fd5b50610144610306366004611816565b611028565b34801561031757600080fd5b50610229610326366004611816565b611117565b34801561033757600080fd5b50610144610346366004611816565b611201565b34801561035757600080fd5b5061018f62093a8081565b34801561036e57600080fd5b5061014461037d36600461186b565b6112e8565b34801561038e57600080fd5b5061018f600381565b3480156103a357600080fd5b506101446103b2366004611816565b60036020526000908152604090205460ff1681565b3480156103d357600080fd5b506102296103e23660046118a0565b61146e565b3480156103f357600080fd5b506101446104023660046118ee565b611578565b6001546000906001600160a01b0316331461043d5760405162461bcd60e51b815260040161043490611929565b60405180910390fd5b60008281526003602052604090205460ff16801561046d575060008281526004602052604090206001015460ff16155b6104b05760405162461bcd60e51b815260206004820152601460248201527313585c9ad95d081a5cc81b9bdd0818db1bdcd95960621b6044820152606401610434565b6040518281527ff2f4775cbe6b777408b6b232bb5d41ceedbb92b9bfb862d237d61590b1602b08906020015b60405180910390a1506001919050565b600080546001600160a01b031633146105175760405162461bcd60e51b815260040161043490611954565b600082815260036020526040902054829060ff168015610548575060008181526004602052604090206001015460ff165b6105645760405162461bcd60e51b81526004016104349061198b565b60008381526004602090815260408083208784526002810190925290912080546001600160a01b0388811661010090920416146105ed5760405162461bcd60e51b815260206004820152602160248201527f596f7520617265206e6f74206f776e6572206f6620746869732061756374696f6044820152603760f91b6064820152608401610434565b80600201544210156106415760405162461bcd60e51b815260206004820152601960248201527f546869732061756374696f6e206973206e6f7420656e646564000000000000006044820152606401610434565b805461010090046001600160a01b031661069d5760405162461bcd60e51b815260206004820152601f60248201527f546869732061756374696f6e206973206e6f7420696e697469616c697a6564006044820152606401610434565b8054600182015460038301546101009092046001600160a01b039081169291169060006106c9826116ef565b90506106d581836119d0565b6001600160a01b038516600090815260026020526040812080549091906106fd9084906119e7565b909155505030600090815260026020526040812080548392906107219084906119e7565b90915550506001600160a01b0383166000908152600260205260408120805484929061074e9084906119d0565b909155505060008a815260028088016020526040822080546001600160a81b03191681556001810180546001600160a01b0319169055908101829055600301557fd2aa34a4fdbbc6dff6a3e56f46e0f3ae2a31d7785ff3487aa5c95c642acea5018a6001600160a01b038516156107c557846107c7565b855b604080519283526001600160a01b039091166020830152810184905260600160405180910390a16001600160a01b0383161561081657610807838b61170d565b6001975050505050505061082b565b610820848b61170d565b600097505050505050505b509392505050565b6000546001600160a01b0316331461085d5760405162461bcd60e51b815260040161043490611954565b600081116108ad5760405162461bcd60e51b815260206004820152601d60248201527f416d6f756e74206d7573742062652067726561746572207468616e20300000006044820152606401610434565b6001600160a01b038216600090815260026020526040812080548392906108d59084906119e7565b90915550505050565b600180546001600160a01b03199081166001600160a01b03841690811790925560008054339216821790556040805192835260208301919091527f805e5657460d1ff229385ea2f1efed009d11ab180f9e9e05ff9243b83c6058ba910160405180910390a150565b600080546001600160a01b031633146109715760405162461bcd60e51b815260040161043490611954565b600082815260036020526040902054829060ff1680156109a2575060008181526004602052604090206001015460ff165b6109be5760405162461bcd60e51b81526004016104349061198b565b60008381526004602090815260408083208784526002810190925290912060038101543414610a3b5760405162461bcd60e51b8152602060048201526024808201527f596f752063616e27742070757263686173652c206e656564206d6f72652076616044820152636c75657360e01b6064820152608401610434565b805461010090046001600160a01b031660009081526002602052604081208054349290610a699084906119e7565b909155505050600085815260029182016020526040812080546001600160a81b03191681556001810180546001600160a01b0319169055918201819055600390910155509192915050565b600080546001600160a01b03163314610adf5760405162461bcd60e51b815260040161043490611954565b600083815260036020526040902054839060ff168015610b10575060008181526004602052604090206001015460ff165b610b2c5760405162461bcd60e51b81526004016104349061198b565b60008481526004602090815260408083208884526002810190925290912080546001600160a01b038981166101009092041614610bab5760405162461bcd60e51b815260206004820152601c60248201527f5468697320746f6b656e206973206e6f7420796f757220746f6b656e000000006044820152606401610434565b6003810185905560408051888152602081018790527fb28c033901c5ca2028cd8f649a090009d6fa0fc674e168acd2618a1af900f7b991015b60405180910390a16001935050505b50949350505050565b6000546001600160a01b03163314610c265760405162461bcd60e51b815260040161043490611954565b600082815260036020526040902054829060ff168015610c57575060008181526004602052604090206001015460ff165b610c735760405162461bcd60e51b81526004016104349061198b565b600083815260046020908152604080832087845260028101909252909120805461010090046001600160a01b031615610cee5760405162461bcd60e51b815260206004820152601d60248201527f54686973206974656d20616c726561647920696e697469616c697a65640000006044820152606401610434565b805460016001600160a81b03199091166101006001600160a01b038a16021781178255810180546001600160a01b0319169055610d2e62093a80426119e7565b600282018190556003820185905560408051888152602081018890528082018790526060810192909252517fa832766a05f1bd0298b0268308621777cfe1e4eea23afe7c06beea79bc6ddd2d9181900360800190a150505050505050565b600080546001600160a01b03163314610db75760405162461bcd60e51b815260040161043490611954565b600083815260036020526040902054839060ff168015610de8575060008181526004602052604090206001015460ff165b610e045760405162461bcd60e51b81526004016104349061198b565b600084815260046020908152604080832088845260028101909252909120805460ff16610e735760405162461bcd60e51b815260206004820152601c60248201527f54686973206973206e6f7420666f722061756374696f6e206974656d000000006044820152606401610434565b80546001600160a01b03898116610100909204161415610ed55760405162461bcd60e51b815260206004820152601d60248201527f4f776e65722063616e6e6f742073756767657374206e657720636f73740000006044820152606401610434565b80600201544210610f285760405162461bcd60e51b815260206004820152601d60248201527f546869732061756374696f6e20697320616c726561647920656e6465640000006044820152606401610434565b84816003015410610f3e57600093505050610bf3565b6001600160a01b038816600090815260026020526040902054851115610fbb5760405162461bcd60e51b815260206004820152602c60248201527f5573657220646f6573206e6f742068617320656e6f7567682062616c616e636560448201526b20666f722062657474696e6760a01b6064820152608401610434565b6001810180546001600160a01b0319166001600160a01b038a1690811790915560038201869055604080518981526020810189905290810191909152606081018690527f2758327e2540a8640998463ea6c792bf21c6e719e7e39807c27cbe700ca2731590608001610be4565b6001546000906001600160a01b031633146110555760405162461bcd60e51b815260040161043490611929565b60008281526003602052604090205460ff1680156110895750600082815260046020526040902060019081015460ff161515145b6110cc5760405162461bcd60e51b815260206004820152601460248201527313585c9ad95d081a5cc81b9bdd081bdc195b995960621b6044820152606401610434565b60008281526004602052604090819020600101805460ff19169055517f9dc30b8eda31a6a144e092e5de600955523a6a925cc15cc1d1b9b4872cfa6155906104dc9084815260200190565b6001546001600160a01b031633146111415760405162461bcd60e51b815260040161043490611929565b60008181526003602052604090205460ff16156111985760405162461bcd60e51b81526020600482015260156024820152744d61726b657420616c72656164792065786973747360581b6044820152606401610434565b60008181526003602090815260408083208054600160ff19918216811790925560048452938290209081018054909416909355838355518381527f25b2eff8f9cbb97c6c73adf7d94f4f8956260becc65ab075709db7561914a2b1910160405180910390a15050565b6001546000906001600160a01b0316331461122e5760405162461bcd60e51b815260040161043490611929565b60008281526003602052604090205460ff166112985760405162461bcd60e51b815260206004820152602360248201527f4d61726b6574206973206e6f74206578697374732c206372656174652066697260448201526273742160e81b6064820152608401610434565b600082815260046020526040908190206001908101805460ff19169091179055517f877332afc4cf5a3b3ce30a19161c7d2e263703799bec37d80f6bbbf4199e59c7906104dc9084815260200190565b600080546001600160a01b031633146113135760405162461bcd60e51b815260040161043490611954565b600082815260036020526040902054829060ff168015611344575060008181526004602052604090206001015460ff165b6113605760405162461bcd60e51b81526004016104349061198b565b60008381526004602090815260408083208784526002810190925290912080546001600160a01b0388811661010090920416146113df5760405162461bcd60e51b815260206004820152601c60248201527f5468697320746f6b656e206973206e6f7420796f757220746f6b656e000000006044820152606401610434565b600086815260028381016020908152604080842080546001600160a81b03191681556001810180546001600160a01b031916905592830184905560039092019290925580516001600160a01b038a1681529182018890527f39bb3b95fc56345380963759a01377aaa0e0ec26f752d8946687967f25a58558910160405180910390a15060019695505050505050565b6000546001600160a01b031633146114985760405162461bcd60e51b815260040161043490611954565b600081116114e85760405162461bcd60e51b815260206004820152601d60248201527f416d6f756e74206d7573742062652067726561746572207468616e20300000006044820152606401610434565b6001600160a01b0382166000908152600260205260409020548111156115505760405162461bcd60e51b815260206004820152601f60248201527f4e6f20656e6f7567682062616c616e63657320666f72207769746864726177006044820152606401610434565b6001600160a01b038216600090815260026020526040812080548392906108d59084906119d0565b600080546001600160a01b031633146115a35760405162461bcd60e51b815260040161043490611954565b600083815260036020526040902054839060ff1680156115d4575060008181526004602052604090206001015460ff165b6115f05760405162461bcd60e51b81526004016104349061198b565b600084815260046020908152604080832088845260028101909252909120805461010090046001600160a01b03161561167057604080516001600160a01b038a168152602081018990527f3e00d4c7f79c99e1714a15ce5815c7e4a5ffb2cccebf38f376da25d920210195910160405180910390a1600093505050610bf3565b80546001600160a81b0319166101006001600160a01b038a169081029190911782556001820180546001600160a01b03191690556000600283015560038201869055604080519182526020820189905281018690527f876aa8a72ace7ae39101d4957250d89245f71b814b52354a12e1a116ac1eb27c90606001610be4565b60006116fd606460036119ff565b6117079083611a21565b92915050565b600080546040516331a9108f60e11b8152600481018490526001600160a01b0390911690636352211e9060240160206040518083038186803b15801561175257600080fd5b505afa158015611766573d6000803e3d6000fd5b505050506040513d601f19601f8201168201806040525081019061178a9190611a40565b9050826001600160a01b0316816001600160a01b031614156117ab57505050565b60005460405163d8ef538560e01b81526001600160a01b038581166004830152602482018590529091169063d8ef538590604401600060405180830381600087803b1580156117f957600080fd5b505af115801561180d573d6000803e3d6000fd5b50505050505050565b60006020828403121561182857600080fd5b5035919050565b6001600160a01b038116811461184457600080fd5b50565b60006020828403121561185957600080fd5b81356118648161182f565b9392505050565b60008060006060848603121561188057600080fd5b833561188b8161182f565b95602085013595506040909401359392505050565b600080604083850312156118b357600080fd5b82356118be8161182f565b946020939093013593505050565b600080604083850312156118df57600080fd5b50508035926020909101359150565b6000806000806080858703121561190457600080fd5b843561190f8161182f565b966020860135965060408601359560600135945092505050565b6020808252601190820152702cb7ba9030b932903737ba1037bbb732b960791b604082015260600190565b60208082526019908201527f4f6e6c7920616c6c6f77656420666f72204e465420436f726500000000000000604082015260600190565b6020808252601590820152744d61726b6574206973206e6f74206f70656e65642160581b604082015260600190565b634e487b7160e01b600052601160045260246000fd5b6000828210156119e2576119e26119ba565b500390565b600082198211156119fa576119fa6119ba565b500190565b600082611a1c57634e487b7160e01b600052601260045260246000fd5b500490565b6000816000190483118215151615611a3b57611a3b6119ba565b500290565b600060208284031215611a5257600080fd5b81516118648161182f56fea2646970667358221220568c1b3808754a2b4b90d20f5eafe209f3ebf060b225133e9d61e26b6e5eadfb64736f6c6343000809003360806040523480156200001157600080fd5b5060405162001fde38038062001fde833981016040819052620000349162000640565b600280546001600160a01b038085166001600160a01b0319928316811790935560038054918516919092161790556200006d9062000075565b505062000816565b620000826000826200013f565b6200008f6000306200013f565b620000bb7f68e07eecb579f8e08e47c66ff59980ad94cac4e7f1ee2e1f3166a76d8572bc4e826200013f565b6003546001600160a01b0316620001255760405162461bcd60e51b815260206004820152602360248201527f594f55204841564520544f2053455420434f524520434f4e54524143542046496044820152621494d560ea1b60648201526084015b60405180910390fd5b6003546200013c906001600160a01b03166200014f565b50565b6200014b8282620002e1565b5050565b3360008181527fad3228b676f7d3cd4284a5443f17f1962b36e491b30a40b2405849e597ba5fb5602052604090205460ff16620001c35760405162461bcd60e51b81526020600482015260116024820152702ca7aa9020a922902727aa1020a226a4a760791b60448201526064016200011c565b604051631627905560e01b81526001600160a01b038316600482015273__$4257bb7bc16854cc4c83a0a74a7503d5fb$__9063162790559060240160206040518083038186803b1580156200021757600080fd5b505af41580156200022c573d6000803e3d6000fd5b505050506040513d601f19601f8201168201806040525081019062000252919062000678565b620002b55760405162461bcd60e51b815260206004820152602c60248201527f506172616d65746572206d75737420626520436f6e747261637420616464726560448201526b39b996103737ba103ab9b2b960a11b60648201526084016200011c565b6200014b7fe0d26dd3554a167bd2b70cb1d833d6b1199f8bd315f72e7901acc10196002e108362000381565b6000828152602081815260408083206001600160a01b038516845290915290205460ff166200014b576000828152602081815260408083206001600160a01b03851684529091529020805460ff191660011790556200033d3390565b6001600160a01b0316816001600160a01b0316837f2f8788117e7eff1d82e926ec794901d17c78024a50270940304540a733656f0d60405160405180910390a45050565b6000828152602081905260409020600101546200039e81620003af565b620003aa8383620002e1565b505050565b6200013c81336000828152602081815260408083206001600160a01b038516845290915290205460ff166200014b57620003f4816200044560201b62000f371760201c565b6200040a83602062000f4962000463821b17811c565b6040516020016200041d929190620006cf565b60408051601f198184030181529082905262461bcd60e51b82526200011c9160040162000748565b60606200045d6001600160a01b038316601462000463565b92915050565b606060006200047483600262000793565b62000481906002620007b5565b6001600160401b038111156200049b576200049b620007d0565b6040519080825280601f01601f191660200182016040528015620004c6576020820181803683370190505b509050600360fc1b81600081518110620004e457620004e4620007e6565b60200101906001600160f81b031916908160001a905350600f60fb1b81600181518110620005165762000516620007e6565b60200101906001600160f81b031916908160001a90535060006200053c84600262000793565b62000549906001620007b5565b90505b6001811115620005cb576f181899199a1a9b1b9c1cb0b131b232b360811b85600f1660108110620005815762000581620007e6565b1a60f81b8282815181106200059a576200059a620007e6565b60200101906001600160f81b031916908160001a90535060049490941c93620005c381620007fc565b90506200054c565b5083156200061c5760405162461bcd60e51b815260206004820181905260248201527f537472696e67733a20686578206c656e67746820696e73756666696369656e7460448201526064016200011c565b9392505050565b80516001600160a01b03811681146200063b57600080fd5b919050565b600080604083850312156200065457600080fd5b6200065f8362000623565b91506200066f6020840162000623565b90509250929050565b6000602082840312156200068b57600080fd5b815180151581146200061c57600080fd5b60005b83811015620006b95781810151838201526020016200069f565b83811115620006c9576000848401525b50505050565b7f416363657373436f6e74726f6c3a206163636f756e7420000000000000000000815260008351620007098160178501602088016200069c565b7001034b99036b4b9b9b4b733903937b6329607d1b60179184019182015283516200073c8160288401602088016200069c565b01602801949350505050565b6020815260008251806020840152620007698160408501602087016200069c565b601f01601f19169190910160400192915050565b634e487b7160e01b600052601160045260246000fd5b6000816000190483118215151615620007b057620007b06200077d565b500290565b60008219821115620007cb57620007cb6200077d565b500190565b634e487b7160e01b600052604160045260246000fd5b634e487b7160e01b600052603260045260246000fd5b6000816200080e576200080e6200077d565b506000190190565b6117b880620008266000396000f3fe60806040526004361061014b5760003560e01c8063812ed5cc116100b6578063b2a1449b1161006f578063b2a1449b146103c9578063b9f14557146103eb578063d53913931461040b578063d547741f1461042d578063df1d0acb1461044d578063eddb657f1461046f57600080fd5b8063812ed5cc14610319578063893d20e81461032c57806391d1485414610354578063983b2d5614610374578063a217fddf14610394578063a6f9dae1146103a957600080fd5b8063305ed01511610108578063305ed015146102595780633092afd51461027957806336568abe1461029957806345941ee0146102b95780634b4e4c3a146102d95780636b4c9c2a146102f957600080fd5b806301ffc9a714610150578063248a9ca314610185578063282c51f3146101c357806328fb6607146101f75780632c56462f146102175780632f2ff15d14610239575b600080fd5b34801561015c57600080fd5b5061017061016b366004611310565b6104a3565b60405190151581526020015b60405180910390f35b34801561019157600080fd5b506101b56101a036600461133a565b60009081526020819052604090206001015490565b60405190815260200161017c565b3480156101cf57600080fd5b506101b57f9667e80708b6eeeb0053fa0cca44e028ff548e2a9f029edfeac87c118b08b7c881565b34801561020357600080fd5b5061017061021236600461136f565b6104da565b34801561022357600080fd5b50610237610232366004611399565b6105cb565b005b34801561024557600080fd5b506102376102543660046113b4565b6106fb565b34801561026557600080fd5b50610237610274366004611399565b610725565b34801561028557600080fd5b50610237610294366004611399565b610791565b3480156102a557600080fd5b506102376102b43660046113b4565b610812565b3480156102c557600080fd5b506102376102d4366004611399565b61088c565b3480156102e557600080fd5b506102376102f43660046113e0565b6108cf565b34801561030557600080fd5b506101b5610314366004611399565b61096e565b610237610327366004611420565b610a42565b34801561033857600080fd5b506001546040516001600160a01b03909116815260200161017c565b34801561036057600080fd5b5061017061036f3660046113b4565b610b2c565b34801561038057600080fd5b5061023761038f366004611399565b610b55565b3480156103a057600080fd5b506101b5600081565b3480156103b557600080fd5b506102376103c4366004611399565b610bce565b3480156103d557600080fd5b506103de610c5a565b60405161017c919061154e565b3480156103f757600080fd5b50610170610406366004611399565b610e2b565b34801561041757600080fd5b506101b560008051602061174383398151915281565b34801561043957600080fd5b506102376104483660046113b4565b610f12565b34801561045957600080fd5b506101b560008051602061176383398151915281565b34801561047b57600080fd5b506101b57f68e07eecb579f8e08e47c66ff59980ad94cac4e7f1ee2e1f3166a76d8572bc4e81565b60006001600160e01b03198216637965db0b60e01b14806104d457506301ffc9a760e01b6001600160e01b03198316145b92915050565b6000336105077f68e07eecb579f8e08e47c66ff59980ad94cac4e7f1ee2e1f3166a76d8572bc4e82610b2c565b61054d5760405162461bcd60e51b8152602060048201526012602482015271594f5520415245204e4f5420504f4c49434560701b60448201526064015b60405180910390fd5b6000831161059d5760405162461bcd60e51b815260206004820152601d60248201527f504552494f44206d7573742062652067726561746572207468616e20300000006044820152606401610544565b6105a783426115a7565b6001600160a01b038516600090815260046020526040902055600191505092915050565b336105d7600082610b2c565b6105f35760405162461bcd60e51b8152600401610544906115bf565b604051631627905560e01b81526001600160a01b038316600482015273__$4257bb7bc16854cc4c83a0a74a7503d5fb$__9063162790559060240160206040518083038186803b15801561064657600080fd5b505af415801561065a573d6000803e3d6000fd5b505050506040513d601f19601f8201168201806040525081019061067e91906115ea565b6106df5760405162461bcd60e51b815260206004820152602c60248201527f506172616d65746572206d75737420626520436f6e747261637420616464726560448201526b39b996103737ba103ab9b2b960a11b6064820152608401610544565b6106f7600080516020611763833981519152836106fb565b5050565b600082815260208190526040902060010154610716816110ec565b61072083836110f9565b505050565b33610731600082610b2c565b61074d5760405162461bcd60e51b8152600401610544906115bf565b6001600160a01b0382166000908152600660205260409020546107719060016115a7565b6001600160a01b0390921660009081526006602052604090209190915550565b3361079d600082610b2c565b6107b95760405162461bcd60e51b8152600401610544906115bf565b6107d160008051602061174383398151915283610812565b6040516001600160a01b03831681527f2f91b591fc56ac0917953ad01ec225524ee5ef0555213e4c8a9d8c9728ee7ffb906020015b60405180910390a15050565b6001600160a01b03811633146108825760405162461bcd60e51b815260206004820152602f60248201527f416363657373436f6e74726f6c3a2063616e206f6e6c792072656e6f756e636560448201526e103937b632b9903337b91039b2b63360891b6064820152608401610544565b6106f7828261117d565b33610898600082610b2c565b6108b45760405162461bcd60e51b8152600401610544906115bf565b506001600160a01b0316600090815260046020526040812055565b6108da6000336111e2565b6108f2600080516020611743833981519152836111e2565b61091c7f9667e80708b6eeeb0053fa0cca44e028ff548e2a9f029edfeac87c118b08b7c8826111e2565b600180546001600160a01b03191633179055604080516001600160a01b038481168252831660208201527f0592891029eec9a40bd8c563a4be4b0066d222037d3fa6ad82aa424f0e6023e19101610806565b60003361097b8282610b2c565b80610999575061099960008051602061176383398151915282610b2c565b6109d35760405162461bcd60e51b815260206004820152600b60248201526a1393d50810531313d5d15160aa1b6044820152606401610544565b6001600160a01b038316600090815260066020526040902054806109fb576000925050610a3c565b6001600160a01b038416600090815260066020526040902054610a209060019061160c565b6001600160a01b03851660009081526006602052604090205591505b50919050565b604080516060810182526001600160a01b038086168252848116602080840191825293830185815260058054600181018255600091909152845160039091027f036b6384b5eca791c62761152d0c79bb0604c104a5fb6f4eb0703f3154bb3db0810180549286166001600160a01b031993841617815593517f036b6384b5eca791c62761152d0c79bb0604c104a5fb6f4eb0703f3154bb3db1820180549190961692169190911790935551805193949193610b24937f036b6384b5eca791c62761152d0c79bb0604c104a5fb6f4eb0703f3154bb3db201929190910190611245565b505050505050565b6000918252602082815260408084206001600160a01b0393909316845291905290205460ff1690565b33610b61600082610b2c565b610b7d5760405162461bcd60e51b8152600401610544906115bf565b610b95600080516020611743833981519152836106fb565b6040516001600160a01b03831681527f16baa937b08d58713325f93ac58b8a9369a4359bbefb4957d6d9b402735722ab90602001610806565b33610bda600082610b2c565b610bf65760405162461bcd60e51b8152600401610544906115bf565b610c01600033610812565b610c0c6000836106fb565b600180546001600160a01b0319166001600160a01b0384169081179091556040519081527ff285329298fd841af46eb83bbe90d1ebe2951c975a65b19a02f965f842ee69c590602001610806565b6040805160608082018352600080835260208301529181019190915233610c82600082610b2c565b80610ca05750610ca060008051602061176383398151915282610b2c565b610cda5760405162461bcd60e51b815260206004820152600b60248201526a1393d50810531313d5d15160aa1b6044820152606401610544565b6005805460009190610cee9060019061160c565b81548110610cfe57610cfe611623565b600091825260209182902060408051606081018252600390930290910180546001600160a01b0390811684526001820154169383019390935260028301805492939291840191610d4d90611639565b80601f0160208091040260200160405190810160405280929190818152602001828054610d7990611639565b8015610dc65780601f10610d9b57610100808354040283529160200191610dc6565b820191906000526020600020905b815481529060010190602001808311610da957829003601f168201915b50505050508152505090506005805480610de257610de261166e565b60008281526020812060036000199093019283020180546001600160a01b03199081168255600182018054909116905590610e2060028301826112c5565b5050905591505b5090565b600033610e587f68e07eecb579f8e08e47c66ff59980ad94cac4e7f1ee2e1f3166a76d8572bc4e82610b2c565b610e995760405162461bcd60e51b8152602060048201526012602482015271594f5520415245204e4f5420504f4c49434560701b6044820152606401610544565b6001600160a01b038316600090815260046020526040902054421015610ef35760405162461bcd60e51b815260206004820152600f60248201526e10d85b89dd081d5b98985b881e595d608a1b6044820152606401610544565b50506001600160a01b0316600090815260046020526040812055600190565b600082815260208190526040902060010154610f2d816110ec565b610720838361117d565b60606104d46001600160a01b03831660145b60606000610f58836002611684565b610f639060026115a7565b67ffffffffffffffff811115610f7b57610f7b61140a565b6040519080825280601f01601f191660200182016040528015610fa5576020820181803683370190505b509050600360fc1b81600081518110610fc057610fc0611623565b60200101906001600160f81b031916908160001a905350600f60fb1b81600181518110610fef57610fef611623565b60200101906001600160f81b031916908160001a9053506000611013846002611684565b61101e9060016115a7565b90505b6001811115611096576f181899199a1a9b1b9c1cb0b131b232b360811b85600f166010811061105257611052611623565b1a60f81b82828151811061106857611068611623565b60200101906001600160f81b031916908160001a90535060049490941c9361108f816116a3565b9050611021565b5083156110e55760405162461bcd60e51b815260206004820181905260248201527f537472696e67733a20686578206c656e67746820696e73756666696369656e746044820152606401610544565b9392505050565b6110f681336111ec565b50565b6111038282610b2c565b6106f7576000828152602081815260408083206001600160a01b03851684529091529020805460ff191660011790556111393390565b6001600160a01b0316816001600160a01b0316837f2f8788117e7eff1d82e926ec794901d17c78024a50270940304540a733656f0d60405160405180910390a45050565b6111878282610b2c565b156106f7576000828152602081815260408083206001600160a01b0385168085529252808320805460ff1916905551339285917ff6391f5c32d9c69d2a47ea670b442974b53935d1edc7fd64eb21e047a839171b9190a45050565b6106f782826110f9565b6111f68282610b2c565b6106f75761120381610f37565b61120e836020610f49565b60405160200161121f9291906116ba565b60408051601f198184030181529082905262461bcd60e51b82526105449160040161172f565b82805461125190611639565b90600052602060002090601f01602090048101928261127357600085556112b9565b82601f1061128c57805160ff19168380011785556112b9565b828001600101855582156112b9579182015b828111156112b957825182559160200191906001019061129e565b50610e279291506112fb565b5080546112d190611639565b6000825580601f106112e1575050565b601f0160209004906000526020600020908101906110f691905b5b80821115610e2757600081556001016112fc565b60006020828403121561132257600080fd5b81356001600160e01b0319811681146110e557600080fd5b60006020828403121561134c57600080fd5b5035919050565b80356001600160a01b038116811461136a57600080fd5b919050565b6000806040838503121561138257600080fd5b61138b83611353565b946020939093013593505050565b6000602082840312156113ab57600080fd5b6110e582611353565b600080604083850312156113c757600080fd5b823591506113d760208401611353565b90509250929050565b600080604083850312156113f357600080fd5b6113fc83611353565b91506113d760208401611353565b634e487b7160e01b600052604160045260246000fd5b60008060006060848603121561143557600080fd5b61143e84611353565b925061144c60208501611353565b9150604084013567ffffffffffffffff8082111561146957600080fd5b818601915086601f83011261147d57600080fd5b81358181111561148f5761148f61140a565b604051601f8201601f19908116603f011681019083821181831017156114b7576114b761140a565b816040528281528960208487010111156114d057600080fd5b8260208601602083013760006020848301015280955050505050509250925092565b60005b8381101561150d5781810151838201526020016114f5565b8381111561151c576000848401525b50505050565b6000815180845261153a8160208601602086016114f2565b601f01601f19169290920160200192915050565b60208152600060018060a01b038084511660208401528060208501511660408401525060408301516060808401526115896080840182611522565b949350505050565b634e487b7160e01b600052601160045260246000fd5b600082198211156115ba576115ba611591565b500190565b6020808252601190820152702ca7aa9020a922902727aa1020a226a4a760791b604082015260600190565b6000602082840312156115fc57600080fd5b815180151581146110e557600080fd5b60008282101561161e5761161e611591565b500390565b634e487b7160e01b600052603260045260246000fd5b600181811c9082168061164d57607f821691505b60208210811415610a3c57634e487b7160e01b600052602260045260246000fd5b634e487b7160e01b600052603160045260246000fd5b600081600019048311821515161561169e5761169e611591565b500290565b6000816116b2576116b2611591565b506000190190565b7f416363657373436f6e74726f6c3a206163636f756e74200000000000000000008152600083516116f28160178501602088016114f2565b7001034b99036b4b9b9b4b733903937b6329607d1b60179184019182015283516117238160288401602088016114f2565b01602801949350505050565b6020815260006110e5602083018461152256fef0887ba65ee2024ea881d91b74c2450ef19e1557f03bed3ea9f16b037cbe2dc9e0d26dd3554a167bd2b70cb1d833d6b1199f8bd315f72e7901acc10196002e10a2646970667358221220272bb945698b69ded0fbcc84148b12702edf9be97714ed0b1e4355d365c6765164736f6c63430008090033ad3228b676f7d3cd4284a5443f17f1962b36e491b30a40b2405849e597ba5fb5",
  "linkReferences": {
    "contracts/utils/Util.sol": {
      "Util": [
        {
          "length": 20,
          "start": 1159
        },
        {
          "length": 20,
          "start": 6935
        },
        {
          "length": 20,
          "start": 27889
        },
        {
          "length": 20,
          "start": 31047
        }
      ]
    }
  },
  "deployedLinkReferences": {
    "contracts/utils/Util.sol": {
      "Util": [
        {
          "length": 20,
          "start": 3944
        }
      ]
    }
  }
}