{
  "_format": "hh-sol-artifact-1",
  "contractName": "NFTImplementation",
  "sourceName": "contracts/NFTImplementation.sol",
  "abi": [
    {
      "inputs": [
        {
          "internalType": "address",
          "name": "minter",
          "type": "address"
        }
      ],
      "stateMutability": "nonpayable",
      "type": "constructor"
    },
    {
      "anonymous": false,
      "inputs": [
        {
          "indexed": false,
          "internalType": "address",
          "name": "user",
          "type": "address"
        }
      ],
      "name": "AddMinter",
      "type": "event"
    },
    {
      "anonymous": false,
      "inputs": [
        {
          "indexed": true,
          "internalType": "address",
          "name": "owner",
          "type": "address"
        },
        {
          "indexed": true,
          "internalType": "address",
          "name": "approved",
          "type": "address"
        },
        {
          "indexed": true,
          "internalType": "uint256",
          "name": "tokenId",
          "type": "uint256"
        }
      ],
      "name": "Approval",
      "type": "event"
    },
    {
      "anonymous": false,
      "inputs": [
        {
          "indexed": true,
          "internalType": "address",
          "name": "owner",
          "type": "address"
        },
        {
          "indexed": true,
          "internalType": "address",
          "name": "operator",
          "type": "address"
        },
        {
          "indexed": false,
          "internalType": "bool",
          "name": "approved",
          "type": "bool"
        }
      ],
      "name": "ApprovalForAll",
      "type": "event"
    },
    {
      "anonymous": false,
      "inputs": [
        {
          "indexed": false,
          "internalType": "address",
          "name": "user",
          "type": "address"
        },
        {
          "indexed": false,
          "internalType": "uint256",
          "name": "tokenId",
          "type": "uint256"
        }
      ],
      "name": "Burn",
      "type": "event"
    },
    {
      "anonymous": false,
      "inputs": [
        {
          "indexed": false,
          "internalType": "address",
          "name": "owner",
          "type": "address"
        },
        {
          "indexed": false,
          "internalType": "uint256",
          "name": "tokenID",
          "type": "uint256"
        },
        {
          "indexed": false,
          "internalType": "uint256",
          "name": "timestamp",
          "type": "uint256"
        }
      ],
      "name": "Burned",
      "type": "event"
    },
    {
      "anonymous": false,
      "inputs": [
        {
          "indexed": false,
          "internalType": "address",
          "name": "user",
          "type": "address"
        }
      ],
      "name": "ChangeOwner",
      "type": "event"
    },
    {
      "anonymous": false,
      "inputs": [
        {
          "indexed": false,
          "internalType": "address",
          "name": "pendingQueue",
          "type": "address"
        },
        {
          "indexed": false,
          "internalType": "address",
          "name": "marketPlace",
          "type": "address"
        },
        {
          "indexed": false,
          "internalType": "address",
          "name": "governance",
          "type": "address"
        }
      ],
      "name": "CoreInitialize",
      "type": "event"
    },
    {
      "anonymous": false,
      "inputs": [
        {
          "indexed": false,
          "internalType": "address",
          "name": "minter",
          "type": "address"
        },
        {
          "indexed": false,
          "internalType": "address",
          "name": "burner",
          "type": "address"
        }
      ],
      "name": "InitializePermission",
      "type": "event"
    },
    {
      "anonymous": false,
      "inputs": [
        {
          "indexed": false,
          "internalType": "address",
          "name": "user",
          "type": "address"
        },
        {
          "indexed": false,
          "internalType": "uint256",
          "name": "tokenId",
          "type": "uint256"
        }
      ],
      "name": "Mint",
      "type": "event"
    },
    {
      "anonymous": false,
      "inputs": [
        {
          "indexed": false,
          "internalType": "address",
          "name": "user",
          "type": "address"
        }
      ],
      "name": "RemoveMinter",
      "type": "event"
    },
    {
      "anonymous": false,
      "inputs": [
        {
          "indexed": false,
          "internalType": "address",
          "name": "user",
          "type": "address"
        },
        {
          "indexed": false,
          "internalType": "uint256",
          "name": "tokenId",
          "type": "uint256"
        }
      ],
      "name": "RequestPending",
      "type": "event"
    },
    {
      "anonymous": false,
      "inputs": [
        {
          "indexed": true,
          "internalType": "bytes32",
          "name": "role",
          "type": "bytes32"
        },
        {
          "indexed": true,
          "internalType": "bytes32",
          "name": "previousAdminRole",
          "type": "bytes32"
        },
        {
          "indexed": true,
          "internalType": "bytes32",
          "name": "newAdminRole",
          "type": "bytes32"
        }
      ],
      "name": "RoleAdminChanged",
      "type": "event"
    },
    {
      "anonymous": false,
      "inputs": [
        {
          "indexed": true,
          "internalType": "bytes32",
          "name": "role",
          "type": "bytes32"
        },
        {
          "indexed": true,
          "internalType": "address",
          "name": "account",
          "type": "address"
        },
        {
          "indexed": true,
          "internalType": "address",
          "name": "sender",
          "type": "address"
        }
      ],
      "name": "RoleGranted",
      "type": "event"
    },
    {
      "anonymous": false,
      "inputs": [
        {
          "indexed": true,
          "internalType": "bytes32",
          "name": "role",
          "type": "bytes32"
        },
        {
          "indexed": true,
          "internalType": "address",
          "name": "account",
          "type": "address"
        },
        {
          "indexed": true,
          "internalType": "address",
          "name": "sender",
          "type": "address"
        }
      ],
      "name": "RoleRevoked",
      "type": "event"
    },
    {
      "anonymous": false,
      "inputs": [
        {
          "indexed": true,
          "internalType": "address",
          "name": "from",
          "type": "address"
        },
        {
          "indexed": true,
          "internalType": "address",
          "name": "to",
          "type": "address"
        },
        {
          "indexed": true,
          "internalType": "uint256",
          "name": "tokenId",
          "type": "uint256"
        }
      ],
      "name": "Transfer",
      "type": "event"
    },
    {
      "inputs": [],
      "name": "ALLOW_ROLE",
      "outputs": [
        {
          "internalType": "bytes32",
          "name": "",
          "type": "bytes32"
        }
      ],
      "stateMutability": "view",
      "type": "function"
    },
    {
      "inputs": [],
      "name": "BURNER_ROLE",
      "outputs": [
        {
          "internalType": "bytes32",
          "name": "",
          "type": "bytes32"
        }
      ],
      "stateMutability": "view",
      "type": "function"
    },
    {
      "inputs": [],
      "name": "BURNING_PERIOD",
      "outputs": [
        {
          "internalType": "uint256",
          "name": "",
          "type": "uint256"
        }
      ],
      "stateMutability": "view",
      "type": "function"
    },
    {
      "inputs": [],
      "name": "DEFAULT_ADMIN_ROLE",
      "outputs": [
        {
          "internalType": "bytes32",
          "name": "",
          "type": "bytes32"
        }
      ],
      "stateMutability": "view",
      "type": "function"
    },
    {
      "inputs": [],
      "name": "MAXIMUM_TOKEN_ID",
      "outputs": [
        {
          "internalType": "uint256",
          "name": "",
          "type": "uint256"
        }
      ],
      "stateMutability": "view",
      "type": "function"
    },
    {
      "inputs": [],
      "name": "MINTER_ROLE",
      "outputs": [
        {
          "internalType": "bytes32",
          "name": "",
          "type": "bytes32"
        }
      ],
      "stateMutability": "view",
      "type": "function"
    },
    {
      "inputs": [],
      "name": "acceptRequest",
      "outputs": [
        {
          "internalType": "uint256",
          "name": "",
          "type": "uint256"
        }
      ],
      "stateMutability": "nonpayable",
      "type": "function"
    },
    {
      "inputs": [
        {
          "internalType": "address",
          "name": "contr",
          "type": "address"
        }
      ],
      "name": "addAllowedContract",
      "outputs": [],
      "stateMutability": "nonpayable",
      "type": "function"
    },
    {
      "inputs": [
        {
          "internalType": "address",
          "name": "minter",
          "type": "address"
        }
      ],
      "name": "addMinter",
      "outputs": [],
      "stateMutability": "nonpayable",
      "type": "function"
    },
    {
      "inputs": [
        {
          "internalType": "uint256",
          "name": "marketID",
          "type": "uint256"
        },
        {
          "internalType": "uint256",
          "name": "tokenID",
          "type": "uint256"
        },
        {
          "internalType": "uint256",
          "name": "cost",
          "type": "uint256"
        }
      ],
      "name": "applyItem",
      "outputs": [
        {
          "internalType": "bool",
          "name": "",
          "type": "bool"
        }
      ],
      "stateMutability": "nonpayable",
      "type": "function"
    },
    {
      "inputs": [
        {
          "internalType": "address",
          "name": "to",
          "type": "address"
        },
        {
          "internalType": "uint256",
          "name": "tokenId",
          "type": "uint256"
        }
      ],
      "name": "approve",
      "outputs": [],
      "stateMutability": "nonpayable",
      "type": "function"
    },
    {
      "inputs": [
        {
          "internalType": "address",
          "name": "owner",
          "type": "address"
        }
      ],
      "name": "balanceOf",
      "outputs": [
        {
          "internalType": "uint256",
          "name": "",
          "type": "uint256"
        }
      ],
      "stateMutability": "view",
      "type": "function"
    },
    {
      "inputs": [
        {
          "internalType": "uint256",
          "name": "tokenId",
          "type": "uint256"
        }
      ],
      "name": "burningByAdmin",
      "outputs": [
        {
          "internalType": "bool",
          "name": "",
          "type": "bool"
        }
      ],
      "stateMutability": "nonpayable",
      "type": "function"
    },
    {
      "inputs": [
        {
          "internalType": "uint256",
          "name": "",
          "type": "uint256"
        }
      ],
      "name": "burningPeriod",
      "outputs": [
        {
          "internalType": "uint256",
          "name": "",
          "type": "uint256"
        }
      ],
      "stateMutability": "view",
      "type": "function"
    },
    {
      "inputs": [
        {
          "internalType": "uint256",
          "name": "marketID",
          "type": "uint256"
        },
        {
          "internalType": "uint256",
          "name": "tokenID",
          "type": "uint256"
        },
        {
          "internalType": "uint256",
          "name": "newCost",
          "type": "uint256"
        }
      ],
      "name": "changeItemCost",
      "outputs": [
        {
          "internalType": "bool",
          "name": "",
          "type": "bool"
        }
      ],
      "stateMutability": "nonpayable",
      "type": "function"
    },
    {
      "inputs": [
        {
          "internalType": "address",
          "name": "user",
          "type": "address"
        }
      ],
      "name": "changeOwner",
      "outputs": [],
      "stateMutability": "nonpayable",
      "type": "function"
    },
    {
      "inputs": [],
      "name": "currentTokenID",
      "outputs": [
        {
          "internalType": "uint256",
          "name": "_value",
          "type": "uint256"
        }
      ],
      "stateMutability": "view",
      "type": "function"
    },
    {
      "inputs": [
        {
          "internalType": "uint256",
          "name": "marketID",
          "type": "uint256"
        },
        {
          "internalType": "uint256",
          "name": "tokenID",
          "type": "uint256"
        }
      ],
      "name": "deleteItem",
      "outputs": [
        {
          "internalType": "bool",
          "name": "",
          "type": "bool"
        }
      ],
      "stateMutability": "nonpayable",
      "type": "function"
    },
    {
      "inputs": [],
      "name": "depositPool",
      "outputs": [
        {
          "internalType": "contract IDepositPool",
          "name": "",
          "type": "address"
        }
      ],
      "stateMutability": "view",
      "type": "function"
    },
    {
      "inputs": [
        {
          "internalType": "uint256",
          "name": "amount",
          "type": "uint256"
        }
      ],
      "name": "depositToMarket",
      "outputs": [],
      "stateMutability": "nonpayable",
      "type": "function"
    },
    {
      "inputs": [
        {
          "internalType": "uint256",
          "name": "marketID",
          "type": "uint256"
        },
        {
          "internalType": "uint256",
          "name": "tokenID",
          "type": "uint256"
        }
      ],
      "name": "endAuction",
      "outputs": [],
      "stateMutability": "nonpayable",
      "type": "function"
    },
    {
      "inputs": [
        {
          "internalType": "uint256",
          "name": "tokenId",
          "type": "uint256"
        }
      ],
      "name": "getApproved",
      "outputs": [
        {
          "internalType": "address",
          "name": "",
          "type": "address"
        }
      ],
      "stateMutability": "view",
      "type": "function"
    },
    {
      "inputs": [],
      "name": "getOwner",
      "outputs": [
        {
          "internalType": "address",
          "name": "",
          "type": "address"
        }
      ],
      "stateMutability": "view",
      "type": "function"
    },
    {
      "inputs": [
        {
          "internalType": "bytes32",
          "name": "role",
          "type": "bytes32"
        }
      ],
      "name": "getRoleAdmin",
      "outputs": [
        {
          "internalType": "bytes32",
          "name": "",
          "type": "bytes32"
        }
      ],
      "stateMutability": "view",
      "type": "function"
    },
    {
      "inputs": [],
      "name": "getUserTokenList",
      "outputs": [
        {
          "components": [
            {
              "internalType": "uint256",
              "name": "unique_id",
              "type": "uint256"
            },
            {
              "internalType": "string",
              "name": "title",
              "type": "string"
            },
            {
              "internalType": "string",
              "name": "contentURI",
              "type": "string"
            }
          ],
          "internalType": "struct DataTypes.MetaData[]",
          "name": "",
          "type": "tuple[]"
        }
      ],
      "stateMutability": "view",
      "type": "function"
    },
    {
      "inputs": [],
      "name": "governance",
      "outputs": [
        {
          "internalType": "contract Governance",
          "name": "",
          "type": "address"
        }
      ],
      "stateMutability": "view",
      "type": "function"
    },
    {
      "inputs": [
        {
          "internalType": "bytes32",
          "name": "role",
          "type": "bytes32"
        },
        {
          "internalType": "address",
          "name": "account",
          "type": "address"
        }
      ],
      "name": "grantRole",
      "outputs": [],
      "stateMutability": "nonpayable",
      "type": "function"
    },
    {
      "inputs": [
        {
          "internalType": "bytes32",
          "name": "role",
          "type": "bytes32"
        },
        {
          "internalType": "address",
          "name": "account",
          "type": "address"
        }
      ],
      "name": "hasRole",
      "outputs": [
        {
          "internalType": "bool",
          "name": "",
          "type": "bool"
        }
      ],
      "stateMutability": "view",
      "type": "function"
    },
    {
      "inputs": [
        {
          "internalType": "address",
          "name": "minter",
          "type": "address"
        },
        {
          "internalType": "address",
          "name": "burner",
          "type": "address"
        }
      ],
      "name": "initializePermission",
      "outputs": [],
      "stateMutability": "nonpayable",
      "type": "function"
    },
    {
      "inputs": [
        {
          "internalType": "address",
          "name": "owner",
          "type": "address"
        },
        {
          "internalType": "address",
          "name": "operator",
          "type": "address"
        }
      ],
      "name": "isApprovedForAll",
      "outputs": [
        {
          "internalType": "bool",
          "name": "",
          "type": "bool"
        }
      ],
      "stateMutability": "view",
      "type": "function"
    },
    {
      "inputs": [
        {
          "internalType": "address",
          "name": "user",
          "type": "address"
        },
        {
          "internalType": "uint256",
          "name": "tokenID",
          "type": "uint256"
        }
      ],
      "name": "isExists",
      "outputs": [
        {
          "internalType": "bool",
          "name": "",
          "type": "bool"
        }
      ],
      "stateMutability": "view",
      "type": "function"
    },
    {
      "inputs": [],
      "name": "marketPlace",
      "outputs": [
        {
          "internalType": "contract MarketPlace",
          "name": "",
          "type": "address"
        }
      ],
      "stateMutability": "view",
      "type": "function"
    },
    {
      "inputs": [
        {
          "internalType": "address",
          "name": "",
          "type": "address"
        }
      ],
      "name": "metadata",
      "outputs": [
        {
          "internalType": "address",
          "name": "owner",
          "type": "address"
        }
      ],
      "stateMutability": "view",
      "type": "function"
    },
    {
      "inputs": [
        {
          "components": [
            {
              "internalType": "uint256",
              "name": "unique_id",
              "type": "uint256"
            },
            {
              "internalType": "string",
              "name": "title",
              "type": "string"
            },
            {
              "internalType": "string",
              "name": "contentURI",
              "type": "string"
            }
          ],
          "internalType": "struct DataTypes.MetaData",
          "name": "data",
          "type": "tuple"
        }
      ],
      "name": "mint",
      "outputs": [
        {
          "internalType": "bool",
          "name": "",
          "type": "bool"
        }
      ],
      "stateMutability": "payable",
      "type": "function"
    },
    {
      "inputs": [],
      "name": "name",
      "outputs": [
        {
          "internalType": "string",
          "name": "",
          "type": "string"
        }
      ],
      "stateMutability": "view",
      "type": "function"
    },
    {
      "inputs": [
        {
          "internalType": "uint256",
          "name": "tokenId",
          "type": "uint256"
        }
      ],
      "name": "ownerOf",
      "outputs": [
        {
          "internalType": "address",
          "name": "",
          "type": "address"
        }
      ],
      "stateMutability": "view",
      "type": "function"
    },
    {
      "inputs": [],
      "name": "pdQueueCon",
      "outputs": [
        {
          "internalType": "contract PendingQueue",
          "name": "",
          "type": "address"
        }
      ],
      "stateMutability": "view",
      "type": "function"
    },
    {
      "inputs": [
        {
          "internalType": "uint256",
          "name": "marketID",
          "type": "uint256"
        },
        {
          "internalType": "uint256",
          "name": "tokenID",
          "type": "uint256"
        }
      ],
      "name": "purchaseItem",
      "outputs": [
        {
          "internalType": "bool",
          "name": "",
          "type": "bool"
        }
      ],
      "stateMutability": "payable",
      "type": "function"
    },
    {
      "inputs": [
        {
          "internalType": "address",
          "name": "minter",
          "type": "address"
        }
      ],
      "name": "removeMinter",
      "outputs": [],
      "stateMutability": "nonpayable",
      "type": "function"
    },
    {
      "inputs": [
        {
          "internalType": "bytes32",
          "name": "role",
          "type": "bytes32"
        },
        {
          "internalType": "address",
          "name": "account",
          "type": "address"
        }
      ],
      "name": "renounceRole",
      "outputs": [],
      "stateMutability": "nonpayable",
      "type": "function"
    },
    {
      "inputs": [
        {
          "internalType": "uint256",
          "name": "token_id",
          "type": "uint256"
        }
      ],
      "name": "requestBurning",
      "outputs": [
        {
          "internalType": "bool",
          "name": "",
          "type": "bool"
        }
      ],
      "stateMutability": "nonpayable",
      "type": "function"
    },
    {
      "inputs": [
        {
          "internalType": "address",
          "name": "user",
          "type": "address"
        },
        {
          "internalType": "uint256",
          "name": "tokenId",
          "type": "uint256"
        }
      ],
      "name": "restoreMetadata",
      "outputs": [
        {
          "internalType": "bool",
          "name": "",
          "type": "bool"
        }
      ],
      "stateMutability": "nonpayable",
      "type": "function"
    },
    {
      "inputs": [
        {
          "internalType": "bytes32",
          "name": "role",
          "type": "bytes32"
        },
        {
          "internalType": "address",
          "name": "account",
          "type": "address"
        }
      ],
      "name": "revokeRole",
      "outputs": [],
      "stateMutability": "nonpayable",
      "type": "function"
    },
    {
      "inputs": [
        {
          "internalType": "address",
          "name": "from",
          "type": "address"
        },
        {
          "internalType": "address",
          "name": "to",
          "type": "address"
        },
        {
          "internalType": "uint256",
          "name": "tokenId",
          "type": "uint256"
        }
      ],
      "name": "safeTransferFrom",
      "outputs": [],
      "stateMutability": "nonpayable",
      "type": "function"
    },
    {
      "inputs": [
        {
          "internalType": "address",
          "name": "from",
          "type": "address"
        },
        {
          "internalType": "address",
          "name": "to",
          "type": "address"
        },
        {
          "internalType": "uint256",
          "name": "tokenId",
          "type": "uint256"
        },
        {
          "internalType": "bytes",
          "name": "data",
          "type": "bytes"
        }
      ],
      "name": "safeTransferFrom",
      "outputs": [],
      "stateMutability": "nonpayable",
      "type": "function"
    },
    {
      "inputs": [
        {
          "internalType": "address",
          "name": "operator",
          "type": "address"
        },
        {
          "internalType": "bool",
          "name": "approved",
          "type": "bool"
        }
      ],
      "name": "setApprovalForAll",
      "outputs": [],
      "stateMutability": "nonpayable",
      "type": "function"
    },
    {
      "inputs": [
        {
          "internalType": "address",
          "name": "depositPoolAddress",
          "type": "address"
        }
      ],
      "name": "setDepositPool",
      "outputs": [],
      "stateMutability": "nonpayable",
      "type": "function"
    },
    {
      "inputs": [
        {
          "internalType": "uint256",
          "name": "marketID",
          "type": "uint256"
        },
        {
          "internalType": "uint256",
          "name": "tokenID",
          "type": "uint256"
        },
        {
          "internalType": "uint256",
          "name": "startCost",
          "type": "uint256"
        }
      ],
      "name": "startAuction",
      "outputs": [],
      "stateMutability": "nonpayable",
      "type": "function"
    },
    {
      "inputs": [
        {
          "internalType": "uint256",
          "name": "marketID",
          "type": "uint256"
        },
        {
          "internalType": "uint256",
          "name": "tokenID",
          "type": "uint256"
        },
        {
          "internalType": "uint256",
          "name": "suggestCost",
          "type": "uint256"
        }
      ],
      "name": "suggestToAuction",
      "outputs": [
        {
          "internalType": "bool",
          "name": "",
          "type": "bool"
        }
      ],
      "stateMutability": "nonpayable",
      "type": "function"
    },
    {
      "inputs": [
        {
          "internalType": "bytes4",
          "name": "interfaceId",
          "type": "bytes4"
        }
      ],
      "name": "supportsInterface",
      "outputs": [
        {
          "internalType": "bool",
          "name": "",
          "type": "bool"
        }
      ],
      "stateMutability": "view",
      "type": "function"
    },
    {
      "inputs": [],
      "name": "symbol",
      "outputs": [
        {
          "internalType": "string",
          "name": "",
          "type": "string"
        }
      ],
      "stateMutability": "view",
      "type": "function"
    },
    {
      "inputs": [],
      "name": "terminate",
      "outputs": [],
      "stateMutability": "payable",
      "type": "function"
    },
    {
      "inputs": [
        {
          "internalType": "uint256",
          "name": "tokenId",
          "type": "uint256"
        }
      ],
      "name": "tokenURI",
      "outputs": [
        {
          "internalType": "string",
          "name": "",
          "type": "string"
        }
      ],
      "stateMutability": "view",
      "type": "function"
    },
    {
      "inputs": [
        {
          "internalType": "address",
          "name": "user",
          "type": "address"
        },
        {
          "internalType": "uint256",
          "name": "tokenID",
          "type": "uint256"
        }
      ],
      "name": "transferForMarket",
      "outputs": [],
      "stateMutability": "nonpayable",
      "type": "function"
    },
    {
      "inputs": [
        {
          "internalType": "address",
          "name": "from",
          "type": "address"
        },
        {
          "internalType": "address",
          "name": "to",
          "type": "address"
        },
        {
          "internalType": "uint256",
          "name": "tokenId",
          "type": "uint256"
        }
      ],
      "name": "transferFrom",
      "outputs": [],
      "stateMutability": "nonpayable",
      "type": "function"
    },
    {
      "inputs": [
        {
          "internalType": "address",
          "name": "user",
          "type": "address"
        },
        {
          "internalType": "uint256",
          "name": "token_id",
          "type": "uint256"
        }
      ],
      "name": "transferOwnership",
      "outputs": [
        {
          "internalType": "bool",
          "name": "",
          "type": "bool"
        }
      ],
      "stateMutability": "nonpayable",
      "type": "function"
    },
    {
      "inputs": [
        {
          "internalType": "uint256",
          "name": "amount",
          "type": "uint256"
        }
      ],
      "name": "withdrawFromMarket",
      "outputs": [],
      "stateMutability": "nonpayable",
      "type": "function"
    }
  ],
  "bytecode": "0x60806040523480156200001157600080fd5b5060405162009dc838038062009dc8833981016040819052620000349162000999565b604080518082018252600681526513dd5c93919560d21b60208083019182528351808501909452600484526313d3919560e21b9084015281519192916200007e91600291620008c9565b50805162000094906003906020840190620008c9565b5050600880546001600160a01b03191633908117909155604051839250620000bc9062000958565b604051809103906000f080158015620000d9573d6000803e3d6000fd5b50600c80546001600160a01b0319166001600160a01b0392909216919091179055604051620001089062000966565b604051809103906000f08015801562000125573d6000803e3d6000fd5b50600d60006101000a8154816001600160a01b0302191690836001600160a01b0316021790555033306040516200015c9062000974565b6001600160a01b03928316815291166020820152604001604051809103906000f08015801562000190573d6000803e3d6000fd5b50600e80546001600160a01b0319166001600160a01b0392909216919091179055620001bd828262000289565b600d54604051630915a2d160e31b81523360048201526001600160a01b03909116906348ad168890602401600060405180830381600087803b1580156200020357600080fd5b505af115801562000218573d6000803e3d6000fd5b505050506200022c6200034760201b60201c565b600c54600d54600e54604080516001600160a01b039485168152928416602084015292168183015290517f8ddf8c237baa84c441ac75c5a736939823daf979eca058e4d519cbf173b58d1e9181900360600190a150505062000b9f565b62000296600033620003f6565b620002c27ff0887ba65ee2024ea881d91b74c2450ef19e1557f03bed3ea9f16b037cbe2dc983620003f6565b620002ee7f9667e80708b6eeeb0053fa0cca44e028ff548e2a9f029edfeac87c118b08b7c882620003f6565b600180546001600160a01b03191633179055604080516001600160a01b038481168252831660208201527f0592891029eec9a40bd8c563a4be4b0066d222037d3fa6ad82aa424f0e6023e1910160405180910390a15050565b33600081815260008051602062009da8833981519152602052604090205460ff16620003ae5760405162461bcd60e51b81526020600482015260116024820152702ca7aa9020a922902727aa1020a226a4a760791b60448201526064015b60405180910390fd5b600c54620003c5906001600160a01b031662000406565b600d54620003dc906001600160a01b031662000406565b600e54620003f3906001600160a01b031662000406565b50565b62000402828262000587565b5050565b33600081815260008051602062009da8833981519152602052604090205460ff16620004695760405162461bcd60e51b81526020600482015260116024820152702ca7aa9020a922902727aa1020a226a4a760791b6044820152606401620003a5565b604051631627905560e01b81526001600160a01b038316600482015273__$4257bb7bc16854cc4c83a0a74a7503d5fb$__9063162790559060240160206040518083038186803b158015620004bd57600080fd5b505af4158015620004d2573d6000803e3d6000fd5b505050506040513d601f19601f82011682018060405250810190620004f89190620009c4565b6200055b5760405162461bcd60e51b815260206004820152602c60248201527f506172616d65746572206d75737420626520436f6e747261637420616464726560448201526b39b996103737ba103ab9b2b960a11b6064820152608401620003a5565b620004027fe0d26dd3554a167bd2b70cb1d833d6b1199f8bd315f72e7901acc10196002e108362000627565b6000828152602081815260408083206001600160a01b038516845290915290205460ff1662000402576000828152602081815260408083206001600160a01b03851684529091529020805460ff19166001179055620005e33390565b6001600160a01b0316816001600160a01b0316837f2f8788117e7eff1d82e926ec794901d17c78024a50270940304540a733656f0d60405160405180910390a45050565b600082815260208190526040902060010154620006448162000655565b62000650838362000587565b505050565b620003f381336000828152602081815260408083206001600160a01b038516845290915290205460ff1662000402576200069a81620006eb60201b620028a51760201c565b620006b0836020620028b762000709821b17811c565b604051602001620006c392919062000a1b565b60408051601f198184030181529082905262461bcd60e51b8252620003a59160040162000a94565b6060620007036001600160a01b038316601462000709565b92915050565b606060006200071a83600262000adf565b6200072790600262000b01565b6001600160401b0381111562000741576200074162000b1c565b6040519080825280601f01601f1916602001820160405280156200076c576020820181803683370190505b509050600360fc1b816000815181106200078a576200078a62000b32565b60200101906001600160f81b031916908160001a905350600f60fb1b81600181518110620007bc57620007bc62000b32565b60200101906001600160f81b031916908160001a9053506000620007e284600262000adf565b620007ef90600162000b01565b90505b600181111562000871576f181899199a1a9b1b9c1cb0b131b232b360811b85600f166010811062000827576200082762000b32565b1a60f81b82828151811062000840576200084062000b32565b60200101906001600160f81b031916908160001a90535060049490941c93620008698162000b48565b9050620007f2565b508315620008c25760405162461bcd60e51b815260206004820181905260248201527f537472696e67733a20686578206c656e67746820696e73756666696369656e746044820152606401620003a5565b9392505050565b828054620008d79062000b62565b90600052602060002090601f016020900481019282620008fb576000855562000946565b82601f106200091657805160ff191683800117855562000946565b8280016001018555821562000946579182015b828111156200094657825182559160200191906001019062000929565b506200095492915062000982565b5090565b61151b80620050e083390190565b611ab380620065fb83390190565b611cfa80620080ae83390190565b5b8082111562000954576000815560010162000983565b600060208284031215620009ac57600080fd5b81516001600160a01b0381168114620008c257600080fd5b600060208284031215620009d757600080fd5b81518015158114620008c257600080fd5b60005b8381101562000a05578181015183820152602001620009eb565b8381111562000a15576000848401525b50505050565b7f416363657373436f6e74726f6c3a206163636f756e742000000000000000000081526000835162000a55816017850160208801620009e8565b7001034b99036b4b9b9b4b733903937b6329607d1b601791840191820152835162000a88816028840160208801620009e8565b01602801949350505050565b602081526000825180602084015262000ab5816040850160208701620009e8565b601f01601f19169190910160400192915050565b634e487b7160e01b600052601160045260246000fd5b600081600019048311821515161562000afc5762000afc62000ac9565b500290565b6000821982111562000b175762000b1762000ac9565b500190565b634e487b7160e01b600052604160045260246000fd5b634e487b7160e01b600052603260045260246000fd5b60008162000b5a5762000b5a62000ac9565b506000190190565b600181811c9082168062000b7757607f821691505b6020821081141562000b9957634e487b7160e01b600052602260045260246000fd5b50919050565b6145318062000baf6000396000f3fe6080604052600436106103755760003560e01c8063893d20e8116101d1578063bb62115e11610102578063d8ef5385116100a0578063e985e9c51161006f578063e985e9c514610a7f578063ecd6aac614610ac8578063f6c982f914610add578063fc024f3714610b0a57600080fd5b8063d8ef538514610a05578063df1d0acb14610a25578063df52cfb414610a59578063e067569814610a6c57600080fd5b8063ce26695b116100dc578063ce26695b14610983578063d5391393146109a3578063d547741f146109c5578063d7c4671c146109e557600080fd5b8063bb62115e1461092c578063c569fb3614610943578063c87b56dd1461096357600080fd5b8063a217fddf1161016f578063a6f9dae111610149578063a6f9dae11461087a578063acd983401461089a578063b88d4fde146108bc578063badf08eb146108dc57600080fd5b8063a217fddf14610825578063a22cb4651461083a578063a3e5d3311461085a57600080fd5b806395d89b41116101ab57806395d89b41146107b9578063983b2d56146107ce5780639b9aeb49146107ee578063a0cf2f391461080557600080fd5b8063893d20e81461075b57806391d148541461077957806391e078bb1461079957600080fd5b80632e25d2a6116102ab5780634b4e4c3a116102495780636352211e116102235780636352211e146106db57806367d2b78f146106fb57806370a082311461071b57806384ab6e621461073b57600080fd5b80634b4e4c3a1461067b5780635aa6e6751461069b578063618a7e1d146106bb57600080fd5b806336568abe1161028557806336568abe146105fb57806342842e0e1461061b57806344bd1f651461063b57806347afe4371461065b57600080fd5b80632e25d2a61461059b5780632f2ff15d146105bb5780633092afd5146105db57600080fd5b806323b872dd11610318578063282c51f3116102f2578063282c51f3146104f15780632a343709146105255780632ba21572146105455780632c56462f1461057b57600080fd5b806323b872dd14610473578063248a9ca314610493578063256be439146104d157600080fd5b8063081812fc11610354578063081812fc146103f1578063095ea7b3146104295780630a2766801461044b5780630c08bf881461046b57600080fd5b80627ed3861461037a57806301ffc9a7146103af57806306fdde03146103cf575b600080fd5b34801561038657600080fd5b5061039a610395366004613904565b610b20565b60405190151581526020015b60405180910390f35b3480156103bb57600080fd5b5061039a6103ca366004613946565b610bb1565b3480156103db57600080fd5b506103e4610bc2565b6040516103a691906139bb565b3480156103fd57600080fd5b5061041161040c3660046139ce565b610c54565b6040516001600160a01b0390911681526020016103a6565b34801561043557600080fd5b506104496104443660046139fc565b610c7b565b005b34801561045757600080fd5b5061039a6104663660046139fc565b610d96565b610449611006565b34801561047f57600080fd5b5061044961048e366004613a28565b611014565b34801561049f57600080fd5b506104c36104ae3660046139ce565b60009081526020819052604090206001015490565b6040519081526020016103a6565b3480156104dd57600080fd5b506104496104ec3660046139ce565b611045565b3480156104fd57600080fd5b506104c37f9667e80708b6eeeb0053fa0cca44e028ff548e2a9f029edfeac87c118b08b7c881565b34801561053157600080fd5b50600f54610411906001600160a01b031681565b34801561055157600080fd5b50610411610560366004613a69565b600b602052600090815260409020546001600160a01b031681565b34801561058757600080fd5b50610449610596366004613a69565b6110ad565b3480156105a757600080fd5b50600d54610411906001600160a01b031681565b3480156105c757600080fd5b506104496105d6366004613a86565b6111ef565b3480156105e757600080fd5b506104496105f6366004613a69565b611214565b34801561060757600080fd5b50610449610616366004613a86565b611295565b34801561062757600080fd5b50610449610636366004613a28565b61130f565b34801561064757600080fd5b5061039a6106563660046139ce565b61132a565b34801561066757600080fd5b50610449610676366004613ab6565b6113c3565b34801561068757600080fd5b50610449610696366004613ad8565b611449565b3480156106a757600080fd5b50600e54610411906001600160a01b031681565b3480156106c757600080fd5b5061039a6106d6366004613ab6565b6114e8565b3480156106e757600080fd5b506104116106f63660046139ce565b611576565b34801561070757600080fd5b5061039a6107163660046139fc565b6115d6565b34801561072757600080fd5b506104c3610736366004613a69565b611835565b34801561074757600080fd5b506104496107563660046139ce565b6118bb565b34801561076757600080fd5b506001546001600160a01b0316610411565b34801561078557600080fd5b5061039a610794366004613a86565b6118f2565b3480156107a557600080fd5b506104496107b4366004613904565b61191b565b3480156107c557600080fd5b506103e4611988565b3480156107da57600080fd5b506104496107e9366004613a69565b611997565b3480156107fa57600080fd5b506104c36203f48081565b34801561081157600080fd5b5061039a610820366004613904565b611a10565b34801561083157600080fd5b506104c3600081565b34801561084657600080fd5b50610449610855366004613b14565b611a47565b34801561086657600080fd5b5061039a610875366004613904565b611a52565b34801561088657600080fd5b50610449610895366004613a69565b611a8c565b3480156108a657600080fd5b506108af611b18565b6040516103a69190613b83565b3480156108c857600080fd5b506104496108d7366004613ca0565b611cb5565b3480156108e857600080fd5b5061039a6108f73660046139fc565b6001600160a01b0382166000908152600b6020908152604080832084845260020190915290205460ff16151560011492915050565b34801561093857600080fd5b506009546104c39081565b34801561094f57600080fd5b5061044961095e366004613a69565b611ced565b34801561096f57600080fd5b506103e461097e3660046139ce565b611d38565b34801561098f57600080fd5b50600c54610411906001600160a01b031681565b3480156109af57600080fd5b506104c36000805160206144dc83398151915281565b3480156109d157600080fd5b506104496109e0366004613a86565b611dab565b3480156109f157600080fd5b5061039a610a003660046139ce565b611dd0565b348015610a1157600080fd5b50610449610a203660046139fc565b6122a2565b348015610a3157600080fd5b506104c37fe0d26dd3554a167bd2b70cb1d833d6b1199f8bd315f72e7901acc10196002e1081565b61039a610a67366004613d4f565b612332565b61039a610a7a366004613ab6565b6125f0565b348015610a8b57600080fd5b5061039a610a9a366004613ad8565b6001600160a01b03918216600090815260076020908152604080832093909416825291909152205460ff1690565b348015610ad457600080fd5b506104c361267a565b348015610ae957600080fd5b506104c3610af83660046139ce565b600a6020526000908152604090205481565b348015610b1657600080fd5b506104c360001981565b600d5460405163acc8fb7d60e01b81526000916001600160a01b03169063acc8fb7d90610b57903390879089908890600401613d8a565b602060405180830381600087803b158015610b7157600080fd5b505af1158015610b85573d6000803e3d6000fd5b505050506040513d601f19601f82011682018060405250810190610ba99190613db0565b949350505050565b6000610bbc82612a53565b92915050565b606060028054610bd190613dcd565b80601f0160208091040260200160405190810160405280929190818152602001828054610bfd90613dcd565b8015610c4a5780601f10610c1f57610100808354040283529160200191610c4a565b820191906000526020600020905b815481529060010190602001808311610c2d57829003601f168201915b5050505050905090565b6000610c5f82612a93565b506000908152600660205260409020546001600160a01b031690565b6000610c8682611576565b9050806001600160a01b0316836001600160a01b03161415610cf95760405162461bcd60e51b815260206004820152602160248201527f4552433732313a20617070726f76616c20746f2063757272656e74206f776e656044820152603960f91b60648201526084015b60405180910390fd5b336001600160a01b0382161480610d155750610d158133610a9a565b610d875760405162461bcd60e51b815260206004820152603d60248201527f4552433732313a20617070726f76652063616c6c6572206973206e6f7420746f60448201527f6b656e206f776e6572206f7220617070726f76656420666f7220616c6c0000006064820152608401610cf0565b610d918383612af5565b505050565b336000908152600b6020526040812081610db08285612b63565b9050600019811415610e045760405162461bcd60e51b815260206004820152601860248201527f546f6b656e20494420646f6573206f6e742065786973747300000000000000006044820152606401610cf0565b33610e0e85611576565b6001600160a01b031614610e565760405162461bcd60e51b815260206004820152600f60248201526e4f574e45525348495020495353554560881b6044820152606401610cf0565b610fbe8585846001018481548110610e7057610e70613e02565b90600052602060002090600302016001018054610e8c90613dcd565b80601f0160208091040260200160405190810160405280929190818152602001828054610eb890613dcd565b8015610f055780601f10610eda57610100808354040283529160200191610f05565b820191906000526020600020905b815481529060010190602001808311610ee857829003601f168201915b5050505050856001018581548110610f1f57610f1f613e02565b90600052602060002090600302016002018054610f3b90613dcd565b80601f0160208091040260200160405190810160405280929190818152602001828054610f6790613dcd565b8015610fb45780601f10610f8957610100808354040283529160200191610fb4565b820191906000526020600020905b815481529060010190602001808311610f9757829003601f168201915b5050505050612bc5565b610fc83385612c92565b610fd28585612e07565b610fe057610fe08585610c7b565b610ffb33868660405180602001604052806000815250612e85565b506001949350505050565b6008546001600160a01b0316ff5b61101e3382612e07565b61103a5760405162461bcd60e51b8152600401610cf090613e18565b610d91838383612eb8565b600d546040516311f9fbc960e21b8152336004820152602481018390526001600160a01b03909116906347e7ef24906044015b600060405180830381600087803b15801561109257600080fd5b505af11580156110a6573d6000803e3d6000fd5b5050505050565b336110b96000826118f2565b6110d55760405162461bcd60e51b8152600401610cf090613e65565b604051631627905560e01b81526001600160a01b038316600482015273__$4257bb7bc16854cc4c83a0a74a7503d5fb$__9063162790559060240160206040518083038186803b15801561112857600080fd5b505af415801561113c573d6000803e3d6000fd5b505050506040513d601f19601f820116820180604052508101906111609190613db0565b6111c15760405162461bcd60e51b815260206004820152602c60248201527f506172616d65746572206d75737420626520436f6e747261637420616464726560448201526b39b996103737ba103ab9b2b960a11b6064820152608401610cf0565b6111eb7fe0d26dd3554a167bd2b70cb1d833d6b1199f8bd315f72e7901acc10196002e10836111ef565b5050565b60008281526020819052604090206001015461120a81613029565b610d918383613033565b336112206000826118f2565b61123c5760405162461bcd60e51b8152600401610cf090613e65565b6112546000805160206144dc83398151915283611295565b6040516001600160a01b03831681527f2f91b591fc56ac0917953ad01ec225524ee5ef0555213e4c8a9d8c9728ee7ffb906020015b60405180910390a15050565b6001600160a01b03811633146113055760405162461bcd60e51b815260206004820152602f60248201527f416363657373436f6e74726f6c3a2063616e206f6e6c792072656e6f756e636560448201526e103937b632b9903337b91039b2b63360891b6064820152608401610cf0565b6111eb82826130b7565b610d9183838360405180602001604052806000815250611cb5565b600c546000906001600160a01b03163381148061135157506001546001600160a01b031633145b6113af5760405162461bcd60e51b815260206004820152602960248201527f41646d696e206f722050656e64696e67205175657565206f6e6c792063616e2060448201526863616c6c207468697360b81b6064820152608401610cf0565b6113b88361311c565b600191505b50919050565b600d54604051630bb3b5cf60e21b81526001600160a01b0390911690632eced73c906113f790339085908790600401613e90565b602060405180830381600087803b15801561141157600080fd5b505af1158015611425573d6000803e3d6000fd5b505050506040513d601f19601f82011682018060405250810190610d919190613db0565b6114546000336131bf565b61146c6000805160206144dc833981519152836131bf565b6114967f9667e80708b6eeeb0053fa0cca44e028ff548e2a9f029edfeac87c118b08b7c8826131bf565b600180546001600160a01b03191633179055604080516001600160a01b038481168252831660208201527f0592891029eec9a40bd8c563a4be4b0066d222037d3fa6ad82aa424f0e6023e19101611289565b600d5460405163e403a32760e01b81526000916001600160a01b03169063e403a3279061151d90339086908890600401613e90565b602060405180830381600087803b15801561153757600080fd5b505af115801561154b573d6000803e3d6000fd5b505050506040513d601f19601f8201168201806040525081019061156f9190613db0565b9392505050565b6000818152600460205260408120546001600160a01b031680610bbc5760405162461bcd60e51b8152602060048201526018602482015277115490cdcc8c4e881a5b9d985b1a59081d1bdad95b88125160421b6044820152606401610cf0565b6000336115e382826118f2565b6115ff5760405162461bcd60e51b8152600401610cf090613e65565b600c54604051634d2ad87b60e01b8152600481018590526000916001600160a01b031690634d2ad87b9060240160206040518083038186803b15801561164457600080fd5b505afa158015611658573d6000803e3d6000fd5b505050506040513d601f19601f8201168201806040525081019061167c9190613eb1565b600c5460405163180caf0d60e31b8152600481018390529192506000916001600160a01b039091169063c065786890602401600060405180830381600087803b1580156116c857600080fd5b505af11580156116dc573d6000803e3d6000fd5b505050506040513d6000823e601f3d908101601f191682016040526117049190810190613f0f565b905060001982141561171b5760009350505061182e565b6001600160a01b0386166000908152600b60209081526040808320888452600281018352818420805460ff1916600190811790915582516060810184528a815286840180518601518287019081529051850151948201949094528183018054808401825590875295859020815160039097020195865592518051929593946117a993928501929101906137be565b50604082015180516117c59160028401916020909101906137be565b5050600c54604051634cc8221560e01b8152600481018690526001600160a01b039091169150634cc8221590602401600060405180830381600087803b15801561180e57600080fd5b505af1158015611822573d6000803e3d6000fd5b50505050600194505050505b5092915050565b60006001600160a01b03821661189f5760405162461bcd60e51b815260206004820152602960248201527f4552433732313a2061646472657373207a65726f206973206e6f7420612076616044820152683634b21037bbb732b960b91b6064820152608401610cf0565b506001600160a01b031660009081526005602052604090205490565b600d5460405163f3fef3a360e01b8152336004820152602481018390526001600160a01b039091169063f3fef3a390604401611078565b6000918252602082815260408084206001600160a01b0393909316845291905290205460ff1690565b600d54604051639c16627360e01b81526001600160a01b0390911690639c16627390611951903390869088908790600401613d8a565b600060405180830381600087803b15801561196b57600080fd5b505af115801561197f573d6000803e3d6000fd5b50505050505050565b606060038054610bd190613dcd565b336119a36000826118f2565b6119bf5760405162461bcd60e51b8152600401610cf090613e65565b6119d76000805160206144dc833981519152836111ef565b6040516001600160a01b03831681527f16baa937b08d58713325f93ac58b8a9369a4359bbefb4957d6d9b402735722ab90602001611289565b600d54604051632445104b60e21b81526000916001600160a01b031690639114412c90610b57903390879089908890600401613d8a565b6111eb3383836131c9565b600d5460405160016211367960e01b031981526000916001600160a01b03169063ffeec98790610b57903390879089908890600401613d8a565b33611a986000826118f2565b611ab45760405162461bcd60e51b8152600401610cf090613e65565b611abf600033611295565b611aca6000836111ef565b600180546001600160a01b0319166001600160a01b0384169081179091556040519081527ff285329298fd841af46eb83bbe90d1ebe2951c975a65b19a02f965f842ee69c590602001611289565b336000908152600b6020908152604080832060018101805483518186028101860190945280845260609592949192909184015b82821015611cab578382906000526020600020906003020160405180606001604052908160008201548152602001600182018054611b8890613dcd565b80601f0160208091040260200160405190810160405280929190818152602001828054611bb490613dcd565b8015611c015780601f10611bd657610100808354040283529160200191611c01565b820191906000526020600020905b815481529060010190602001808311611be457829003601f168201915b50505050508152602001600282018054611c1a90613dcd565b80601f0160208091040260200160405190810160405280929190818152602001828054611c4690613dcd565b8015611c935780601f10611c6857610100808354040283529160200191611c93565b820191906000526020600020905b815481529060010190602001808311611c7657829003601f168201915b50505050508152505081526020019060010190611b4b565b5050505091505090565b611cbf3383612e07565b611cdb5760405162461bcd60e51b8152600401610cf090613e18565b611ce784848484612e85565b50505050565b33611cf96000826118f2565b611d155760405162461bcd60e51b8152600401610cf090613e65565b50600f80546001600160a01b0319166001600160a01b0392909216919091179055565b6060611d4382612a93565b6000611d5a60408051602081019091526000815290565b90506000815111611d7a576040518060200160405280600081525061156f565b80611d8484613298565b604051602001611d95929190614002565b6040516020818303038152906040529392505050565b600082815260208190526040902060010154611dc681613029565b610d9183836130b7565b336000908152600b6020526040812081611dea8285612b63565b6000858152600a6020526040902054909150421015611e4b5760405162461bcd60e51b815260206004820152601d60248201527f596f752063616e2774206275726e207468697320746f6b656e206e6f770000006044820152606401610cf0565b600019811415611e8e5760405162461bcd60e51b815260206004820152600e60248201526d546f6b656e20494420697373756560901b6044820152606401610cf0565b33611e9885611576565b6001600160a01b031614611ee05760405162461bcd60e51b815260206004820152600f60248201526e4f574e45525348495020495353554560881b6044820152606401610cf0565b600c546040516365441b6960e11b8152600481018690526001600160a01b039091169063ca8836d29060240160206040518083038186803b158015611f2457600080fd5b505afa158015611f38573d6000803e3d6000fd5b505050506040513d601f19601f82011682018060405250810190611f5c9190613db0565b15611f6b575060009392505050565b600c54604080516080810182528681523360208201526001850180546001600160a01b03909416936383a552db938301919086908110611fad57611fad613e02565b906000526020600020906003020160405180606001604052908160008201548152602001600182018054611fe090613dcd565b80601f016020809104026020016040519081016040528092919081815260200182805461200c90613dcd565b80156120595780601f1061202e57610100808354040283529160200191612059565b820191906000526020600020905b81548152906001019060200180831161203c57829003601f168201915b5050505050815260200160028201805461207290613dcd565b80601f016020809104026020016040519081016040528092919081815260200182805461209e90613dcd565b80156120eb5780601f106120c0576101008083540402835291602001916120eb565b820191906000526020600020905b8154815290600101906020018083116120ce57829003601f168201915b5050505050815250508152602001428152506040518263ffffffff1660e01b81526004016121199190614031565b600060405180830381600087803b15801561213357600080fd5b505af1158015612147573d6000803e3d6000fd5b50505060008581526002840160205260409020805460ff191690555060018083018054909161217591614095565b8154811061218557612185613e02565b90600052602060002090600302018260010182815481106121a8576121a8613e02565b90600052602060002090600302016000820154816000015560018201816001019080546121d490613dcd565b6121df92919061383e565b5060028201816002019080546121f490613dcd565b6121ff92919061383e565b50505060018201805480612215576122156140ac565b6000828152602081206003600019909301928302018181559061223b60018301826138b9565b6122496002830160006138b9565b505090556000848152600a602090815260408083209290925581513381529081018690527f3bf2bb29a21dd002d3076982bbbdd5998bb2138c1ad54956a320f41d518b6a3a910160405180910390a15060019392505050565b336122cd7fe0d26dd3554a167bd2b70cb1d833d6b1199f8bd315f72e7901acc10196002e10826118f2565b61230f5760405162461bcd60e51b81526020600482015260136024820152721653d548105491481393d50810531313d5d151606a1b6044820152606401610cf0565b610d9161231b83611576565b848460405180602001604052806000815250612e85565b600e546040516335a64e1560e11b81523360048201526000916001916001600160a01b0390911690636b4c9c2a90602401602060405180830381600087803b15801561237d57600080fd5b505af1158015612391573d6000803e3d6000fd5b505050506040513d601f19601f820116820180604052508101906123b59190613eb1565b1015806123c9575066038d7ea4c680003410155b6124235760405162461bcd60e51b815260206004820152602560248201527f4e656564206174206c6561737420302e30303120657468657220666f72206d696044820152646e74696e6760d81b6064820152608401610cf0565b600f546040516329da31eb60e21b815233918435916001600160a01b039091169063a768c7ac90349061245e90869086908490600401613e90565b6000604051808303818588803b15801561247757600080fd5b505af115801561248b573d6000803e3d6000fd5b505050506001600160a01b038381166000908152600b602052604090208054909250166124cc5780546001600160a01b0319166001600160a01b0384161781555b8435600090815260028201602052604090205460ff161515600114156125345760405162461bcd60e51b815260206004820152601f60248201527f54686174277320756e697175655f696420616c726561647920657869737473006044820152606401610cf0565b8435600090815260028201602090815260408220805460ff191660019081179091558381018054918201815583529120869160030201612574828261421e565b5061258490506203f4804261430c565b85356000818152600a60205260409020919091556125a3908490613335565b604080516001600160a01b0385168152863560208201527f0f6798a560793a54c3bcfe86a93cde1e73087d944c0ea20544137d4121396885910160405180910390a1506001949350505050565b600d54604051630e10ed9360e31b8152600481018390526024810184905260009182916001600160a01b03909116906370876c9890604401602060405180830381600087803b15801561264257600080fd5b505af1158015612656573d6000803e3d6000fd5b505050506040513d601f19601f82011682018060405250810190610ffb9190613eb1565b60003361268782826118f2565b6126a35760405162461bcd60e51b8152600401610cf090613e65565b600080600c60009054906101000a90046001600160a01b03166001600160a01b031663ecd6aac66040518163ffffffff1660e01b8152600401600060405180830381600087803b1580156126f657600080fd5b505af115801561270a573d6000803e3d6000fd5b505050506040513d6000823e601f3d908101601f191682016040526127329190810190613f0f565b90505b60208101516001600160a01b03161561289d5760208101518151600f546040516318993e1760e21b81526001600160a01b0380851660048301526024820184905290911690636264f85c90604401600060405180830381600087803b15801561279d57600080fd5b505af11580156127b1573d6000803e3d6000fd5b505050506001846127c2919061430c565b93506127cd8161311c565b600c60009054906101000a90046001600160a01b03166001600160a01b031663ecd6aac66040518163ffffffff1660e01b8152600401600060405180830381600087803b15801561281d57600080fd5b505af1158015612831573d6000803e3d6000fd5b505050506040513d6000823e601f3d908101601f191682016040526128599190810190613f0f565b92507f23ff0e75edf108e3d0392d92e13e8c8a868ef19001bd49f9e94876dc46dff87f82824260405161288e93929190613e90565b60405180910390a15050612735565b5091505b5090565b6060610bbc6001600160a01b03831660145b606060006128c6836002614324565b6128d190600261430c565b67ffffffffffffffff8111156128e9576128e9613be5565b6040519080825280601f01601f191660200182016040528015612913576020820181803683370190505b509050600360fc1b8160008151811061292e5761292e613e02565b60200101906001600160f81b031916908160001a905350600f60fb1b8160018151811061295d5761295d613e02565b60200101906001600160f81b031916908160001a9053506000612981846002614324565b61298c90600161430c565b90505b6001811115612a04576f181899199a1a9b1b9c1cb0b131b232b360811b85600f16601081106129c0576129c0613e02565b1a60f81b8282815181106129d6576129d6613e02565b60200101906001600160f81b031916908160001a90535060049490941c936129fd81614343565b905061298f565b50831561156f5760405162461bcd60e51b815260206004820181905260248201527f537472696e67733a20686578206c656e67746820696e73756666696369656e746044820152606401610cf0565b60006001600160e01b031982166380ac58cd60e01b1480612a8457506001600160e01b03198216635b5e139f60e01b145b80610bbc5750610bbc826134ce565b6000818152600460205260409020546001600160a01b0316612af25760405162461bcd60e51b8152602060048201526018602482015277115490cdcc8c4e881a5b9d985b1a59081d1bdad95b88125160421b6044820152606401610cf0565b50565b600081815260066020526040902080546001600160a01b0319166001600160a01b0384169081179091558190612b2a82611576565b6001600160a01b03167f8c5be1e5ebec7d5bd14f71427d1e84f3dd0314c0f7b2291e5b200ac8c7c3b92560405160405180910390a45050565b6000805b6001840154811015612bba5782846001018281548110612b8957612b89613e02565b9060005260206000209060030201600001541415612ba8579050610bbc565b80612bb28161435a565b915050612b67565b506000199392505050565b6001600160a01b038085166000908152600b602052604090208054909116612c015780546001600160a01b0319166001600160a01b0386161781555b60008481526002820160209081526040808320805460ff1916600190811790915581516060810183528881528084018881529281018790528582018054808401825590865294849020815160039096020194855591518051929493612c6c93928501929101906137be565b5060408201518051612c889160028401916020909101906137be565b5050505050505050565b6001600160a01b0382166000908152600b6020526040812090612cb58284612b63565b60008481526002840160205260409020805460ff191690556001830180549192509082908110612ce757612ce7613e02565b60009182526020822060039091020181815590612d0760018301826138b9565b612d156002830160006138b9565b5050600180830180549091612d2991614095565b81548110612d3957612d39613e02565b9060005260206000209060030201826001018281548110612d5c57612d5c613e02565b9060005260206000209060030201600082015481600001556001820181600101908054612d8890613dcd565b612d9392919061383e565b506002820181600201908054612da890613dcd565b612db392919061383e565b50505060018201805480612dc957612dc96140ac565b60008281526020812060036000199093019283020181815590612def60018301826138b9565b612dfd6002830160006138b9565b5050905550505050565b600080612e1383611576565b9050806001600160a01b0316846001600160a01b03161480612e5a57506001600160a01b0380821660009081526007602090815260408083209388168352929052205460ff165b80610ba95750836001600160a01b0316612e7384610c54565b6001600160a01b031614949350505050565b612e90848484612eb8565b612e9c84848484613503565b611ce75760405162461bcd60e51b8152600401610cf090614375565b826001600160a01b0316612ecb82611576565b6001600160a01b031614612ef15760405162461bcd60e51b8152600401610cf0906143c7565b6001600160a01b038216612f535760405162461bcd60e51b8152602060048201526024808201527f4552433732313a207472616e7366657220746f20746865207a65726f206164646044820152637265737360e01b6064820152608401610cf0565b612f608383836001613605565b826001600160a01b0316612f7382611576565b6001600160a01b031614612f995760405162461bcd60e51b8152600401610cf0906143c7565b600081815260066020908152604080832080546001600160a01b03199081169091556001600160a01b0387811680865260058552838620805460001901905590871680865283862080546001019055868652600490945282852080549092168417909155905184937fddf252ad1be2c89b69c2b068fc378daa952ba7f163c4a11628f55a4df523b3ef91a4505050565b612af2813361368d565b61303d82826118f2565b6111eb576000828152602081815260408083206001600160a01b03851684529091529020805460ff191660011790556130733390565b6001600160a01b0316816001600160a01b0316837f2f8788117e7eff1d82e926ec794901d17c78024a50270940304540a733656f0d60405160405180910390a45050565b6130c182826118f2565b156111eb576000828152602081815260408083206001600160a01b0385168085529252808320805460ff1916905551339285917ff6391f5c32d9c69d2a47ea670b442974b53935d1edc7fd64eb21e047a839171b9190a45050565b600061312782611576565b9050613137816000846001613605565b61314082611576565b600083815260066020908152604080832080546001600160a01b03199081169091556001600160a01b0385168085526005845282852080546000190190558785526004909352818420805490911690555192935084927fddf252ad1be2c89b69c2b068fc378daa952ba7f163c4a11628f55a4df523b3ef908390a45050565b6111eb8282613033565b816001600160a01b0316836001600160a01b0316141561322b5760405162461bcd60e51b815260206004820152601960248201527f4552433732313a20617070726f766520746f2063616c6c6572000000000000006044820152606401610cf0565b6001600160a01b03838116600081815260076020908152604080832094871680845294825291829020805460ff191686151590811790915591519182527f17307eab39ab6107e8899845ad3d59bd9653f200f220920489ca2b5937696c31910160405180910390a3505050565b606060006132a5836136e6565b600101905060008167ffffffffffffffff8111156132c5576132c5613be5565b6040519080825280601f01601f1916602001820160405280156132ef576020820181803683370190505b5090508181016020015b600019016f181899199a1a9b1b9c1cb0b131b232b360811b600a86061a8153600a85049450846133285761332d565b6132f9565b509392505050565b6001600160a01b03821661338b5760405162461bcd60e51b815260206004820181905260248201527f4552433732313a206d696e7420746f20746865207a65726f20616464726573736044820152606401610cf0565b6000818152600460205260409020546001600160a01b0316156133f05760405162461bcd60e51b815260206004820152601c60248201527f4552433732313a20746f6b656e20616c7265616479206d696e746564000000006044820152606401610cf0565b6133fe600083836001613605565b6000818152600460205260409020546001600160a01b0316156134635760405162461bcd60e51b815260206004820152601c60248201527f4552433732313a20746f6b656e20616c7265616479206d696e746564000000006044820152606401610cf0565b6001600160a01b038216600081815260056020908152604080832080546001019055848352600490915280822080546001600160a01b0319168417905551839291907fddf252ad1be2c89b69c2b068fc378daa952ba7f163c4a11628f55a4df523b3ef908290a45050565b60006001600160e01b03198216637965db0b60e01b1480610bbc57506301ffc9a760e01b6001600160e01b0319831614610bbc565b60006001600160a01b0384163b15610ffb57604051630a85bd0160e11b81526001600160a01b0385169063150b7a029061354790339089908890889060040161440c565b602060405180830381600087803b15801561356157600080fd5b505af1925050508015613591575060408051601f3d908101601f1916820190925261358e91810190614449565b60015b6135eb573d8080156135bf576040519150601f19603f3d011682016040523d82523d6000602084013e6135c4565b606091505b5080516135e35760405162461bcd60e51b8152600401610cf090614375565b805181602001fd5b6001600160e01b031916630a85bd0160e11b149050610ba9565b6001811115611ce7576001600160a01b0384161561364b576001600160a01b03841660009081526005602052604081208054839290613645908490614095565b90915550505b6001600160a01b03831615611ce7576001600160a01b0383166000908152600560205260408120805483929061368290849061430c565b909155505050505050565b61369782826118f2565b6111eb576136a4816128a5565b6136af8360206128b7565b6040516020016136c0929190614466565b60408051601f198184030181529082905262461bcd60e51b8252610cf0916004016139bb565b60008072184f03e93ff9f4daa797ed6e38ed64bf6a1f0160401b83106137255772184f03e93ff9f4daa797ed6e38ed64bf6a1f0160401b830492506040015b6d04ee2d6d415b85acef81000000008310613751576d04ee2d6d415b85acef8100000000830492506020015b662386f26fc10000831061376f57662386f26fc10000830492506010015b6305f5e1008310613787576305f5e100830492506008015b612710831061379b57612710830492506004015b606483106137ad576064830492506002015b600a8310610bbc5760010192915050565b8280546137ca90613dcd565b90600052602060002090601f0160209004810192826137ec5760008555613832565b82601f1061380557805160ff1916838001178555613832565b82800160010185558215613832579182015b82811115613832578251825591602001919060010190613817565b506128a19291506138ef565b82805461384a90613dcd565b90600052602060002090601f01602090048101928261386c5760008555613832565b82601f1061387d5780548555613832565b8280016001018555821561383257600052602060002091601f016020900482015b8281111561383257825482559160010191906001019061389e565b5080546138c590613dcd565b6000825580601f106138d5575050565b601f016020900490600052602060002090810190612af291905b5b808211156128a157600081556001016138f0565b60008060006060848603121561391957600080fd5b505081359360208301359350604090920135919050565b6001600160e01b031981168114612af257600080fd5b60006020828403121561395857600080fd5b813561156f81613930565b60005b8381101561397e578181015183820152602001613966565b83811115611ce75750506000910152565b600081518084526139a7816020860160208601613963565b601f01601f19169290920160200192915050565b60208152600061156f602083018461398f565b6000602082840312156139e057600080fd5b5035919050565b6001600160a01b0381168114612af257600080fd5b60008060408385031215613a0f57600080fd5b8235613a1a816139e7565b946020939093013593505050565b600080600060608486031215613a3d57600080fd5b8335613a48816139e7565b92506020840135613a58816139e7565b929592945050506040919091013590565b600060208284031215613a7b57600080fd5b813561156f816139e7565b60008060408385031215613a9957600080fd5b823591506020830135613aab816139e7565b809150509250929050565b60008060408385031215613ac957600080fd5b50508035926020909101359150565b60008060408385031215613aeb57600080fd5b8235613af6816139e7565b91506020830135613aab816139e7565b8015158114612af257600080fd5b60008060408385031215613b2757600080fd5b8235613b32816139e7565b91506020830135613aab81613b06565b805182526000602082015160606020850152613b61606085018261398f565b905060408301518482036040860152613b7a828261398f565b95945050505050565b6000602080830181845280855180835260408601915060408160051b870101925083870160005b82811015613bd857603f19888603018452613bc6858351613b42565b94509285019290850190600101613baa565b5092979650505050505050565b634e487b7160e01b600052604160045260246000fd5b6040516080810167ffffffffffffffff81118282101715613c1e57613c1e613be5565b60405290565b6040516060810167ffffffffffffffff81118282101715613c1e57613c1e613be5565b604051601f8201601f1916810167ffffffffffffffff81118282101715613c7057613c70613be5565b604052919050565b600067ffffffffffffffff821115613c9257613c92613be5565b50601f01601f191660200190565b60008060008060808587031215613cb657600080fd5b8435613cc1816139e7565b93506020850135613cd1816139e7565b925060408501359150606085013567ffffffffffffffff811115613cf457600080fd5b8501601f81018713613d0557600080fd5b8035613d18613d1382613c78565b613c47565b818152886020838501011115613d2d57600080fd5b8160208401602083013760006020838301015280935050505092959194509250565b600060208284031215613d6157600080fd5b813567ffffffffffffffff811115613d7857600080fd5b82016060818503121561156f57600080fd5b6001600160a01b0394909416845260208401929092526040830152606082015260800190565b600060208284031215613dc257600080fd5b815161156f81613b06565b600181811c90821680613de157607f821691505b602082108114156113bd57634e487b7160e01b600052602260045260246000fd5b634e487b7160e01b600052603260045260246000fd5b6020808252602d908201527f4552433732313a2063616c6c6572206973206e6f7420746f6b656e206f776e6560408201526c1c881bdc88185c1c1c9bdd9959609a1b606082015260800190565b6020808252601190820152702ca7aa9020a922902727aa1020a226a4a760791b604082015260600190565b6001600160a01b039390931683526020830191909152604082015260600190565b600060208284031215613ec357600080fd5b5051919050565b600082601f830112613edb57600080fd5b8151613ee9613d1382613c78565b818152846020838601011115613efe57600080fd5b610ba9826020830160208701613963565b600060208284031215613f2157600080fd5b815167ffffffffffffffff80821115613f3957600080fd5b9083019060808286031215613f4d57600080fd5b613f55613bfb565b825181526020830151613f67816139e7565b6020820152604083015182811115613f7e57600080fd5b830160608188031215613f9057600080fd5b613f98613c24565b81518152602082015184811115613fae57600080fd5b613fba89828501613eca565b602083015250604082015184811115613fd257600080fd5b613fde89828501613eca565b60408301525080604084015250506060830151606082015280935050505092915050565b60008351614014818460208801613963565b835190830190614028818360208801613963565b01949350505050565b602081528151602082015260018060a01b036020830151166040820152600060408301516080606084015261406960a0840182613b42565b9050606084015160808401528091505092915050565b634e487b7160e01b600052601160045260246000fd5b6000828210156140a7576140a761407f565b500390565b634e487b7160e01b600052603160045260246000fd5b6000808335601e198436030181126140d957600080fd5b83018035915067ffffffffffffffff8211156140f457600080fd5b60200191503681900382131561410957600080fd5b9250929050565b601f821115610d9157600081815260208120601f850160051c810160208610156141375750805b601f850160051c820191505b8181101561415657828155600101614143565b505050505050565b67ffffffffffffffff83111561417657614176613be5565b61418a836141848354613dcd565b83614110565b6000601f8411600181146141be57600085156141a65750838201355b600019600387901b1c1916600186901b1783556110a6565b600083815260209020601f19861690835b828110156141ef57868501358255602094850194600190920191016141cf565b508682101561420c5760001960f88860031b161c19848701351681555b505060018560011b0183555050505050565b8135815560018082016020614235818601866140c2565b67ffffffffffffffff81111561424d5761424d613be5565b6142618161425b8654613dcd565b86614110565b6000601f821160018114614295576000831561427d5750838201355b600019600385901b1c1916600184901b1786556142ea565b600086815260209020601f19841690835b828110156142c357868501358255938701939089019087016142a6565b50848210156142e05760001960f88660031b161c19848701351681555b50508683881b0186555b505050505050506142fe60408301836140c2565b611ce781836002860161415e565b6000821982111561431f5761431f61407f565b500190565b600081600019048311821515161561433e5761433e61407f565b500290565b6000816143525761435261407f565b506000190190565b600060001982141561436e5761436e61407f565b5060010190565b60208082526032908201527f4552433732313a207472616e7366657220746f206e6f6e20455243373231526560408201527131b2b4bb32b91034b6b83632b6b2b73a32b960711b606082015260800190565b60208082526025908201527f4552433732313a207472616e736665722066726f6d20696e636f72726563742060408201526437bbb732b960d91b606082015260800190565b6001600160a01b038581168252841660208201526040810183905260806060820181905260009061443f9083018461398f565b9695505050505050565b60006020828403121561445b57600080fd5b815161156f81613930565b7f416363657373436f6e74726f6c3a206163636f756e742000000000000000000081526000835161449e816017850160208801613963565b7001034b99036b4b9b9b4b733903937b6329607d1b60179184019182015283516144cf816028840160208801613963565b0160280194935050505056fef0887ba65ee2024ea881d91b74c2450ef19e1557f03bed3ea9f16b037cbe2dc9a26469706673582212206ecbe0c7bddfa561ce30a6630857004bd03b425d40c2b3feb72d2b414b3ad76864736f6c634300080900336080604052600060025534801561001557600080fd5b50600080546001600160a01b031916331790556114e4806100376000396000f3fe608060405234801561001057600080fd5b50600436106100885760003560e01c8063c06578681161005b578063c0657868146100e5578063ca8836d214610105578063ecd6aac614610128578063fc9df5d51461013057600080fd5b80634cc822151461008d5780634d2ad87b146100a257806383a552db146100c8578063b4d1d795146100db575b600080fd5b6100a061009b366004610fd6565b610153565b005b6100b56100b0366004610fd6565b6102ef565b6040519081526020015b60405180910390f35b6100a06100d63660046110de565b610300565b6100b562093a8081565b6100f86100f3366004610fd6565b61041a565b6040516100bf919061126b565b610118610113366004610fd6565b6105de565b60405190151581526020016100bf565b6100f861063c565b61014361013e366004610fd6565b61098b565b6040516100bf94939291906112b9565b6001546101a75760405162461bcd60e51b815260206004820152601b60248201527f5468657265206973206e6f2070656e64696e6720656c656d656e74000000000060448201526064015b60405180910390fd5b600180546101b690829061130a565b815481106101c6576101c6611321565b9060005260206000209060060201600182815481106101e7576101e7611321565b60009182526020909120825460069092020190815560018083015490820180546001600160a01b0319166001600160a01b0390921691909117905560028083018054918301918255600380850180549293929185019161024690611337565b610251929190610e32565b50600282018160020190805461026690611337565b610271929190610e32565b505050600591820154910155600180548061028e5761028e611372565b6000828152602081206006600019909301928302018181556001810180546001600160a01b031916905560028101828155909190816102d06003850182610ebd565b6102de600283016000610ebd565b505060058201600090555050905550565b60006102fa82610b0b565b92915050565b60018054808201825560009190915281517fb10e2d527612073b26eecdfd717e6a320cf44b4afac2b0732d9fcbe2b7fa0cf660069092029182019081556020808401517fb10e2d527612073b26eecdfd717e6a320cf44b4afac2b0732d9fcbe2b7fa0cf7840180546001600160a01b0319166001600160a01b03909216919091179055604084015180517fb10e2d527612073b26eecdfd717e6a320cf44b4afac2b0732d9fcbe2b7fa0cf885019081558183015180518796939492936103ec937fb10e2d527612073b26eecdfd717e6a320cf44b4afac2b0732d9fcbe2b7fa0cf9909101920190610efa565b5060408201518051610408916002840191602090910190610efa565b50505060608201518160050155505050565b610422610f6e565b60006001838154811061043757610437611321565b9060005260206000209060060201604051806080016040529081600082015481526020016001820160009054906101000a90046001600160a01b03166001600160a01b03166001600160a01b0316815260200160028201604051806060016040529081600082015481526020016001820180546104b390611337565b80601f01602080910402602001604051908101604052809291908181526020018280546104df90611337565b801561052c5780601f106105015761010080835404028352916020019161052c565b820191906000526020600020905b81548152906001019060200180831161050f57829003601f168201915b5050505050815260200160028201805461054590611337565b80601f016020809104026020016040519081016040528092919081815260200182805461057190611337565b80156105be5780601f10610593576101008083540402835291602001916105be565b820191906000526020600020905b8154815290600101906020018083116105a157829003601f168201915b505050919092525050508152600591909101546020909101529392505050565b6000805b60015481101561063357826001828154811061060057610600611321565b90600052602060002090600602016000015414156106215750600192915050565b8061062b81611388565b9150506105e2565b50600092915050565b610644610f6e565b6000546001600160a01b031633146106975760405162461bcd60e51b8152602060048201526016602482015275139bdd08119c9bdb4810dbdc994810dbdb9d1c9858dd60521b604482015260640161019e565b426106a0610f6e565b43600254146106cb576106c660016000600180805490506106c1919061130a565b610b67565b436002555b6001541561091c5760016000815481106106e7576106e7611321565b9060005260206000209060060201604051806080016040529081600082015481526020016001820160009054906101000a90046001600160a01b03166001600160a01b03166001600160a01b03168152602001600282016040518060600160405290816000820154815260200160018201805461076390611337565b80601f016020809104026020016040519081016040528092919081815260200182805461078f90611337565b80156107dc5780601f106107b1576101008083540402835291602001916107dc565b820191906000526020600020905b8154815290600101906020018083116107bf57829003601f168201915b505050505081526020016002820180546107f590611337565b80601f016020809104026020016040519081016040528092919081815260200182805461082190611337565b801561086e5780601f106108435761010080835404028352916020019161086e565b820191906000526020600020905b81548152906001019060200180831161085157829003601f168201915b5050505050815250508152602001600582015481525050905062093a80816060015161089a91906113a3565b82106108af576108aa6000610153565b610985565b60405180608001604052806000815260200160006001600160a01b0316815260200160405180606001604052806000815260200160405180602001604052806000815250815260200160405180602001604052806000815250815250815260200160008152509050610985565b60405180608001604052806000815260200160006001600160a01b03168152602001604051806060016040528060008152602001604051806020016040528060008152508152602001604051806020016040528060008152508152508152602001600081525090505b91505090565b6001818154811061099b57600080fd5b600091825260209182902060069091020180546001820154604080516060810190915260028401805482526003850180549497506001600160a01b03909316959193909291840191906109ed90611337565b80601f0160208091040260200160405190810160405280929190818152602001828054610a1990611337565b8015610a665780601f10610a3b57610100808354040283529160200191610a66565b820191906000526020600020905b815481529060010190602001808311610a4957829003601f168201915b50505050508152602001600282018054610a7f90611337565b80601f0160208091040260200160405190810160405280929190818152602001828054610aab90611337565b8015610af85780601f10610acd57610100808354040283529160200191610af8565b820191906000526020600020905b815481529060010190602001808311610adb57829003601f168201915b5050509190925250505060059091015484565b6000805b600154811015610b5d578260018281548110610b2d57610b2d611321565b9060005260206000209060060201600001541415610b4b5792915050565b80610b5581611388565b915050610b0f565b5060001992915050565b818180821415610b78575050505050565b6000856002610b8787876113bb565b610b9191906113fa565b610b9b9087611436565b81548110610bab57610bab611321565b906000526020600020906006020190505b81831215610e04575b8060050154868481548110610bdc57610bdc611321565b9060005260206000209060060201600501541015610c065782610bfe81611477565b935050610bc5565b858281548110610c1857610c18611321565b90600052602060002090600602016005015481600501541015610c475781610c3f81611490565b925050610c06565b818313610dff57858281548110610c6057610c60611321565b9060005260206000209060060201868481548110610c8057610c80611321565b9060005260206000209060060201878581548110610ca057610ca0611321565b90600052602060002090600602016000898681548110610cc257610cc2611321565b60009182526020909120845460069092020190815560018085015490820180546001600160a01b0319166001600160a01b0390921691909117905560028085018054918301918255600380870180548895949285019190610d2290611337565b610d2d929190610e32565b506002820181600201908054610d4290611337565b610d4d929190610e32565b505050600591820154910155508254815560018084015490820180546001600160a01b0319166001600160a01b0390921691909117905560028084018054918301918255600380860180548795949285019190610da990611337565b610db4929190610e32565b506002820181600201908054610dc990611337565b610dd4929190610e32565b50505060059182015491015550839050610ded81611477565b9350508180610dfb90611490565b9250505b610bbc565b81851215610e1757610e17868684610b67565b83831215610e2a57610e2a868486610b67565b505050505050565b828054610e3e90611337565b90600052602060002090601f016020900481019282610e605760008555610ead565b82601f10610e715780548555610ead565b82800160010185558215610ead57600052602060002091601f016020900482015b82811115610ead578254825591600101919060010190610e92565b50610eb9929150610fc1565b5090565b508054610ec990611337565b6000825580601f10610ed9575050565b601f016020900490600052602060002090810190610ef79190610fc1565b50565b828054610f0690611337565b90600052602060002090601f016020900481019282610f285760008555610ead565b82601f10610f4157805160ff1916838001178555610ead565b82800160010185558215610ead579182015b82811115610ead578251825591602001919060010190610f53565b60405180608001604052806000815260200160006001600160a01b03168152602001610fb460405180606001604052806000815260200160608152602001606081525090565b8152602001600081525090565b5b80821115610eb95760008155600101610fc2565b600060208284031215610fe857600080fd5b5035919050565b634e487b7160e01b600052604160045260246000fd5b6040516080810167ffffffffffffffff8111828210171561102857611028610fef565b60405290565b6040516060810167ffffffffffffffff8111828210171561102857611028610fef565b600082601f83011261106257600080fd5b813567ffffffffffffffff8082111561107d5761107d610fef565b604051601f8301601f19908116603f011681019082821181831017156110a5576110a5610fef565b816040528381528660208588010111156110be57600080fd5b836020870160208301376000602085830101528094505050505092915050565b6000602082840312156110f057600080fd5b813567ffffffffffffffff8082111561110857600080fd5b908301906080828603121561111c57600080fd5b611124611005565b8235815260208301356001600160a01b038116811461114257600080fd5b602082015260408301358281111561115957600080fd5b83016060818803121561116b57600080fd5b61117361102e565b8135815260208201358481111561118957600080fd5b61119589828501611051565b6020830152506040820135848111156111ad57600080fd5b6111b989828501611051565b60408301525080604084015250506060830135606082015280935050505092915050565b6000815180845260005b81811015611203576020818501810151868301820152016111e7565b81811115611215576000602083870101525b50601f01601f19169290920160200192915050565b80518252600060208201516060602085015261124960608501826111dd565b90506040830151848203604086015261126282826111dd565b95945050505050565b602081528151602082015260018060a01b03602083015116604082015260006040830151608060608401526112a360a084018261122a565b9050606084015160808401528091505092915050565b8481526001600160a01b03841660208201526080604082018190526000906112e39083018561122a565b905082606083015295945050505050565b634e487b7160e01b600052601160045260246000fd5b60008282101561131c5761131c6112f4565b500390565b634e487b7160e01b600052603260045260246000fd5b600181811c9082168061134b57607f821691505b6020821081141561136c57634e487b7160e01b600052602260045260246000fd5b50919050565b634e487b7160e01b600052603160045260246000fd5b600060001982141561139c5761139c6112f4565b5060010190565b600082198211156113b6576113b66112f4565b500190565b60008083128015600160ff1b8501841216156113d9576113d96112f4565b6001600160ff1b03840183138116156113f4576113f46112f4565b50500390565b60008261141757634e487b7160e01b600052601260045260246000fd5b600160ff1b821460001984141615611431576114316112f4565b500590565b600080821280156001600160ff1b0384900385131615611458576114586112f4565b600160ff1b8390038412811615611471576114716112f4565b50500190565b60006001600160ff1b0382141561139c5761139c6112f4565b6000600160ff1b8214156114a6576114a66112f4565b50600019019056fea264697066735822122020d301fad1148e3e4a9b76c09e8ec1bc9a4eb6489ee1c2a19d86715afbb2d80364736f6c63430008090033608060405234801561001057600080fd5b50611a93806100206000396000f3fe60806040526004361061011f5760003560e01c8063acc8fb7d116100a0578063e403a32711610064578063e403a32714610362578063ec254e4714610382578063ec69a65414610397578063f3fef3a3146103c7578063ffeec987146103e757600080fd5b8063acc8fb7d146102cb578063ae418095146102eb578063b303e67e1461030b578063baa267571461032b578063c422c2831461034b57600080fd5b806348ad1688116100e757806348ad16881461022b5780636b2513fb1461024b57806370876c98146102785780639114412c1461028b5780639c166273146102ab57600080fd5b8063054660e614610124578063116f7e961461015957806328861d221461019d5780632eced73c146101e957806347e7ef2414610209575b600080fd5b34801561013057600080fd5b5061014461013f366004611816565b610407565b60405190151581526020015b60405180910390f35b34801561016557600080fd5b5061018f610174366004611847565b6001600160a01b031660009081526002602052604090205490565b604051908152602001610150565b3480156101a957600080fd5b506101d46101b8366004611816565b6004602052600090815260409020805460019091015460ff1682565b60408051928352901515602083015201610150565b3480156101f557600080fd5b5061014461020436600461186b565b6104ec565b34801561021557600080fd5b506102296102243660046118a0565b610833565b005b34801561023757600080fd5b50610229610246366004611847565b6108de565b34801561025757600080fd5b5061018f610266366004611847565b60026020526000908152604090205481565b61018f6102863660046118cc565b610946565b34801561029757600080fd5b506101446102a63660046118ee565b610ab4565b3480156102b757600080fd5b506102296102c63660046118ee565b610bfc565b3480156102d757600080fd5b506101446102e63660046118ee565b610d8c565b3480156102f757600080fd5b50610144610306366004611816565b611028565b34801561031757600080fd5b50610229610326366004611816565b611117565b34801561033757600080fd5b50610144610346366004611816565b611201565b34801561035757600080fd5b5061018f62093a8081565b34801561036e57600080fd5b5061014461037d36600461186b565b6112e8565b34801561038e57600080fd5b5061018f600381565b3480156103a357600080fd5b506101446103b2366004611816565b60036020526000908152604090205460ff1681565b3480156103d357600080fd5b506102296103e23660046118a0565b61146e565b3480156103f357600080fd5b506101446104023660046118ee565b611578565b6001546000906001600160a01b0316331461043d5760405162461bcd60e51b815260040161043490611929565b60405180910390fd5b60008281526003602052604090205460ff16801561046d575060008281526004602052604090206001015460ff16155b6104b05760405162461bcd60e51b815260206004820152601460248201527313585c9ad95d081a5cc81b9bdd0818db1bdcd95960621b6044820152606401610434565b6040518281527ff2f4775cbe6b777408b6b232bb5d41ceedbb92b9bfb862d237d61590b1602b08906020015b60405180910390a1506001919050565b600080546001600160a01b031633146105175760405162461bcd60e51b815260040161043490611954565b600082815260036020526040902054829060ff168015610548575060008181526004602052604090206001015460ff165b6105645760405162461bcd60e51b81526004016104349061198b565b60008381526004602090815260408083208784526002810190925290912080546001600160a01b0388811661010090920416146105ed5760405162461bcd60e51b815260206004820152602160248201527f596f7520617265206e6f74206f776e6572206f6620746869732061756374696f6044820152603760f91b6064820152608401610434565b80600201544210156106415760405162461bcd60e51b815260206004820152601960248201527f546869732061756374696f6e206973206e6f7420656e646564000000000000006044820152606401610434565b805461010090046001600160a01b031661069d5760405162461bcd60e51b815260206004820152601f60248201527f546869732061756374696f6e206973206e6f7420696e697469616c697a6564006044820152606401610434565b8054600182015460038301546101009092046001600160a01b039081169291169060006106c9826116ef565b90506106d581836119d0565b6001600160a01b038516600090815260026020526040812080549091906106fd9084906119e7565b909155505030600090815260026020526040812080548392906107219084906119e7565b90915550506001600160a01b0383166000908152600260205260408120805484929061074e9084906119d0565b909155505060008a815260028088016020526040822080546001600160a81b03191681556001810180546001600160a01b0319169055908101829055600301557fd2aa34a4fdbbc6dff6a3e56f46e0f3ae2a31d7785ff3487aa5c95c642acea5018a6001600160a01b038516156107c557846107c7565b855b604080519283526001600160a01b039091166020830152810184905260600160405180910390a16001600160a01b0383161561081657610807838b61170d565b6001975050505050505061082b565b610820848b61170d565b600097505050505050505b509392505050565b6000546001600160a01b0316331461085d5760405162461bcd60e51b815260040161043490611954565b600081116108ad5760405162461bcd60e51b815260206004820152601d60248201527f416d6f756e74206d7573742062652067726561746572207468616e20300000006044820152606401610434565b6001600160a01b038216600090815260026020526040812080548392906108d59084906119e7565b90915550505050565b600180546001600160a01b03199081166001600160a01b03841690811790925560008054339216821790556040805192835260208301919091527f805e5657460d1ff229385ea2f1efed009d11ab180f9e9e05ff9243b83c6058ba910160405180910390a150565b600080546001600160a01b031633146109715760405162461bcd60e51b815260040161043490611954565b600082815260036020526040902054829060ff1680156109a2575060008181526004602052604090206001015460ff165b6109be5760405162461bcd60e51b81526004016104349061198b565b60008381526004602090815260408083208784526002810190925290912060038101543414610a3b5760405162461bcd60e51b8152602060048201526024808201527f596f752063616e27742070757263686173652c206e656564206d6f72652076616044820152636c75657360e01b6064820152608401610434565b805461010090046001600160a01b031660009081526002602052604081208054349290610a699084906119e7565b909155505050600085815260029182016020526040812080546001600160a81b03191681556001810180546001600160a01b0319169055918201819055600390910155509192915050565b600080546001600160a01b03163314610adf5760405162461bcd60e51b815260040161043490611954565b600083815260036020526040902054839060ff168015610b10575060008181526004602052604090206001015460ff165b610b2c5760405162461bcd60e51b81526004016104349061198b565b60008481526004602090815260408083208884526002810190925290912080546001600160a01b038981166101009092041614610bab5760405162461bcd60e51b815260206004820152601c60248201527f5468697320746f6b656e206973206e6f7420796f757220746f6b656e000000006044820152606401610434565b6003810185905560408051888152602081018790527fb28c033901c5ca2028cd8f649a090009d6fa0fc674e168acd2618a1af900f7b991015b60405180910390a16001935050505b50949350505050565b6000546001600160a01b03163314610c265760405162461bcd60e51b815260040161043490611954565b600082815260036020526040902054829060ff168015610c57575060008181526004602052604090206001015460ff165b610c735760405162461bcd60e51b81526004016104349061198b565b600083815260046020908152604080832087845260028101909252909120805461010090046001600160a01b031615610cee5760405162461bcd60e51b815260206004820152601d60248201527f54686973206974656d20616c726561647920696e697469616c697a65640000006044820152606401610434565b805460016001600160a81b03199091166101006001600160a01b038a16021781178255810180546001600160a01b0319169055610d2e62093a80426119e7565b600282018190556003820185905560408051888152602081018890528082018790526060810192909252517fa832766a05f1bd0298b0268308621777cfe1e4eea23afe7c06beea79bc6ddd2d9181900360800190a150505050505050565b600080546001600160a01b03163314610db75760405162461bcd60e51b815260040161043490611954565b600083815260036020526040902054839060ff168015610de8575060008181526004602052604090206001015460ff165b610e045760405162461bcd60e51b81526004016104349061198b565b600084815260046020908152604080832088845260028101909252909120805460ff16610e735760405162461bcd60e51b815260206004820152601c60248201527f54686973206973206e6f7420666f722061756374696f6e206974656d000000006044820152606401610434565b80546001600160a01b03898116610100909204161415610ed55760405162461bcd60e51b815260206004820152601d60248201527f4f776e65722063616e6e6f742073756767657374206e657720636f73740000006044820152606401610434565b80600201544210610f285760405162461bcd60e51b815260206004820152601d60248201527f546869732061756374696f6e20697320616c726561647920656e6465640000006044820152606401610434565b84816003015410610f3e57600093505050610bf3565b6001600160a01b038816600090815260026020526040902054851115610fbb5760405162461bcd60e51b815260206004820152602c60248201527f5573657220646f6573206e6f742068617320656e6f7567682062616c616e636560448201526b20666f722062657474696e6760a01b6064820152608401610434565b6001810180546001600160a01b0319166001600160a01b038a1690811790915560038201869055604080518981526020810189905290810191909152606081018690527f2758327e2540a8640998463ea6c792bf21c6e719e7e39807c27cbe700ca2731590608001610be4565b6001546000906001600160a01b031633146110555760405162461bcd60e51b815260040161043490611929565b60008281526003602052604090205460ff1680156110895750600082815260046020526040902060019081015460ff161515145b6110cc5760405162461bcd60e51b815260206004820152601460248201527313585c9ad95d081a5cc81b9bdd081bdc195b995960621b6044820152606401610434565b60008281526004602052604090819020600101805460ff19169055517f9dc30b8eda31a6a144e092e5de600955523a6a925cc15cc1d1b9b4872cfa6155906104dc9084815260200190565b6001546001600160a01b031633146111415760405162461bcd60e51b815260040161043490611929565b60008181526003602052604090205460ff16156111985760405162461bcd60e51b81526020600482015260156024820152744d61726b657420616c72656164792065786973747360581b6044820152606401610434565b60008181526003602090815260408083208054600160ff19918216811790925560048452938290209081018054909416909355838355518381527f25b2eff8f9cbb97c6c73adf7d94f4f8956260becc65ab075709db7561914a2b1910160405180910390a15050565b6001546000906001600160a01b0316331461122e5760405162461bcd60e51b815260040161043490611929565b60008281526003602052604090205460ff166112985760405162461bcd60e51b815260206004820152602360248201527f4d61726b6574206973206e6f74206578697374732c206372656174652066697260448201526273742160e81b6064820152608401610434565b600082815260046020526040908190206001908101805460ff19169091179055517f877332afc4cf5a3b3ce30a19161c7d2e263703799bec37d80f6bbbf4199e59c7906104dc9084815260200190565b600080546001600160a01b031633146113135760405162461bcd60e51b815260040161043490611954565b600082815260036020526040902054829060ff168015611344575060008181526004602052604090206001015460ff165b6113605760405162461bcd60e51b81526004016104349061198b565b60008381526004602090815260408083208784526002810190925290912080546001600160a01b0388811661010090920416146113df5760405162461bcd60e51b815260206004820152601c60248201527f5468697320746f6b656e206973206e6f7420796f757220746f6b656e000000006044820152606401610434565b600086815260028381016020908152604080842080546001600160a81b03191681556001810180546001600160a01b031916905592830184905560039092019290925580516001600160a01b038a1681529182018890527f39bb3b95fc56345380963759a01377aaa0e0ec26f752d8946687967f25a58558910160405180910390a15060019695505050505050565b6000546001600160a01b031633146114985760405162461bcd60e51b815260040161043490611954565b600081116114e85760405162461bcd60e51b815260206004820152601d60248201527f416d6f756e74206d7573742062652067726561746572207468616e20300000006044820152606401610434565b6001600160a01b0382166000908152600260205260409020548111156115505760405162461bcd60e51b815260206004820152601f60248201527f4e6f20656e6f7567682062616c616e63657320666f72207769746864726177006044820152606401610434565b6001600160a01b038216600090815260026020526040812080548392906108d59084906119d0565b600080546001600160a01b031633146115a35760405162461bcd60e51b815260040161043490611954565b600083815260036020526040902054839060ff1680156115d4575060008181526004602052604090206001015460ff165b6115f05760405162461bcd60e51b81526004016104349061198b565b600084815260046020908152604080832088845260028101909252909120805461010090046001600160a01b03161561167057604080516001600160a01b038a168152602081018990527f3e00d4c7f79c99e1714a15ce5815c7e4a5ffb2cccebf38f376da25d920210195910160405180910390a1600093505050610bf3565b80546001600160a81b0319166101006001600160a01b038a169081029190911782556001820180546001600160a01b03191690556000600283015560038201869055604080519182526020820189905281018690527f876aa8a72ace7ae39101d4957250d89245f71b814b52354a12e1a116ac1eb27c90606001610be4565b60006116fd606460036119ff565b6117079083611a21565b92915050565b600080546040516331a9108f60e11b8152600481018490526001600160a01b0390911690636352211e9060240160206040518083038186803b15801561175257600080fd5b505afa158015611766573d6000803e3d6000fd5b505050506040513d601f19601f8201168201806040525081019061178a9190611a40565b9050826001600160a01b0316816001600160a01b031614156117ab57505050565b60005460405163d8ef538560e01b81526001600160a01b038581166004830152602482018590529091169063d8ef538590604401600060405180830381600087803b1580156117f957600080fd5b505af115801561180d573d6000803e3d6000fd5b50505050505050565b60006020828403121561182857600080fd5b5035919050565b6001600160a01b038116811461184457600080fd5b50565b60006020828403121561185957600080fd5b81356118648161182f565b9392505050565b60008060006060848603121561188057600080fd5b833561188b8161182f565b95602085013595506040909401359392505050565b600080604083850312156118b357600080fd5b82356118be8161182f565b946020939093013593505050565b600080604083850312156118df57600080fd5b50508035926020909101359150565b6000806000806080858703121561190457600080fd5b843561190f8161182f565b966020860135965060408601359560600135945092505050565b6020808252601190820152702cb7ba9030b932903737ba1037bbb732b960791b604082015260600190565b60208082526019908201527f4f6e6c7920616c6c6f77656420666f72204e465420436f726500000000000000604082015260600190565b6020808252601590820152744d61726b6574206973206e6f74206f70656e65642160581b604082015260600190565b634e487b7160e01b600052601160045260246000fd5b6000828210156119e2576119e26119ba565b500390565b600082198211156119fa576119fa6119ba565b500190565b600082611a1c57634e487b7160e01b600052601260045260246000fd5b500490565b6000816000190483118215151615611a3b57611a3b6119ba565b500290565b600060208284031215611a5257600080fd5b81516118648161182f56fea2646970667358221220d93364386f2d64877ddb8955c59c94e6289e69bafdca8de5d497ca017207ca7f64736f6c6343000809003360806040523480156200001157600080fd5b5060405162001cfa38038062001cfa8339810160408190526200003491620003f6565b600280546001600160a01b038085166001600160a01b0319928316811790935560038054918516919092161790556200006d9062000075565b505062000486565b620000a5604051806040016040528060028152602001616f6b60f01b8152506200026f60201b62000f371760201c565b620000b2600082620002ba565b620000bf600033620002ba565b620000f06040518060400160405280600381526020016237b59960e91b8152506200026f60201b62000f371760201c565b620000fd600030620002ba565b6200012e604051806040016040528060038152602001626f6b3360e81b8152506200026f60201b62000f371760201c565b6200015a7f68e07eecb579f8e08e47c66ff59980ad94cac4e7f1ee2e1f3166a76d8572bc4e82620002ba565b6200018b604051806040016040528060038152602001621bdacd60ea1b8152506200026f60201b62000f371760201c565b6003546001600160a01b0316620001f45760405162461bcd60e51b815260206004820152602360248201527f594f55204841564520544f2053455420434f524520434f4e54524143542046496044820152621494d560ea1b606482015260840160405180910390fd5b62000225604051806040016040528060038152602001626f6b3560e81b8152506200026f60201b62000f371760201c565b6200023b30620002ca60201b62000f7d1760201c565b6200026c6040518060400160405280600381526020016237b59b60e91b8152506200026f60201b62000f371760201c565b50565b6200026c816040516024016200028691906200042e565b60408051601f198184030181529190526020810180516001600160e01b0390811663104c13eb60e21b179091526200031816565b620002c6828262000339565b5050565b6040516001600160a01b03821660248201526200026c9060440160408051601f198184030181529190526020810180516001600160e01b0390811663161765e160e11b179091526200031816565b80516a636f6e736f6c652e6c6f67602083016000808483855afa5050505050565b6000828152602081815260408083206001600160a01b038516845290915290205460ff16620002c6576000828152602081815260408083206001600160a01b03851684529091529020805460ff19166001179055620003953390565b6001600160a01b0316816001600160a01b0316837f2f8788117e7eff1d82e926ec794901d17c78024a50270940304540a733656f0d60405160405180910390a45050565b80516001600160a01b0381168114620003f157600080fd5b919050565b600080604083850312156200040a57600080fd5b6200041583620003d9565b91506200042560208401620003d9565b90509250929050565b600060208083528351808285015260005b818110156200045d578581018301518582016040015282016200043f565b8181111562000470576000604083870101525b50601f01601f1916929092016040019392505050565b61186480620004966000396000f3fe60806040526004361061014b5760003560e01c8063812ed5cc116100b6578063b2a1449b1161006f578063b2a1449b146103c9578063b9f14557146103eb578063d53913931461040b578063d547741f1461042d578063df1d0acb1461044d578063eddb657f1461046f57600080fd5b8063812ed5cc14610319578063893d20e81461032c57806391d1485414610354578063983b2d5614610374578063a217fddf14610394578063a6f9dae1146103a957600080fd5b8063305ed01511610108578063305ed015146102595780633092afd51461027957806336568abe1461029957806345941ee0146102b95780634b4e4c3a146102d95780636b4c9c2a146102f957600080fd5b806301ffc9a714610150578063248a9ca314610185578063282c51f3146101c357806328fb6607146101f75780632c56462f146102175780632f2ff15d14610239575b600080fd5b34801561015c57600080fd5b5061017061016b3660046113bc565b6104a3565b60405190151581526020015b60405180910390f35b34801561019157600080fd5b506101b56101a03660046113e6565b60009081526020819052604090206001015490565b60405190815260200161017c565b3480156101cf57600080fd5b506101b57f9667e80708b6eeeb0053fa0cca44e028ff548e2a9f029edfeac87c118b08b7c881565b34801561020357600080fd5b5061017061021236600461141b565b6104da565b34801561022357600080fd5b50610237610232366004611445565b6105cb565b005b34801561024557600080fd5b50610237610254366004611460565b6106fb565b34801561026557600080fd5b50610237610274366004611445565b610725565b34801561028557600080fd5b50610237610294366004611445565b610791565b3480156102a557600080fd5b506102376102b4366004611460565b610812565b3480156102c557600080fd5b506102376102d4366004611445565b61088c565b3480156102e557600080fd5b506102376102f436600461148c565b6108cf565b34801561030557600080fd5b506101b5610314366004611445565b61096e565b6102376103273660046114cc565b610a42565b34801561033857600080fd5b506001546040516001600160a01b03909116815260200161017c565b34801561036057600080fd5b5061017061036f366004611460565b610b2c565b34801561038057600080fd5b5061023761038f366004611445565b610b55565b3480156103a057600080fd5b506101b5600081565b3480156103b557600080fd5b506102376103c4366004611445565b610bce565b3480156103d557600080fd5b506103de610c5a565b60405161017c91906115fa565b3480156103f757600080fd5b50610170610406366004611445565b610e2b565b34801561041757600080fd5b506101b56000805160206117ef83398151915281565b34801561043957600080fd5b50610237610448366004611460565b610f12565b34801561045957600080fd5b506101b560008051602061180f83398151915281565b34801561047b57600080fd5b506101b57f68e07eecb579f8e08e47c66ff59980ad94cac4e7f1ee2e1f3166a76d8572bc4e81565b60006001600160e01b03198216637965db0b60e01b14806104d457506301ffc9a760e01b6001600160e01b03198316145b92915050565b6000336105077f68e07eecb579f8e08e47c66ff59980ad94cac4e7f1ee2e1f3166a76d8572bc4e82610b2c565b61054d5760405162461bcd60e51b8152602060048201526012602482015271594f5520415245204e4f5420504f4c49434560701b60448201526064015b60405180910390fd5b6000831161059d5760405162461bcd60e51b815260206004820152601d60248201527f504552494f44206d7573742062652067726561746572207468616e20300000006044820152606401610544565b6105a78342611653565b6001600160a01b038516600090815260046020526040902055600191505092915050565b336105d7600082610b2c565b6105f35760405162461bcd60e51b81526004016105449061166b565b604051631627905560e01b81526001600160a01b038316600482015273__$4257bb7bc16854cc4c83a0a74a7503d5fb$__9063162790559060240160206040518083038186803b15801561064657600080fd5b505af415801561065a573d6000803e3d6000fd5b505050506040513d601f19601f8201168201806040525081019061067e9190611696565b6106df5760405162461bcd60e51b815260206004820152602c60248201527f506172616d65746572206d75737420626520436f6e747261637420616464726560448201526b39b996103737ba103ab9b2b960a11b6064820152608401610544565b6106f760008051602061180f833981519152836106fb565b5050565b60008281526020819052604090206001015461071681610fc5565b6107208383610fcf565b505050565b33610731600082610b2c565b61074d5760405162461bcd60e51b81526004016105449061166b565b6001600160a01b038216600090815260066020526040902054610771906001611653565b6001600160a01b0390921660009081526006602052604090209190915550565b3361079d600082610b2c565b6107b95760405162461bcd60e51b81526004016105449061166b565b6107d16000805160206117ef83398151915283610812565b6040516001600160a01b03831681527f2f91b591fc56ac0917953ad01ec225524ee5ef0555213e4c8a9d8c9728ee7ffb906020015b60405180910390a15050565b6001600160a01b03811633146108825760405162461bcd60e51b815260206004820152602f60248201527f416363657373436f6e74726f6c3a2063616e206f6e6c792072656e6f756e636560448201526e103937b632b9903337b91039b2b63360891b6064820152608401610544565b6106f78282611053565b33610898600082610b2c565b6108b45760405162461bcd60e51b81526004016105449061166b565b506001600160a01b0316600090815260046020526040812055565b6108da6000336110b8565b6108f26000805160206117ef833981519152836110b8565b61091c7f9667e80708b6eeeb0053fa0cca44e028ff548e2a9f029edfeac87c118b08b7c8826110b8565b600180546001600160a01b03191633179055604080516001600160a01b038481168252831660208201527f0592891029eec9a40bd8c563a4be4b0066d222037d3fa6ad82aa424f0e6023e19101610806565b60003361097b8282610b2c565b80610999575061099960008051602061180f83398151915282610b2c565b6109d35760405162461bcd60e51b815260206004820152600b60248201526a1393d50810531313d5d15160aa1b6044820152606401610544565b6001600160a01b038316600090815260066020526040902054806109fb576000925050610a3c565b6001600160a01b038416600090815260066020526040902054610a20906001906116b8565b6001600160a01b03851660009081526006602052604090205591505b50919050565b604080516060810182526001600160a01b038086168252848116602080840191825293830185815260058054600181018255600091909152845160039091027f036b6384b5eca791c62761152d0c79bb0604c104a5fb6f4eb0703f3154bb3db0810180549286166001600160a01b031993841617815593517f036b6384b5eca791c62761152d0c79bb0604c104a5fb6f4eb0703f3154bb3db1820180549190961692169190911790935551805193949193610b24937f036b6384b5eca791c62761152d0c79bb0604c104a5fb6f4eb0703f3154bb3db2019291909101906112f1565b505050505050565b6000918252602082815260408084206001600160a01b0393909316845291905290205460ff1690565b33610b61600082610b2c565b610b7d5760405162461bcd60e51b81526004016105449061166b565b610b956000805160206117ef833981519152836106fb565b6040516001600160a01b03831681527f16baa937b08d58713325f93ac58b8a9369a4359bbefb4957d6d9b402735722ab90602001610806565b33610bda600082610b2c565b610bf65760405162461bcd60e51b81526004016105449061166b565b610c01600033610812565b610c0c6000836106fb565b600180546001600160a01b0319166001600160a01b0384169081179091556040519081527ff285329298fd841af46eb83bbe90d1ebe2951c975a65b19a02f965f842ee69c590602001610806565b6040805160608082018352600080835260208301529181019190915233610c82600082610b2c565b80610ca05750610ca060008051602061180f83398151915282610b2c565b610cda5760405162461bcd60e51b815260206004820152600b60248201526a1393d50810531313d5d15160aa1b6044820152606401610544565b6005805460009190610cee906001906116b8565b81548110610cfe57610cfe6116cf565b600091825260209182902060408051606081018252600390930290910180546001600160a01b0390811684526001820154169383019390935260028301805492939291840191610d4d906116e5565b80601f0160208091040260200160405190810160405280929190818152602001828054610d79906116e5565b8015610dc65780601f10610d9b57610100808354040283529160200191610dc6565b820191906000526020600020905b815481529060010190602001808311610da957829003601f168201915b50505050508152505090506005805480610de257610de261171a565b60008281526020812060036000199093019283020180546001600160a01b03199081168255600182018054909116905590610e206002830182611371565b5050905591505b5090565b600033610e587f68e07eecb579f8e08e47c66ff59980ad94cac4e7f1ee2e1f3166a76d8572bc4e82610b2c565b610e995760405162461bcd60e51b8152602060048201526012602482015271594f5520415245204e4f5420504f4c49434560701b6044820152606401610544565b6001600160a01b038316600090815260046020526040902054421015610ef35760405162461bcd60e51b815260206004820152600f60248201526e10d85b89dd081d5b98985b881e595d608a1b6044820152606401610544565b50506001600160a01b0316600090815260046020526040812055600190565b600082815260208190526040902060010154610f2d81610fc5565b6107208383611053565b610f7a81604051602401610f4b9190611730565b60408051601f198184030181529190526020810180516001600160e01b031663104c13eb60e21b1790526110c2565b50565b6040516001600160a01b0382166024820152610f7a9060440160408051601f198184030181529190526020810180516001600160e01b031663161765e160e11b1790526110c2565b610f7a81336110e3565b610fd98282610b2c565b6106f7576000828152602081815260408083206001600160a01b03851684529091529020805460ff1916600117905561100f3390565b6001600160a01b0316816001600160a01b0316837f2f8788117e7eff1d82e926ec794901d17c78024a50270940304540a733656f0d60405160405180910390a45050565b61105d8282610b2c565b156106f7576000828152602081815260408083206001600160a01b0385168085529252808320805460ff1916905551339285917ff6391f5c32d9c69d2a47ea670b442974b53935d1edc7fd64eb21e047a839171b9190a45050565b6106f78282610fcf565b80516a636f6e736f6c652e6c6f67602083016000808483855afa5050505050565b6110ed8282610b2c565b6106f7576110fa8161113c565b61110583602061114e565b604051602001611116929190611743565b60408051601f198184030181529082905262461bcd60e51b825261054491600401611730565b60606104d46001600160a01b03831660145b6060600061115d8360026117b8565b611168906002611653565b67ffffffffffffffff811115611180576111806114b6565b6040519080825280601f01601f1916602001820160405280156111aa576020820181803683370190505b509050600360fc1b816000815181106111c5576111c56116cf565b60200101906001600160f81b031916908160001a905350600f60fb1b816001815181106111f4576111f46116cf565b60200101906001600160f81b031916908160001a90535060006112188460026117b8565b611223906001611653565b90505b600181111561129b576f181899199a1a9b1b9c1cb0b131b232b360811b85600f1660108110611257576112576116cf565b1a60f81b82828151811061126d5761126d6116cf565b60200101906001600160f81b031916908160001a90535060049490941c93611294816117d7565b9050611226565b5083156112ea5760405162461bcd60e51b815260206004820181905260248201527f537472696e67733a20686578206c656e67746820696e73756666696369656e746044820152606401610544565b9392505050565b8280546112fd906116e5565b90600052602060002090601f01602090048101928261131f5760008555611365565b82601f1061133857805160ff1916838001178555611365565b82800160010185558215611365579182015b8281111561136557825182559160200191906001019061134a565b50610e279291506113a7565b50805461137d906116e5565b6000825580601f1061138d575050565b601f016020900490600052602060002090810190610f7a91905b5b80821115610e2757600081556001016113a8565b6000602082840312156113ce57600080fd5b81356001600160e01b0319811681146112ea57600080fd5b6000602082840312156113f857600080fd5b5035919050565b80356001600160a01b038116811461141657600080fd5b919050565b6000806040838503121561142e57600080fd5b611437836113ff565b946020939093013593505050565b60006020828403121561145757600080fd5b6112ea826113ff565b6000806040838503121561147357600080fd5b82359150611483602084016113ff565b90509250929050565b6000806040838503121561149f57600080fd5b6114a8836113ff565b9150611483602084016113ff565b634e487b7160e01b600052604160045260246000fd5b6000806000606084860312156114e157600080fd5b6114ea846113ff565b92506114f8602085016113ff565b9150604084013567ffffffffffffffff8082111561151557600080fd5b818601915086601f83011261152957600080fd5b81358181111561153b5761153b6114b6565b604051601f8201601f19908116603f01168101908382118183101715611563576115636114b6565b8160405282815289602084870101111561157c57600080fd5b8260208601602083013760006020848301015280955050505050509250925092565b60005b838110156115b95781810151838201526020016115a1565b838111156115c8576000848401525b50505050565b600081518084526115e681602086016020860161159e565b601f01601f19169290920160200192915050565b60208152600060018060a01b0380845116602084015280602085015116604084015250604083015160608084015261163560808401826115ce565b949350505050565b634e487b7160e01b600052601160045260246000fd5b600082198211156116665761166661163d565b500190565b6020808252601190820152702ca7aa9020a922902727aa1020a226a4a760791b604082015260600190565b6000602082840312156116a857600080fd5b815180151581146112ea57600080fd5b6000828210156116ca576116ca61163d565b500390565b634e487b7160e01b600052603260045260246000fd5b600181811c908216806116f957607f821691505b60208210811415610a3c57634e487b7160e01b600052602260045260246000fd5b634e487b7160e01b600052603160045260246000fd5b6020815260006112ea60208301846115ce565b7f416363657373436f6e74726f6c3a206163636f756e742000000000000000000081526000835161177b81601785016020880161159e565b7001034b99036b4b9b9b4b733903937b6329607d1b60179184019182015283516117ac81602884016020880161159e565b01602801949350505050565b60008160001904831182151516156117d2576117d261163d565b500290565b6000816117e6576117e661163d565b50600019019056fef0887ba65ee2024ea881d91b74c2450ef19e1557f03bed3ea9f16b037cbe2dc9e0d26dd3554a167bd2b70cb1d833d6b1199f8bd315f72e7901acc10196002e10a2646970667358221220ed731ffe49345811c409e7eb3f3f53b02af54933c63e2d7b214a1bfe1ab7780564736f6c63430008090033ad3228b676f7d3cd4284a5443f17f1962b36e491b30a40b2405849e597ba5fb5",
  "linkReferences": {
    "contracts/utils/Util.sol": {
      "Util": [
        {
          "length": 20,
          "start": 1159
        },
        {
          "length": 20,
          "start": 7330
        },
        {
          "length": 20,
          "start": 35669
        }
      ]
    }
  },
  "deployedLinkReferences": {
    "contracts/utils/Util.sol": {
      "Util": [
        {
          "length": 20,
          "start": 4339
        }
      ]
    }
  }
}